{"abi":[{"type":"constructor","inputs":[{"name":"admin","type":"address","internalType":"address"}],"stateMutability":"nonpayable"},{"type":"function","name":"DEFAULT_ADMIN_ROLE","inputs":[],"outputs":[{"name":"","type":"bytes32","internalType":"bytes32"}],"stateMutability":"view"},{"type":"function","name":"MINTER_ROLE","inputs":[],"outputs":[{"name":"","type":"bytes32","internalType":"bytes32"}],"stateMutability":"view"},{"type":"function","name":"PAUSER_ROLE","inputs":[],"outputs":[{"name":"","type":"bytes32","internalType":"bytes32"}],"stateMutability":"view"},{"type":"function","name":"approve","inputs":[{"name":"to","type":"address","internalType":"address"},{"name":"tokenId","type":"uint256","internalType":"uint256"}],"outputs":[],"stateMutability":"nonpayable"},{"type":"function","name":"balanceOf","inputs":[{"name":"owner","type":"address","internalType":"address"}],"outputs":[{"name":"","type":"uint256","internalType":"uint256"}],"stateMutability":"view"},{"type":"function","name":"burn","inputs":[{"name":"tokenId","type":"uint256","internalType":"uint256"}],"outputs":[],"stateMutability":"nonpayable"},{"type":"function","name":"certificates","inputs":[{"name":"","type":"uint256","internalType":"uint256"}],"outputs":[{"name":"goldAmountWei","type":"uint256","internalType":"uint256"},{"name":"issuedAt","type":"uint256","internalType":"uint256"},{"name":"issuer","type":"address","internalType":"address"}],"stateMutability":"view"},{"type":"function","name":"getApproved","inputs":[{"name":"tokenId","type":"uint256","internalType":"uint256"}],"outputs":[{"name":"","type":"address","internalType":"address"}],"stateMutability":"view"},{"type":"function","name":"getRoleAdmin","inputs":[{"name":"role","type":"bytes32","internalType":"bytes32"}],"outputs":[{"name":"","type":"bytes32","internalType":"bytes32"}],"stateMutability":"view"},{"type":"function","name":"grantRole","inputs":[{"name":"role","type":"bytes32","internalType":"bytes32"},{"name":"account","type":"address","internalType":"address"}],"outputs":[],"stateMutability":"nonpayable"},{"type":"function","name":"hasRole","inputs":[{"name":"role","type":"bytes32","internalType":"bytes32"},{"name":"account","type":"address","internalType":"address"}],"outputs":[{"name":"","type":"bool","internalType":"bool"}],"stateMutability":"view"},{"type":"function","name":"isApprovedForAll","inputs":[{"name":"owner","type":"address","internalType":"address"},{"name":"operator","type":"address","internalType":"address"}],"outputs":[{"name":"","type":"bool","internalType":"bool"}],"stateMutability":"view"},{"type":"function","name":"mint","inputs":[{"name":"to","type":"address","internalType":"address"},{"name":"goldAmountWei","type":"uint256","internalType":"uint256"}],"outputs":[{"name":"tokenId","type":"uint256","internalType":"uint256"}],"stateMutability":"nonpayable"},{"type":"function","name":"name","inputs":[],"outputs":[{"name":"","type":"string","internalType":"string"}],"stateMutability":"view"},{"type":"function","name":"ownerOf","inputs":[{"name":"tokenId","type":"uint256","internalType":"uint256"}],"outputs":[{"name":"","type":"address","internalType":"address"}],"stateMutability":"view"},{"type":"function","name":"pause","inputs":[],"outputs":[],"stateMutability":"nonpayable"},{"type":"function","name":"paused","inputs":[],"outputs":[{"name":"","type":"bool","internalType":"bool"}],"stateMutability":"view"},{"type":"function","name":"renounceRole","inputs":[{"name":"role","type":"bytes32","internalType":"bytes32"},{"name":"callerConfirmation","type":"address","internalType":"address"}],"outputs":[],"stateMutability":"nonpayable"},{"type":"function","name":"revokeRole","inputs":[{"name":"role","type":"bytes32","internalType":"bytes32"},{"name":"account","type":"address","internalType":"address"}],"outputs":[],"stateMutability":"nonpayable"},{"type":"function","name":"safeTransferFrom","inputs":[{"name":"from","type":"address","internalType":"address"},{"name":"to","type":"address","internalType":"address"},{"name":"tokenId","type":"uint256","internalType":"uint256"}],"outputs":[],"stateMutability":"nonpayable"},{"type":"function","name":"safeTransferFrom","inputs":[{"name":"from","type":"address","internalType":"address"},{"name":"to","type":"address","internalType":"address"},{"name":"tokenId","type":"uint256","internalType":"uint256"},{"name":"data","type":"bytes","internalType":"bytes"}],"outputs":[],"stateMutability":"nonpayable"},{"type":"function","name":"setApprovalForAll","inputs":[{"name":"operator","type":"address","internalType":"address"},{"name":"approved","type":"bool","internalType":"bool"}],"outputs":[],"stateMutability":"nonpayable"},{"type":"function","name":"supportsInterface","inputs":[{"name":"interfaceId","type":"bytes4","internalType":"bytes4"}],"outputs":[{"name":"","type":"bool","internalType":"bool"}],"stateMutability":"view"},{"type":"function","name":"symbol","inputs":[],"outputs":[{"name":"","type":"string","internalType":"string"}],"stateMutability":"view"},{"type":"function","name":"tokenByIndex","inputs":[{"name":"index","type":"uint256","internalType":"uint256"}],"outputs":[{"name":"","type":"uint256","internalType":"uint256"}],"stateMutability":"view"},{"type":"function","name":"tokenOfOwnerByIndex","inputs":[{"name":"owner","type":"address","internalType":"address"},{"name":"index","type":"uint256","internalType":"uint256"}],"outputs":[{"name":"","type":"uint256","internalType":"uint256"}],"stateMutability":"view"},{"type":"function","name":"tokenURI","inputs":[{"name":"tokenId","type":"uint256","internalType":"uint256"}],"outputs":[{"name":"","type":"string","internalType":"string"}],"stateMutability":"view"},{"type":"function","name":"totalSupply","inputs":[],"outputs":[{"name":"","type":"uint256","internalType":"uint256"}],"stateMutability":"view"},{"type":"function","name":"transferFrom","inputs":[{"name":"from","type":"address","internalType":"address"},{"name":"to","type":"address","internalType":"address"},{"name":"tokenId","type":"uint256","internalType":"uint256"}],"outputs":[],"stateMutability":"nonpayable"},{"type":"function","name":"unpause","inputs":[],"outputs":[],"stateMutability":"nonpayable"},{"type":"event","name":"Approval","inputs":[{"name":"owner","type":"address","indexed":true,"internalType":"address"},{"name":"approved","type":"address","indexed":true,"internalType":"address"},{"name":"tokenId","type":"uint256","indexed":true,"internalType":"uint256"}],"anonymous":false},{"type":"event","name":"ApprovalForAll","inputs":[{"name":"owner","type":"address","indexed":true,"internalType":"address"},{"name":"operator","type":"address","indexed":true,"internalType":"address"},{"name":"approved","type":"bool","indexed":false,"internalType":"bool"}],"anonymous":false},{"type":"event","name":"CertificateBurned","inputs":[{"name":"tokenId","type":"uint256","indexed":true,"internalType":"uint256"}],"anonymous":false},{"type":"event","name":"CertificateMinted","inputs":[{"name":"to","type":"address","indexed":true,"internalType":"address"},{"name":"tokenId","type":"uint256","indexed":true,"internalType":"uint256"},{"name":"goldAmountWei","type":"uint256","indexed":false,"internalType":"uint256"}],"anonymous":false},{"type":"event","name":"Paused","inputs":[{"name":"account","type":"address","indexed":false,"internalType":"address"}],"anonymous":false},{"type":"event","name":"RoleAdminChanged","inputs":[{"name":"role","type":"bytes32","indexed":true,"internalType":"bytes32"},{"name":"previousAdminRole","type":"bytes32","indexed":true,"internalType":"bytes32"},{"name":"newAdminRole","type":"bytes32","indexed":true,"internalType":"bytes32"}],"anonymous":false},{"type":"event","name":"RoleGranted","inputs":[{"name":"role","type":"bytes32","indexed":true,"internalType":"bytes32"},{"name":"account","type":"address","indexed":true,"internalType":"address"},{"name":"sender","type":"address","indexed":true,"internalType":"address"}],"anonymous":false},{"type":"event","name":"RoleRevoked","inputs":[{"name":"role","type":"bytes32","indexed":true,"internalType":"bytes32"},{"name":"account","type":"address","indexed":true,"internalType":"address"},{"name":"sender","type":"address","indexed":true,"internalType":"address"}],"anonymous":false},{"type":"event","name":"Transfer","inputs":[{"name":"from","type":"address","indexed":true,"internalType":"address"},{"name":"to","type":"address","indexed":true,"internalType":"address"},{"name":"tokenId","type":"uint256","indexed":true,"internalType":"uint256"}],"anonymous":false},{"type":"event","name":"Unpaused","inputs":[{"name":"account","type":"address","indexed":false,"internalType":"address"}],"anonymous":false},{"type":"error","name":"AccessControlBadConfirmation","inputs":[]},{"type":"error","name":"AccessControlUnauthorizedAccount","inputs":[{"name":"account","type":"address","internalType":"address"},{"name":"neededRole","type":"bytes32","internalType":"bytes32"}]},{"type":"error","name":"ERC721EnumerableForbiddenBatchMint","inputs":[]},{"type":"error","name":"ERC721IncorrectOwner","inputs":[{"name":"sender","type":"address","internalType":"address"},{"name":"tokenId","type":"uint256","internalType":"uint256"},{"name":"owner","type":"address","internalType":"address"}]},{"type":"error","name":"ERC721InsufficientApproval","inputs":[{"name":"operator","type":"address","internalType":"address"},{"name":"tokenId","type":"uint256","internalType":"uint256"}]},{"type":"error","name":"ERC721InvalidApprover","inputs":[{"name":"approver","type":"address","internalType":"address"}]},{"type":"error","name":"ERC721InvalidOperator","inputs":[{"name":"operator","type":"address","internalType":"address"}]},{"type":"error","name":"ERC721InvalidOwner","inputs":[{"name":"owner","type":"address","internalType":"address"}]},{"type":"error","name":"ERC721InvalidReceiver","inputs":[{"name":"receiver","type":"address","internalType":"address"}]},{"type":"error","name":"ERC721InvalidSender","inputs":[{"name":"sender","type":"address","internalType":"address"}]},{"type":"error","name":"ERC721NonexistentToken","inputs":[{"name":"tokenId","type":"uint256","internalType":"uint256"}]},{"type":"error","name":"ERC721OutOfBoundsIndex","inputs":[{"name":"owner","type":"address","internalType":"address"},{"name":"index","type":"uint256","internalType":"uint256"}]},{"type":"error","name":"EnforcedPause","inputs":[]},{"type":"error","name":"ExpectedPause","inputs":[]},{"type":"error","name":"NotOwnerOrApproved","inputs":[]},{"type":"error","name":"ZeroAddress","inputs":[]},{"type":"error","name":"ZeroAmount","inputs":[]}],"bytecode":{"object":"0x608060405234801562000010575f80fd5b5060405162001e2338038062001e238339810160408190526200003391620001c3565b6040518060400160405280601581526020017f476f6c645661756c7420436572746966696361746500000000000000000000008152506040518060400160405280600681526020016511d590d1549560d21b815250815f908162000098919062000290565b506001620000a7828262000290565b5050506001600160a01b038116620000d25760405163d92e233d60e01b815260040160405180910390fd5b620000de5f8262000113565b506200010b7f65d7a28e3265b37a6474929f336521b332c1681b933f6cb9f3376673440d862a8262000113565b50506200035c565b5f828152600a602090815260408083206001600160a01b038516845290915281205460ff16620001ba575f838152600a602090815260408083206001600160a01b03861684529091529020805460ff19166001179055620001713390565b6001600160a01b0316826001600160a01b0316847f2f8788117e7eff1d82e926ec794901d17c78024a50270940304540a733656f0d60405160405180910390a4506001620001bd565b505f5b92915050565b5f60208284031215620001d4575f80fd5b81516001600160a01b0381168114620001eb575f80fd5b9392505050565b634e487b7160e01b5f52604160045260245ffd5b600181811c908216806200021b57607f821691505b6020821081036200023a57634e487b7160e01b5f52602260045260245ffd5b50919050565b601f8211156200028b57805f5260205f20601f840160051c81016020851015620002675750805b601f840160051c820191505b8181101562000288575f815560010162000273565b50505b505050565b81516001600160401b03811115620002ac57620002ac620001f2565b620002c481620002bd845462000206565b8462000240565b602080601f831160018114620002fa575f8415620002e25750858301515b5f19600386901b1c1916600185901b17855562000354565b5f85815260208120601f198616915b828110156200032a5788860151825594840194600190910190840162000309565b50858210156200034857878501515f19600388901b60f8161c191681555b505060018460011b0185555b505050505050565b611ab9806200036a5f395ff3fe608060405234801561000f575f80fd5b50600436106101d1575f3560e01c80635c975abb116100fe578063a217fddf1161009e578063d53913931161006e578063d539139314610415578063d547741f1461043c578063e63ab1e91461044f578063e985e9c514610476575f80fd5b8063a217fddf146103d5578063a22cb465146103dc578063b88d4fde146103ef578063c87b56dd14610402575f80fd5b806370a08231116100d957806370a082311461039f5780638456cb59146103b257806391d14854146103ba57806395d89b41146103cd575f80fd5b80635c975abb146103265780636352211e14610331578063663b3e2214610344575f80fd5b80632f2ff15d1161017457806340c10f191161014457806340c10f19146102da57806342842e0e146102ed57806342966c68146103005780634f6ccce714610313575f80fd5b80632f2ff15d146102995780632f745c59146102ac57806336568abe146102bf5780633f4ba83a146102d2575f80fd5b8063095ea7b3116101af578063095ea7b31461023d57806318160ddd1461025257806323b872dd14610264578063248a9ca314610277575f80fd5b806301ffc9a7146101d557806306fdde03146101fd578063081812fc14610212575b5f80fd5b6101e86101e33660046116c5565b610489565b60405190151581526020015b60405180910390f35b610205610499565b6040516101f4919061172d565b61022561022036600461173f565b610528565b6040516001600160a01b0390911681526020016101f4565b61025061024b366004611771565b61054f565b005b6008545b6040519081526020016101f4565b610250610272366004611799565b61055e565b61025661028536600461173f565b5f908152600a602052604090206001015490565b6102506102a73660046117d2565b6105ec565b6102566102ba366004611771565b610610565b6102506102cd3660046117d2565b610673565b6102506106ab565b6102566102e8366004611771565b6106e0565b6102506102fb366004611799565b61081b565b61025061030e36600461173f565b610835565b61025661032136600461173f565b6108bf565b600b5460ff166101e8565b61022561033f36600461173f565b610914565b61037b61035236600461173f565b600d6020525f90815260409020805460018201546002909201549091906001600160a01b031683565b6040805193845260208401929092526001600160a01b0316908201526060016101f4565b6102566103ad3660046117fc565b61091e565b610250610963565b6101e86103c83660046117d2565b610995565b6102056109bf565b6102565f81565b6102506103ea366004611815565b6109ce565b6102506103fd366004611862565b6109d9565b61020561041036600461173f565b6109f1565b6102567f9f2df0fed2c77648de5860a4cc508cd0818c85b8b8a1ab4ceeef8d981c8956a681565b61025061044a3660046117d2565b610a62565b6102567f65d7a28e3265b37a6474929f336521b332c1681b933f6cb9f3376673440d862a81565b6101e8610484366004611937565b610a86565b5f61049382610ab3565b92915050565b60605f80546104a79061195f565b80601f01602080910402602001604051908101604052809291908181526020018280546104d39061195f565b801561051e5780601f106104f55761010080835404028352916020019161051e565b820191905f5260205f20905b81548152906001019060200180831161050157829003601f168201915b5050505050905090565b5f61053282610ad7565b505f828152600460205260409020546001600160a01b0316610493565b61055a828233610b0f565b5050565b6001600160a01b03821661058c57604051633250574960e11b81525f60048201526024015b60405180910390fd5b5f610598838333610b1c565b9050836001600160a01b0316816001600160a01b0316146105e6576040516364283d7b60e01b81526001600160a01b0380861660048301526024820184905282166044820152606401610583565b50505050565b5f828152600a602052604090206001015461060681610b38565b6105e68383610b42565b5f61061a8361091e565b821061064b5760405163295f44f760e21b81526001600160a01b038416600482015260248101839052604401610583565b506001600160a01b03919091165f908152600660209081526040808320938352929052205490565b6001600160a01b038116331461069c5760405163334bd91960e11b815260040160405180910390fd5b6106a68282610bd3565b505050565b7f65d7a28e3265b37a6474929f336521b332c1681b933f6cb9f3376673440d862a6106d581610b38565b6106dd610c3e565b50565b5f7f9f2df0fed2c77648de5860a4cc508cd0818c85b8b8a1ab4ceeef8d981c8956a661070b81610b38565b610713610c90565b6001600160a01b03841661073a5760405163d92e233d60e01b815260040160405180910390fd5b825f0361075a57604051631f2a200560e01b815260040160405180910390fd5b600c8054905f610769836119ab565b9091555060408051606081018252858152426020808301918252338385019081525f868152600d909252939020915182555160018201559051600290910180546001600160a01b0319166001600160a01b0390921691909117905591506107d08483610cb6565b81846001600160a01b03167ffb2a8276c788bcdeaec6f4ec55f21fc636460802e63cb7e05337309232a1b9058560405161080c91815260200190565b60405180910390a35092915050565b6106a683838360405180602001604052805f8152506109d9565b7f9f2df0fed2c77648de5860a4cc508cd0818c85b8b8a1ab4ceeef8d981c8956a661085f81610b38565b5f828152600d60205260408120818155600181019190915560020180546001600160a01b031916905561089182610ccf565b60405182907fb5b5ff4ec0735adc942b77efd721b86b1b579d7afac0c1ae614681eead1dfbe3905f90a25050565b5f6108c960085490565b82106108f15760405163295f44f760e21b81525f600482015260248101839052604401610583565b60088281548110610904576109046119c3565b905f5260205f2001549050919050565b5f61049382610ad7565b5f6001600160a01b038216610948576040516322718ad960e21b81525f6004820152602401610583565b506001600160a01b03165f9081526003602052604090205490565b7f65d7a28e3265b37a6474929f336521b332c1681b933f6cb9f3376673440d862a61098d81610b38565b6106dd610d07565b5f918252600a602090815260408084206001600160a01b0393909316845291905290205460ff1690565b6060600180546104a79061195f565b61055a338383610d44565b6109e484848461055e565b6105e63385858585610de2565b60606109fc82610ad7565b505f610a1260408051602081019091525f815290565b90505f815111610a305760405180602001604052805f815250610a5b565b80610a3a84610f0a565b604051602001610a4b9291906119d7565b6040516020818303038152906040525b9392505050565b5f828152600a6020526040902060010154610a7c81610b38565b6105e68383610bd3565b6001600160a01b039182165f90815260056020908152604080832093909416825291909152205460ff1690565b5f6001600160e01b03198216637965db0b60e01b1480610493575061049382610f9a565b5f818152600260205260408120546001600160a01b03168061049357604051637e27328960e01b815260048101849052602401610583565b6106a68383836001610fbe565b5f610b25610c90565b610b308484846110c2565b949350505050565b6106dd813361118d565b5f610b4d8383610995565b610bcc575f838152600a602090815260408083206001600160a01b03861684529091529020805460ff19166001179055610b843390565b6001600160a01b0316826001600160a01b0316847f2f8788117e7eff1d82e926ec794901d17c78024a50270940304540a733656f0d60405160405180910390a4506001610493565b505f610493565b5f610bde8383610995565b15610bcc575f838152600a602090815260408083206001600160a01b0386168085529252808320805460ff1916905551339286917ff6391f5c32d9c69d2a47ea670b442974b53935d1edc7fd64eb21e047a839171b9190a4506001610493565b610c466111c6565b600b805460ff191690557f5db9ee0a495bf2e6ff9c91a7834c1ba4fdd244a5e8aa4e537bd38aeae4b073aa335b6040516001600160a01b03909116815260200160405180910390a1565b600b5460ff1615610cb45760405163d93c066560e01b815260040160405180910390fd5b565b61055a828260405180602001604052805f8152506111e9565b5f610cdb5f835f610b1c565b90506001600160a01b03811661055a57604051637e27328960e01b815260048101839052602401610583565b610d0f610c90565b600b805460ff191660011790557f62e78cea01bee320cd4e420270b5ea74000d11b0c9f74754ebdbfc544b05a258610c733390565b6001600160a01b038216610d7657604051630b61174360e31b81526001600160a01b0383166004820152602401610583565b6001600160a01b038381165f81815260056020908152604080832094871680845294825291829020805460ff191686151590811790915591519182527f17307eab39ab6107e8899845ad3d59bd9653f200f220920489ca2b5937696c31910160405180910390a3505050565b6001600160a01b0383163b15610f0357604051630a85bd0160e11b81526001600160a01b0384169063150b7a0290610e24908890889087908790600401611a05565b6020604051808303815f875af1925050508015610e5e575060408051601f3d908101601f19168201909252610e5b91810190611a41565b60015b610ec5573d808015610e8b576040519150601f19603f3d011682016040523d82523d5f602084013e610e90565b606091505b5080515f03610ebd57604051633250574960e11b81526001600160a01b0385166004820152602401610583565b805181602001fd5b6001600160e01b03198116630a85bd0160e11b14610f0157604051633250574960e11b81526001600160a01b0385166004820152602401610583565b505b5050505050565b60605f610f1683611200565b60010190505f8167ffffffffffffffff811115610f3557610f3561184e565b6040519080825280601f01601f191660200182016040528015610f5f576020820181803683370190505b5090508181016020015b5f19016f181899199a1a9b1b9c1cb0b131b232b360811b600a86061a8153600a8504945084610f6957509392505050565b5f6001600160e01b0319821663780e9d6360e01b14806104935750610493826112d7565b8080610fd257506001600160a01b03821615155b15611093575f610fe184610ad7565b90506001600160a01b0383161580159061100d5750826001600160a01b0316816001600160a01b031614155b8015611020575061101e8184610a86565b155b156110495760405163a9fbf51f60e01b81526001600160a01b0384166004820152602401610583565b81156110915783856001600160a01b0316826001600160a01b03167f8c5be1e5ebec7d5bd14f71427d1e84f3dd0314c0f7b2291e5b200ac8c7c3b92560405160405180910390a45b505b50505f90815260046020526040902080546001600160a01b0319166001600160a01b0392909216919091179055565b5f806110cf858585611326565b90506001600160a01b03811661112b5761112684600880545f838152600960205260408120829055600182018355919091527ff3f7a9fe364faab93b216da50a3214154f22a0a2b415b23a84c8169e8b636ee30155565b61114e565b846001600160a01b0316816001600160a01b03161461114e5761114e8185611418565b6001600160a01b03851661116a5761116584611495565b610b30565b846001600160a01b0316816001600160a01b031614610b3057610b30858561153c565b6111978282610995565b61055a5760405163e2517d3f60e01b81526001600160a01b038216600482015260248101839052604401610583565b600b5460ff16610cb457604051638dfc202b60e01b815260040160405180910390fd5b6111f3838361158a565b6106a6335f858585610de2565b5f8072184f03e93ff9f4daa797ed6e38ed64bf6a1f0160401b831061123e5772184f03e93ff9f4daa797ed6e38ed64bf6a1f0160401b830492506040015b6d04ee2d6d415b85acef8100000000831061126a576d04ee2d6d415b85acef8100000000830492506020015b662386f26fc10000831061128857662386f26fc10000830492506010015b6305f5e10083106112a0576305f5e100830492506008015b61271083106112b457612710830492506004015b606483106112c6576064830492506002015b600a83106104935760010192915050565b5f6001600160e01b031982166380ac58cd60e01b148061130757506001600160e01b03198216635b5e139f60e01b145b8061049357506301ffc9a760e01b6001600160e01b0319831614610493565b5f828152600260205260408120546001600160a01b0390811690831615611352576113528184866115eb565b6001600160a01b0381161561138c5761136d5f855f80610fbe565b6001600160a01b0381165f90815260036020526040902080545f190190555b6001600160a01b038516156113ba576001600160a01b0385165f908152600360205260409020805460010190555b5f8481526002602052604080822080546001600160a01b0319166001600160a01b0389811691821790925591518793918516917fddf252ad1be2c89b69c2b068fc378daa952ba7f163c4a11628f55a4df523b3ef91a4949350505050565b5f6114228361091e565b5f838152600760209081526040808320546001600160a01b0388168452600690925290912091925090818314611477575f83815260208281526040808320548584528184208190558352600790915290208290555b5f938452600760209081526040808620869055938552525081205550565b6008545f906114a690600190611a5c565b5f83815260096020526040812054600880549394509092849081106114cd576114cd6119c3565b905f5260205f200154905080600883815481106114ec576114ec6119c3565b5f91825260208083209091019290925582815260099091526040808220849055858252812055600880548061152357611523611a6f565b600190038181905f5260205f20015f9055905550505050565b5f60016115488461091e565b6115529190611a5c565b6001600160a01b039093165f908152600660209081526040808320868452825280832085905593825260079052919091209190915550565b6001600160a01b0382166115b357604051633250574960e11b81525f6004820152602401610583565b5f6115bf83835f610b1c565b90506001600160a01b038116156106a6576040516339e3563760e11b81525f6004820152602401610583565b6115f683838361164f565b6106a6576001600160a01b03831661162457604051637e27328960e01b815260048101829052602401610583565b60405163177e802f60e01b81526001600160a01b038316600482015260248101829052604401610583565b5f6001600160a01b03831615801590610b305750826001600160a01b0316846001600160a01b0316148061168857506116888484610a86565b80610b305750505f908152600460205260409020546001600160a01b03908116911614919050565b6001600160e01b0319811681146106dd575f80fd5b5f602082840312156116d5575f80fd5b8135610a5b816116b0565b5f5b838110156116fa5781810151838201526020016116e2565b50505f910152565b5f81518084526117198160208601602086016116e0565b601f01601f19169290920160200192915050565b602081525f610a5b6020830184611702565b5f6020828403121561174f575f80fd5b5035919050565b80356001600160a01b038116811461176c575f80fd5b919050565b5f8060408385031215611782575f80fd5b61178b83611756565b946020939093013593505050565b5f805f606084860312156117ab575f80fd5b6117b484611756565b92506117c260208501611756565b9150604084013590509250925092565b5f80604083850312156117e3575f80fd5b823591506117f360208401611756565b90509250929050565b5f6020828403121561180c575f80fd5b610a5b82611756565b5f8060408385031215611826575f80fd5b61182f83611756565b915060208301358015158114611843575f80fd5b809150509250929050565b634e487b7160e01b5f52604160045260245ffd5b5f805f8060808587031215611875575f80fd5b61187e85611756565b935061188c60208601611756565b925060408501359150606085013567ffffffffffffffff808211156118af575f80fd5b818701915087601f8301126118c2575f80fd5b8135818111156118d4576118d461184e565b604051601f8201601f19908116603f011681019083821181831017156118fc576118fc61184e565b816040528281528a6020848701011115611914575f80fd5b826020860160208301375f60208483010152809550505050505092959194509250565b5f8060408385031215611948575f80fd5b61195183611756565b91506117f360208401611756565b600181811c9082168061197357607f821691505b60208210810361199157634e487b7160e01b5f52602260045260245ffd5b50919050565b634e487b7160e01b5f52601160045260245ffd5b5f600182016119bc576119bc611997565b5060010190565b634e487b7160e01b5f52603260045260245ffd5b5f83516119e88184602088016116e0565b8351908301906119fc8183602088016116e0565b01949350505050565b6001600160a01b03858116825284166020820152604081018390526080606082018190525f90611a3790830184611702565b9695505050505050565b5f60208284031215611a51575f80fd5b8151610a5b816116b0565b8181038181111561049357610493611997565b634e487b7160e01b5f52603160045260245ffdfea2646970667358221220de087ec06b23bccfaca12fffc8946992c72c2436017372e7f343723007783e3164736f6c63430008180033","linkReferences":{}},"methodIdentifiers":{"DEFAULT_ADMIN_ROLE()":"a217fddf","MINTER_ROLE()":"d5391393","PAUSER_ROLE()":"e63ab1e9","approve(address,uint256)":"095ea7b3","balanceOf(address)":"70a08231","burn(uint256)":"42966c68","certificates(uint256)":"663b3e22","getApproved(uint256)":"081812fc","getRoleAdmin(bytes32)":"248a9ca3","grantRole(bytes32,address)":"2f2ff15d","hasRole(bytes32,address)":"91d14854","isApprovedForAll(address,address)":"e985e9c5","mint(address,uint256)":"40c10f19","name()":"06fdde03","ownerOf(uint256)":"6352211e","pause()":"8456cb59","paused()":"5c975abb","renounceRole(bytes32,address)":"36568abe","revokeRole(bytes32,address)":"d547741f","safeTransferFrom(address,address,uint256)":"42842e0e","safeTransferFrom(address,address,uint256,bytes)":"b88d4fde","setApprovalForAll(address,bool)":"a22cb465","supportsInterface(bytes4)":"01ffc9a7","symbol()":"95d89b41","tokenByIndex(uint256)":"4f6ccce7","tokenOfOwnerByIndex(address,uint256)":"2f745c59","tokenURI(uint256)":"c87b56dd","totalSupply()":"18160ddd","transferFrom(address,address,uint256)":"23b872dd","unpause()":"3f4ba83a"},"id":63}