{"abi":[{"type":"constructor","inputs":[{"name":"admin","type":"address","internalType":"address"}],"stateMutability":"nonpayable"},{"type":"function","name":"DEFAULT_ADMIN_ROLE","inputs":[],"outputs":[{"name":"","type":"bytes32","internalType":"bytes32"}],"stateMutability":"view"},{"type":"function","name":"ISSUER_ROLE","inputs":[],"outputs":[{"name":"","type":"bytes32","internalType":"bytes32"}],"stateMutability":"view"},{"type":"function","name":"PAUSER_ROLE","inputs":[],"outputs":[{"name":"","type":"bytes32","internalType":"bytes32"}],"stateMutability":"view"},{"type":"function","name":"allowance","inputs":[{"name":"owner","type":"address","internalType":"address"},{"name":"spender","type":"address","internalType":"address"}],"outputs":[{"name":"","type":"uint256","internalType":"uint256"}],"stateMutability":"view"},{"type":"function","name":"approve","inputs":[{"name":"spender","type":"address","internalType":"address"},{"name":"value","type":"uint256","internalType":"uint256"}],"outputs":[{"name":"","type":"bool","internalType":"bool"}],"stateMutability":"nonpayable"},{"type":"function","name":"balanceOf","inputs":[{"name":"account","type":"address","internalType":"address"}],"outputs":[{"name":"","type":"uint256","internalType":"uint256"}],"stateMutability":"view"},{"type":"function","name":"burn","inputs":[{"name":"from","type":"address","internalType":"address"},{"name":"amount","type":"uint256","internalType":"uint256"}],"outputs":[],"stateMutability":"nonpayable"},{"type":"function","name":"decimals","inputs":[],"outputs":[{"name":"","type":"uint8","internalType":"uint8"}],"stateMutability":"view"},{"type":"function","name":"getRoleAdmin","inputs":[{"name":"role","type":"bytes32","internalType":"bytes32"}],"outputs":[{"name":"","type":"bytes32","internalType":"bytes32"}],"stateMutability":"view"},{"type":"function","name":"grantRole","inputs":[{"name":"role","type":"bytes32","internalType":"bytes32"},{"name":"account","type":"address","internalType":"address"}],"outputs":[],"stateMutability":"nonpayable"},{"type":"function","name":"hasRole","inputs":[{"name":"role","type":"bytes32","internalType":"bytes32"},{"name":"account","type":"address","internalType":"address"}],"outputs":[{"name":"","type":"bool","internalType":"bool"}],"stateMutability":"view"},{"type":"function","name":"mint","inputs":[{"name":"to","type":"address","internalType":"address"},{"name":"amount","type":"uint256","internalType":"uint256"}],"outputs":[],"stateMutability":"nonpayable"},{"type":"function","name":"name","inputs":[],"outputs":[{"name":"","type":"string","internalType":"string"}],"stateMutability":"view"},{"type":"function","name":"pause","inputs":[],"outputs":[],"stateMutability":"nonpayable"},{"type":"function","name":"paused","inputs":[],"outputs":[{"name":"","type":"bool","internalType":"bool"}],"stateMutability":"view"},{"type":"function","name":"renounceRole","inputs":[{"name":"role","type":"bytes32","internalType":"bytes32"},{"name":"callerConfirmation","type":"address","internalType":"address"}],"outputs":[],"stateMutability":"nonpayable"},{"type":"function","name":"revokeRole","inputs":[{"name":"role","type":"bytes32","internalType":"bytes32"},{"name":"account","type":"address","internalType":"address"}],"outputs":[],"stateMutability":"nonpayable"},{"type":"function","name":"supportsInterface","inputs":[{"name":"interfaceId","type":"bytes4","internalType":"bytes4"}],"outputs":[{"name":"","type":"bool","internalType":"bool"}],"stateMutability":"view"},{"type":"function","name":"symbol","inputs":[],"outputs":[{"name":"","type":"string","internalType":"string"}],"stateMutability":"view"},{"type":"function","name":"totalSupply","inputs":[],"outputs":[{"name":"","type":"uint256","internalType":"uint256"}],"stateMutability":"view"},{"type":"function","name":"transfer","inputs":[{"name":"to","type":"address","internalType":"address"},{"name":"value","type":"uint256","internalType":"uint256"}],"outputs":[{"name":"","type":"bool","internalType":"bool"}],"stateMutability":"nonpayable"},{"type":"function","name":"transferFrom","inputs":[{"name":"from","type":"address","internalType":"address"},{"name":"to","type":"address","internalType":"address"},{"name":"value","type":"uint256","internalType":"uint256"}],"outputs":[{"name":"","type":"bool","internalType":"bool"}],"stateMutability":"nonpayable"},{"type":"function","name":"unpause","inputs":[],"outputs":[],"stateMutability":"nonpayable"},{"type":"event","name":"Approval","inputs":[{"name":"owner","type":"address","indexed":true,"internalType":"address"},{"name":"spender","type":"address","indexed":true,"internalType":"address"},{"name":"value","type":"uint256","indexed":false,"internalType":"uint256"}],"anonymous":false},{"type":"event","name":"Paused","inputs":[{"name":"account","type":"address","indexed":false,"internalType":"address"}],"anonymous":false},{"type":"event","name":"RoleAdminChanged","inputs":[{"name":"role","type":"bytes32","indexed":true,"internalType":"bytes32"},{"name":"previousAdminRole","type":"bytes32","indexed":true,"internalType":"bytes32"},{"name":"newAdminRole","type":"bytes32","indexed":true,"internalType":"bytes32"}],"anonymous":false},{"type":"event","name":"RoleGranted","inputs":[{"name":"role","type":"bytes32","indexed":true,"internalType":"bytes32"},{"name":"account","type":"address","indexed":true,"internalType":"address"},{"name":"sender","type":"address","indexed":true,"internalType":"address"}],"anonymous":false},{"type":"event","name":"RoleRevoked","inputs":[{"name":"role","type":"bytes32","indexed":true,"internalType":"bytes32"},{"name":"account","type":"address","indexed":true,"internalType":"address"},{"name":"sender","type":"address","indexed":true,"internalType":"address"}],"anonymous":false},{"type":"event","name":"TokensBurned","inputs":[{"name":"from","type":"address","indexed":true,"internalType":"address"},{"name":"amount","type":"uint256","indexed":false,"internalType":"uint256"}],"anonymous":false},{"type":"event","name":"TokensMinted","inputs":[{"name":"to","type":"address","indexed":true,"internalType":"address"},{"name":"amount","type":"uint256","indexed":false,"internalType":"uint256"}],"anonymous":false},{"type":"event","name":"Transfer","inputs":[{"name":"from","type":"address","indexed":true,"internalType":"address"},{"name":"to","type":"address","indexed":true,"internalType":"address"},{"name":"value","type":"uint256","indexed":false,"internalType":"uint256"}],"anonymous":false},{"type":"event","name":"Unpaused","inputs":[{"name":"account","type":"address","indexed":false,"internalType":"address"}],"anonymous":false},{"type":"error","name":"AccessControlBadConfirmation","inputs":[]},{"type":"error","name":"AccessControlUnauthorizedAccount","inputs":[{"name":"account","type":"address","internalType":"address"},{"name":"neededRole","type":"bytes32","internalType":"bytes32"}]},{"type":"error","name":"ERC20InsufficientAllowance","inputs":[{"name":"spender","type":"address","internalType":"address"},{"name":"allowance","type":"uint256","internalType":"uint256"},{"name":"needed","type":"uint256","internalType":"uint256"}]},{"type":"error","name":"ERC20InsufficientBalance","inputs":[{"name":"sender","type":"address","internalType":"address"},{"name":"balance","type":"uint256","internalType":"uint256"},{"name":"needed","type":"uint256","internalType":"uint256"}]},{"type":"error","name":"ERC20InvalidApprover","inputs":[{"name":"approver","type":"address","internalType":"address"}]},{"type":"error","name":"ERC20InvalidReceiver","inputs":[{"name":"receiver","type":"address","internalType":"address"}]},{"type":"error","name":"ERC20InvalidSender","inputs":[{"name":"sender","type":"address","internalType":"address"}]},{"type":"error","name":"ERC20InvalidSpender","inputs":[{"name":"spender","type":"address","internalType":"address"}]},{"type":"error","name":"EnforcedPause","inputs":[]},{"type":"error","name":"ExpectedPause","inputs":[]},{"type":"error","name":"ZeroAddress","inputs":[]},{"type":"error","name":"ZeroAmount","inputs":[]}],"bytecode":{"object":"0x608060405234801562000010575f80fd5b50604051620011d0380380620011d08339810160408190526200003391620001b4565b6040518060400160405280600f81526020016e23b7b6322b30bab63a102a37b5b2b760891b8152506040518060400160405280600481526020016311d3d31160e21b815250816003908162000089919062000281565b50600462000098828262000281565b5050506001600160a01b038116620000c35760405163d92e233d60e01b815260040160405180910390fd5b620000cf5f8262000104565b50620000fc7f65d7a28e3265b37a6474929f336521b332c1681b933f6cb9f3376673440d862a8262000104565b50506200034d565b5f8281526005602090815260408083206001600160a01b038516845290915281205460ff16620001ab575f8381526005602090815260408083206001600160a01b03861684529091529020805460ff19166001179055620001623390565b6001600160a01b0316826001600160a01b0316847f2f8788117e7eff1d82e926ec794901d17c78024a50270940304540a733656f0d60405160405180910390a4506001620001ae565b505f5b92915050565b5f60208284031215620001c5575f80fd5b81516001600160a01b0381168114620001dc575f80fd5b9392505050565b634e487b7160e01b5f52604160045260245ffd5b600181811c908216806200020c57607f821691505b6020821081036200022b57634e487b7160e01b5f52602260045260245ffd5b50919050565b601f8211156200027c57805f5260205f20601f840160051c81016020851015620002585750805b601f840160051c820191505b8181101562000279575f815560010162000264565b50505b505050565b81516001600160401b038111156200029d576200029d620001e3565b620002b581620002ae8454620001f7565b8462000231565b602080601f831160018114620002eb575f8415620002d35750858301515b5f19600386901b1c1916600185901b17855562000345565b5f85815260208120601f198616915b828110156200031b57888601518255948401946001909101908401620002fa565b50858210156200033957878501515f19600388901b60f8161c191681555b505060018460011b0185555b505050505050565b610e75806200035b5f395ff3fe608060405234801561000f575f80fd5b5060043610610148575f3560e01c80635c975abb116100bf5780639dc29fac116100795780639dc29fac146102b2578063a217fddf146102c5578063a9059cbb146102cc578063d547741f146102df578063dd62ed3e146102f2578063e63ab1e91461032a575f80fd5b80635c975abb1461023557806370a082311461024057806382aefa24146102685780638456cb591461028f57806391d148541461029757806395d89b41146102aa575f80fd5b8063248a9ca311610110578063248a9ca3146101c15780632f2ff15d146101e3578063313ce567146101f857806336568abe146102075780633f4ba83a1461021a57806340c10f1914610222575f80fd5b806301ffc9a71461014c57806306fdde0314610174578063095ea7b31461018957806318160ddd1461019c57806323b872dd146101ae575b5f80fd5b61015f61015a366004610c70565b610351565b60405190151581526020015b60405180910390f35b61017c610387565b60405161016b9190610c9e565b61015f610197366004610d05565b610417565b6002545b60405190815260200161016b565b61015f6101bc366004610d2d565b61042e565b6101a06101cf366004610d66565b5f9081526005602052604090206001015490565b6101f66101f1366004610d7d565b610451565b005b6040516012815260200161016b565b6101f6610215366004610d7d565b61047b565b6101f66104b3565b6101f6610230366004610d05565b6104e8565b60065460ff1661015f565b6101a061024e366004610da7565b6001600160a01b03165f9081526020819052604090205490565b6101a07f114e74f6ea3bd819998f78687bfcb11b140da08e9b7d222fa9c1f1ba1f2aa12281565b6101f66105ab565b61015f6102a5366004610d7d565b6105dd565b61017c610607565b6101f66102c0366004610d05565b610616565b6101a05f81565b61015f6102da366004610d05565b6106cc565b6101f66102ed366004610d7d565b6106d9565b6101a0610300366004610dc0565b6001600160a01b039182165f90815260016020908152604080832093909416825291909152205490565b6101a07f65d7a28e3265b37a6474929f336521b332c1681b933f6cb9f3376673440d862a81565b5f6001600160e01b03198216637965db0b60e01b148061038157506301ffc9a760e01b6001600160e01b03198316145b92915050565b60606003805461039690610de8565b80601f01602080910402602001604051908101604052809291908181526020018280546103c290610de8565b801561040d5780601f106103e45761010080835404028352916020019161040d565b820191905f5260205f20905b8154815290600101906020018083116103f057829003601f168201915b5050505050905090565b5f336104248185856106fd565b5060019392505050565b5f3361043b85828561070a565b610446858585610785565b506001949350505050565b5f8281526005602052604090206001015461046b816107e2565b61047583836107ec565b50505050565b6001600160a01b03811633146104a45760405163334bd91960e11b815260040160405180910390fd5b6104ae828261087d565b505050565b7f65d7a28e3265b37a6474929f336521b332c1681b933f6cb9f3376673440d862a6104dd816107e2565b6104e56108e8565b50565b7f114e74f6ea3bd819998f78687bfcb11b140da08e9b7d222fa9c1f1ba1f2aa122610512816107e2565b6001600160a01b0383166105395760405163d92e233d60e01b815260040160405180910390fd5b815f0361055957604051631f2a200560e01b815260040160405180910390fd5b610563838361093a565b826001600160a01b03167f3f2c9d57c068687834f0de942a9babb9e5acab57d516d3480a3c16ee165a42738360405161059e91815260200190565b60405180910390a2505050565b7f65d7a28e3265b37a6474929f336521b332c1681b933f6cb9f3376673440d862a6105d5816107e2565b6104e5610972565b5f9182526005602090815260408084206001600160a01b0393909316845291905290205460ff1690565b60606004805461039690610de8565b7f114e74f6ea3bd819998f78687bfcb11b140da08e9b7d222fa9c1f1ba1f2aa122610640816107e2565b6001600160a01b0383166106675760405163d92e233d60e01b815260040160405180910390fd5b815f0361068757604051631f2a200560e01b815260040160405180910390fd5b61069183836109af565b826001600160a01b03167ffd38818f5291bf0bb3a2a48aadc06ba8757865d1dabd804585338aab3009dcb68360405161059e91815260200190565b5f33610424818585610785565b5f828152600560205260409020600101546106f3816107e2565b610475838361087d565b6104ae83838360016109e3565b6001600160a01b038381165f908152600160209081526040808320938616835292905220545f19811015610475578181101561077757604051637dc7a0d960e11b81526001600160a01b038416600482015260248101829052604481018390526064015b60405180910390fd5b61047584848484035f6109e3565b6001600160a01b0383166107ae57604051634b637e8f60e11b81525f600482015260240161076e565b6001600160a01b0382166107d75760405163ec442f0560e01b81525f600482015260240161076e565b6104ae838383610ab5565b6104e58133610ac8565b5f6107f783836105dd565b610876575f8381526005602090815260408083206001600160a01b03861684529091529020805460ff1916600117905561082e3390565b6001600160a01b0316826001600160a01b0316847f2f8788117e7eff1d82e926ec794901d17c78024a50270940304540a733656f0d60405160405180910390a4506001610381565b505f610381565b5f61088883836105dd565b15610876575f8381526005602090815260408083206001600160a01b0386168085529252808320805460ff1916905551339286917ff6391f5c32d9c69d2a47ea670b442974b53935d1edc7fd64eb21e047a839171b9190a4506001610381565b6108f0610b01565b6006805460ff191690557f5db9ee0a495bf2e6ff9c91a7834c1ba4fdd244a5e8aa4e537bd38aeae4b073aa335b6040516001600160a01b03909116815260200160405180910390a1565b6001600160a01b0382166109635760405163ec442f0560e01b81525f600482015260240161076e565b61096e5f8383610ab5565b5050565b61097a610b26565b6006805460ff191660011790557f62e78cea01bee320cd4e420270b5ea74000d11b0c9f74754ebdbfc544b05a25861091d3390565b6001600160a01b0382166109d857604051634b637e8f60e11b81525f600482015260240161076e565b61096e825f83610ab5565b6001600160a01b038416610a0c5760405163e602df0560e01b81525f600482015260240161076e565b6001600160a01b038316610a3557604051634a1406b160e11b81525f600482015260240161076e565b6001600160a01b038085165f908152600160209081526040808320938716835292905220829055801561047557826001600160a01b0316846001600160a01b03167f8c5be1e5ebec7d5bd14f71427d1e84f3dd0314c0f7b2291e5b200ac8c7c3b92584604051610aa791815260200190565b60405180910390a350505050565b610abd610b26565b6104ae838383610b4a565b610ad282826105dd565b61096e5760405163e2517d3f60e01b81526001600160a01b03821660048201526024810183905260440161076e565b60065460ff16610b2457604051638dfc202b60e01b815260040160405180910390fd5b565b60065460ff1615610b245760405163d93c066560e01b815260040160405180910390fd5b6001600160a01b038316610b74578060025f828254610b699190610e20565b90915550610be49050565b6001600160a01b0383165f9081526020819052604090205481811015610bc65760405163391434e360e21b81526001600160a01b0385166004820152602481018290526044810183905260640161076e565b6001600160a01b0384165f9081526020819052604090209082900390555b6001600160a01b038216610c0057600280548290039055610c1e565b6001600160a01b0382165f9081526020819052604090208054820190555b816001600160a01b0316836001600160a01b03167fddf252ad1be2c89b69c2b068fc378daa952ba7f163c4a11628f55a4df523b3ef83604051610c6391815260200190565b60405180910390a3505050565b5f60208284031215610c80575f80fd5b81356001600160e01b031981168114610c97575f80fd5b9392505050565b5f602080835283518060208501525f5b81811015610cca57858101830151858201604001528201610cae565b505f604082860101526040601f19601f8301168501019250505092915050565b80356001600160a01b0381168114610d00575f80fd5b919050565b5f8060408385031215610d16575f80fd5b610d1f83610cea565b946020939093013593505050565b5f805f60608486031215610d3f575f80fd5b610d4884610cea565b9250610d5660208501610cea565b9150604084013590509250925092565b5f60208284031215610d76575f80fd5b5035919050565b5f8060408385031215610d8e575f80fd5b82359150610d9e60208401610cea565b90509250929050565b5f60208284031215610db7575f80fd5b610c9782610cea565b5f8060408385031215610dd1575f80fd5b610dda83610cea565b9150610d9e60208401610cea565b600181811c90821680610dfc57607f821691505b602082108103610e1a57634e487b7160e01b5f52602260045260245ffd5b50919050565b8082018082111561038157634e487b7160e01b5f52601160045260245ffdfea26469706673582212203fcabcdd74893b7e01b9b21de61cc3891b1ed583fee5e3d974a74230ca2ebead64736f6c63430008180033","linkReferences":{}},"methodIdentifiers":{"DEFAULT_ADMIN_ROLE()":"a217fddf","ISSUER_ROLE()":"82aefa24","PAUSER_ROLE()":"e63ab1e9","allowance(address,address)":"dd62ed3e","approve(address,uint256)":"095ea7b3","balanceOf(address)":"70a08231","burn(address,uint256)":"9dc29fac","decimals()":"313ce567","getRoleAdmin(bytes32)":"248a9ca3","grantRole(bytes32,address)":"2f2ff15d","hasRole(bytes32,address)":"91d14854","mint(address,uint256)":"40c10f19","name()":"06fdde03","pause()":"8456cb59","paused()":"5c975abb","renounceRole(bytes32,address)":"36568abe","revokeRole(bytes32,address)":"d547741f","supportsInterface(bytes4)":"01ffc9a7","symbol()":"95d89b41","totalSupply()":"18160ddd","transfer(address,uint256)":"a9059cbb","transferFrom(address,address,uint256)":"23b872dd","unpause()":"3f4ba83a"},"id":65}