{"abi":[{"type":"function","name":"CAP_MANAGER_ROLE","inputs":[],"outputs":[{"name":"","type":"bytes32","internalType":"bytes32"}],"stateMutability":"view"},{"type":"function","name":"DEFAULT_ADMIN_ROLE","inputs":[],"outputs":[{"name":"","type":"bytes32","internalType":"bytes32"}],"stateMutability":"view"},{"type":"function","name":"PAUSER_ROLE","inputs":[],"outputs":[{"name":"","type":"bytes32","internalType":"bytes32"}],"stateMutability":"view"},{"type":"function","name":"UPGRADER_ROLE","inputs":[],"outputs":[{"name":"","type":"bytes32","internalType":"bytes32"}],"stateMutability":"view"},{"type":"function","name":"UPGRADE_INTERFACE_VERSION","inputs":[],"outputs":[{"name":"","type":"string","internalType":"string"}],"stateMutability":"view"},{"type":"function","name":"allowance","inputs":[{"name":"owner","type":"address","internalType":"address"},{"name":"spender","type":"address","internalType":"address"}],"outputs":[{"name":"","type":"uint256","internalType":"uint256"}],"stateMutability":"view"},{"type":"function","name":"approve","inputs":[{"name":"spender","type":"address","internalType":"address"},{"name":"value","type":"uint256","internalType":"uint256"}],"outputs":[{"name":"","type":"bool","internalType":"bool"}],"stateMutability":"nonpayable"},{"type":"function","name":"asset","inputs":[],"outputs":[{"name":"","type":"address","internalType":"address"}],"stateMutability":"view"},{"type":"function","name":"balanceOf","inputs":[{"name":"account","type":"address","internalType":"address"}],"outputs":[{"name":"","type":"uint256","internalType":"uint256"}],"stateMutability":"view"},{"type":"function","name":"convertToAssets","inputs":[{"name":"shares","type":"uint256","internalType":"uint256"}],"outputs":[{"name":"","type":"uint256","internalType":"uint256"}],"stateMutability":"view"},{"type":"function","name":"convertToShares","inputs":[{"name":"assets","type":"uint256","internalType":"uint256"}],"outputs":[{"name":"","type":"uint256","internalType":"uint256"}],"stateMutability":"view"},{"type":"function","name":"decimals","inputs":[],"outputs":[{"name":"","type":"uint8","internalType":"uint8"}],"stateMutability":"view"},{"type":"function","name":"deposit","inputs":[{"name":"assets","type":"uint256","internalType":"uint256"},{"name":"receiver","type":"address","internalType":"address"}],"outputs":[{"name":"","type":"uint256","internalType":"uint256"}],"stateMutability":"nonpayable"},{"type":"function","name":"getRoleAdmin","inputs":[{"name":"role","type":"bytes32","internalType":"bytes32"}],"outputs":[{"name":"","type":"bytes32","internalType":"bytes32"}],"stateMutability":"view"},{"type":"function","name":"grantRole","inputs":[{"name":"role","type":"bytes32","internalType":"bytes32"},{"name":"account","type":"address","internalType":"address"}],"outputs":[],"stateMutability":"nonpayable"},{"type":"function","name":"hasRole","inputs":[{"name":"role","type":"bytes32","internalType":"bytes32"},{"name":"account","type":"address","internalType":"address"}],"outputs":[{"name":"","type":"bool","internalType":"bool"}],"stateMutability":"view"},{"type":"function","name":"initialize","inputs":[{"name":"asset_","type":"address","internalType":"address"},{"name":"admin","type":"address","internalType":"address"}],"outputs":[],"stateMutability":"nonpayable"},{"type":"function","name":"initializeV2","inputs":[{"name":"_vaultDepositCap","type":"uint256","internalType":"uint256"},{"name":"_perUserDepositCap","type":"uint256","internalType":"uint256"},{"name":"capManager","type":"address","internalType":"address"}],"outputs":[],"stateMutability":"nonpayable"},{"type":"function","name":"maxDeposit","inputs":[{"name":"user","type":"address","internalType":"address"}],"outputs":[{"name":"","type":"uint256","internalType":"uint256"}],"stateMutability":"view"},{"type":"function","name":"maxMint","inputs":[{"name":"user","type":"address","internalType":"address"}],"outputs":[{"name":"","type":"uint256","internalType":"uint256"}],"stateMutability":"view"},{"type":"function","name":"maxRedeem","inputs":[{"name":"owner","type":"address","internalType":"address"}],"outputs":[{"name":"","type":"uint256","internalType":"uint256"}],"stateMutability":"view"},{"type":"function","name":"maxWithdraw","inputs":[{"name":"owner","type":"address","internalType":"address"}],"outputs":[{"name":"","type":"uint256","internalType":"uint256"}],"stateMutability":"view"},{"type":"function","name":"mint","inputs":[{"name":"shares","type":"uint256","internalType":"uint256"},{"name":"receiver","type":"address","internalType":"address"}],"outputs":[{"name":"","type":"uint256","internalType":"uint256"}],"stateMutability":"nonpayable"},{"type":"function","name":"name","inputs":[],"outputs":[{"name":"","type":"string","internalType":"string"}],"stateMutability":"view"},{"type":"function","name":"pause","inputs":[],"outputs":[],"stateMutability":"nonpayable"},{"type":"function","name":"paused","inputs":[],"outputs":[{"name":"","type":"bool","internalType":"bool"}],"stateMutability":"view"},{"type":"function","name":"perUserDepositCap","inputs":[],"outputs":[{"name":"","type":"uint256","internalType":"uint256"}],"stateMutability":"view"},{"type":"function","name":"previewDeposit","inputs":[{"name":"assets","type":"uint256","internalType":"uint256"}],"outputs":[{"name":"","type":"uint256","internalType":"uint256"}],"stateMutability":"view"},{"type":"function","name":"previewMint","inputs":[{"name":"shares","type":"uint256","internalType":"uint256"}],"outputs":[{"name":"","type":"uint256","internalType":"uint256"}],"stateMutability":"view"},{"type":"function","name":"previewRedeem","inputs":[{"name":"shares","type":"uint256","internalType":"uint256"}],"outputs":[{"name":"","type":"uint256","internalType":"uint256"}],"stateMutability":"view"},{"type":"function","name":"previewWithdraw","inputs":[{"name":"assets","type":"uint256","internalType":"uint256"}],"outputs":[{"name":"","type":"uint256","internalType":"uint256"}],"stateMutability":"view"},{"type":"function","name":"proxiableUUID","inputs":[],"outputs":[{"name":"","type":"bytes32","internalType":"bytes32"}],"stateMutability":"view"},{"type":"function","name":"redeem","inputs":[{"name":"shares","type":"uint256","internalType":"uint256"},{"name":"receiver","type":"address","internalType":"address"},{"name":"owner","type":"address","internalType":"address"}],"outputs":[{"name":"","type":"uint256","internalType":"uint256"}],"stateMutability":"nonpayable"},{"type":"function","name":"renounceRole","inputs":[{"name":"role","type":"bytes32","internalType":"bytes32"},{"name":"callerConfirmation","type":"address","internalType":"address"}],"outputs":[],"stateMutability":"nonpayable"},{"type":"function","name":"revokeRole","inputs":[{"name":"role","type":"bytes32","internalType":"bytes32"},{"name":"account","type":"address","internalType":"address"}],"outputs":[],"stateMutability":"nonpayable"},{"type":"function","name":"setPerUserDepositCap","inputs":[{"name":"_cap","type":"uint256","internalType":"uint256"}],"outputs":[],"stateMutability":"nonpayable"},{"type":"function","name":"setVaultDepositCap","inputs":[{"name":"_cap","type":"uint256","internalType":"uint256"}],"outputs":[],"stateMutability":"nonpayable"},{"type":"function","name":"supportsInterface","inputs":[{"name":"interfaceId","type":"bytes4","internalType":"bytes4"}],"outputs":[{"name":"","type":"bool","internalType":"bool"}],"stateMutability":"view"},{"type":"function","name":"symbol","inputs":[],"outputs":[{"name":"","type":"string","internalType":"string"}],"stateMutability":"view"},{"type":"function","name":"totalAssets","inputs":[],"outputs":[{"name":"","type":"uint256","internalType":"uint256"}],"stateMutability":"view"},{"type":"function","name":"totalSupply","inputs":[],"outputs":[{"name":"","type":"uint256","internalType":"uint256"}],"stateMutability":"view"},{"type":"function","name":"transfer","inputs":[{"name":"to","type":"address","internalType":"address"},{"name":"value","type":"uint256","internalType":"uint256"}],"outputs":[{"name":"","type":"bool","internalType":"bool"}],"stateMutability":"nonpayable"},{"type":"function","name":"transferFrom","inputs":[{"name":"from","type":"address","internalType":"address"},{"name":"to","type":"address","internalType":"address"},{"name":"value","type":"uint256","internalType":"uint256"}],"outputs":[{"name":"","type":"bool","internalType":"bool"}],"stateMutability":"nonpayable"},{"type":"function","name":"unpause","inputs":[],"outputs":[],"stateMutability":"nonpayable"},{"type":"function","name":"upgradeToAndCall","inputs":[{"name":"newImplementation","type":"address","internalType":"address"},{"name":"data","type":"bytes","internalType":"bytes"}],"outputs":[],"stateMutability":"payable"},{"type":"function","name":"userTotalDeposited","inputs":[{"name":"","type":"address","internalType":"address"}],"outputs":[{"name":"","type":"uint256","internalType":"uint256"}],"stateMutability":"view"},{"type":"function","name":"vaultDepositCap","inputs":[],"outputs":[{"name":"","type":"uint256","internalType":"uint256"}],"stateMutability":"view"},{"type":"function","name":"version","inputs":[],"outputs":[{"name":"","type":"string","internalType":"string"}],"stateMutability":"pure"},{"type":"function","name":"withdraw","inputs":[{"name":"assets","type":"uint256","internalType":"uint256"},{"name":"receiver","type":"address","internalType":"address"},{"name":"owner","type":"address","internalType":"address"}],"outputs":[{"name":"","type":"uint256","internalType":"uint256"}],"stateMutability":"nonpayable"},{"type":"event","name":"Approval","inputs":[{"name":"owner","type":"address","indexed":true,"internalType":"address"},{"name":"spender","type":"address","indexed":true,"internalType":"address"},{"name":"value","type":"uint256","indexed":false,"internalType":"uint256"}],"anonymous":false},{"type":"event","name":"Deposit","inputs":[{"name":"sender","type":"address","indexed":true,"internalType":"address"},{"name":"owner","type":"address","indexed":true,"internalType":"address"},{"name":"assets","type":"uint256","indexed":false,"internalType":"uint256"},{"name":"shares","type":"uint256","indexed":false,"internalType":"uint256"}],"anonymous":false},{"type":"event","name":"Initialized","inputs":[{"name":"version","type":"uint64","indexed":false,"internalType":"uint64"}],"anonymous":false},{"type":"event","name":"Paused","inputs":[{"name":"account","type":"address","indexed":false,"internalType":"address"}],"anonymous":false},{"type":"event","name":"PerUserDepositCapUpdated","inputs":[{"name":"newCap","type":"uint256","indexed":false,"internalType":"uint256"}],"anonymous":false},{"type":"event","name":"RoleAdminChanged","inputs":[{"name":"role","type":"bytes32","indexed":true,"internalType":"bytes32"},{"name":"previousAdminRole","type":"bytes32","indexed":true,"internalType":"bytes32"},{"name":"newAdminRole","type":"bytes32","indexed":true,"internalType":"bytes32"}],"anonymous":false},{"type":"event","name":"RoleGranted","inputs":[{"name":"role","type":"bytes32","indexed":true,"internalType":"bytes32"},{"name":"account","type":"address","indexed":true,"internalType":"address"},{"name":"sender","type":"address","indexed":true,"internalType":"address"}],"anonymous":false},{"type":"event","name":"RoleRevoked","inputs":[{"name":"role","type":"bytes32","indexed":true,"internalType":"bytes32"},{"name":"account","type":"address","indexed":true,"internalType":"address"},{"name":"sender","type":"address","indexed":true,"internalType":"address"}],"anonymous":false},{"type":"event","name":"Transfer","inputs":[{"name":"from","type":"address","indexed":true,"internalType":"address"},{"name":"to","type":"address","indexed":true,"internalType":"address"},{"name":"value","type":"uint256","indexed":false,"internalType":"uint256"}],"anonymous":false},{"type":"event","name":"Unpaused","inputs":[{"name":"account","type":"address","indexed":false,"internalType":"address"}],"anonymous":false},{"type":"event","name":"Upgraded","inputs":[{"name":"implementation","type":"address","indexed":true,"internalType":"address"}],"anonymous":false},{"type":"event","name":"VaultDepositCapUpdated","inputs":[{"name":"newCap","type":"uint256","indexed":false,"internalType":"uint256"}],"anonymous":false},{"type":"event","name":"VaultInitialized","inputs":[{"name":"asset","type":"address","indexed":true,"internalType":"address"},{"name":"admin","type":"address","indexed":true,"internalType":"address"}],"anonymous":false},{"type":"event","name":"Withdraw","inputs":[{"name":"sender","type":"address","indexed":true,"internalType":"address"},{"name":"receiver","type":"address","indexed":true,"internalType":"address"},{"name":"owner","type":"address","indexed":true,"internalType":"address"},{"name":"assets","type":"uint256","indexed":false,"internalType":"uint256"},{"name":"shares","type":"uint256","indexed":false,"internalType":"uint256"}],"anonymous":false},{"type":"error","name":"AccessControlBadConfirmation","inputs":[]},{"type":"error","name":"AccessControlUnauthorizedAccount","inputs":[{"name":"account","type":"address","internalType":"address"},{"name":"neededRole","type":"bytes32","internalType":"bytes32"}]},{"type":"error","name":"AddressEmptyCode","inputs":[{"name":"target","type":"address","internalType":"address"}]},{"type":"error","name":"DepositCapExceeded","inputs":[]},{"type":"error","name":"ERC1967InvalidImplementation","inputs":[{"name":"implementation","type":"address","internalType":"address"}]},{"type":"error","name":"ERC1967NonPayable","inputs":[]},{"type":"error","name":"ERC20InsufficientAllowance","inputs":[{"name":"spender","type":"address","internalType":"address"},{"name":"allowance","type":"uint256","internalType":"uint256"},{"name":"needed","type":"uint256","internalType":"uint256"}]},{"type":"error","name":"ERC20InsufficientBalance","inputs":[{"name":"sender","type":"address","internalType":"address"},{"name":"balance","type":"uint256","internalType":"uint256"},{"name":"needed","type":"uint256","internalType":"uint256"}]},{"type":"error","name":"ERC20InvalidApprover","inputs":[{"name":"approver","type":"address","internalType":"address"}]},{"type":"error","name":"ERC20InvalidReceiver","inputs":[{"name":"receiver","type":"address","internalType":"address"}]},{"type":"error","name":"ERC20InvalidSender","inputs":[{"name":"sender","type":"address","internalType":"address"}]},{"type":"error","name":"ERC20InvalidSpender","inputs":[{"name":"spender","type":"address","internalType":"address"}]},{"type":"error","name":"ERC4626ExceededMaxDeposit","inputs":[{"name":"receiver","type":"address","internalType":"address"},{"name":"assets","type":"uint256","internalType":"uint256"},{"name":"max","type":"uint256","internalType":"uint256"}]},{"type":"error","name":"ERC4626ExceededMaxMint","inputs":[{"name":"receiver","type":"address","internalType":"address"},{"name":"shares","type":"uint256","internalType":"uint256"},{"name":"max","type":"uint256","internalType":"uint256"}]},{"type":"error","name":"ERC4626ExceededMaxRedeem","inputs":[{"name":"owner","type":"address","internalType":"address"},{"name":"shares","type":"uint256","internalType":"uint256"},{"name":"max","type":"uint256","internalType":"uint256"}]},{"type":"error","name":"ERC4626ExceededMaxWithdraw","inputs":[{"name":"owner","type":"address","internalType":"address"},{"name":"assets","type":"uint256","internalType":"uint256"},{"name":"max","type":"uint256","internalType":"uint256"}]},{"type":"error","name":"EnforcedPause","inputs":[]},{"type":"error","name":"ExpectedPause","inputs":[]},{"type":"error","name":"FailedCall","inputs":[]},{"type":"error","name":"FeeTooHigh","inputs":[]},{"type":"error","name":"InvalidInitialization","inputs":[]},{"type":"error","name":"NotInitializing","inputs":[]},{"type":"error","name":"ReentrancyGuardReentrantCall","inputs":[]},{"type":"error","name":"SafeERC20FailedOperation","inputs":[{"name":"token","type":"address","internalType":"address"}]},{"type":"error","name":"UUPSUnauthorizedCallContext","inputs":[]},{"type":"error","name":"UUPSUnsupportedProxiableUUID","inputs":[{"name":"slot","type":"bytes32","internalType":"bytes32"}]},{"type":"error","name":"UserDepositCapExceeded","inputs":[]},{"type":"error","name":"ZeroAddress","inputs":[]}],"bytecode":{"object":"0x60a06040523060805234801562000014575f80fd5b506200001f62000025565b620000d9565b7ff0c57e16840df040f15088dc2f81fe391c3923bec73e23a9662efc9c229c6a00805468010000000000000000900460ff1615620000765760405163f92ee8a960e01b815260040160405180910390fd5b80546001600160401b0390811614620000d65780546001600160401b0319166001600160401b0390811782556040519081527fc7f505b2f371ae2175ee4913f4499e1f2633a7b5936321eed1cdaeb6115181d29060200160405180910390a15b50565b608051612b70620001005f395f8181611595015281816115be015261171f0152612b705ff3fe6080604052600436106102a5575f3560e01c806370a082311161016f578063b4020f6a116100d8578063d547741f11610092578063e63ab1e91161006d578063e63ab1e914610815578063ed76177414610835578063ef8b30f71461077a578063f72c0d8b14610854575f80fd5b8063d547741f146107b8578063d905777e146107d7578063dd62ed3e146107f6575f80fd5b8063b4020f6a14610708578063b460af941461071d578063ba0876521461073c578063c63d75b61461075b578063c6e6f5921461077a578063ce96cb7714610799575f80fd5b806395d89b411161012957806395d89b4114610648578063a217fddf1461065c578063a9059cbb1461066f578063aa80e8a21461068e578063ad3cb1cc146106b9578063b3d7f6b9146106e9575f80fd5b806370a08231146105a25780638456cb59146105c15780638c6c2785146105d55780638e141c75146105ea57806391d148541461060a57806394bf804d14610629575f80fd5b8063313ce567116102115780634cdad506116101cb5780634cdad506146103415780634f1ef2861461051057806352d1902d1461052357806354fd4d50146105375780635c975abb146105605780636e553f6514610583575f80fd5b8063313ce5671461044d57806336568abe1461047357806338d52e0f146104925780633f4ba83a146104be578063402d267d146104d2578063485cc955146104f1575f80fd5b80630a28a477116102625780630a28a4771461037f57806318160ddd1461039e5780631f51bf0c146103d157806323b872dd146103f0578063248a9ca31461040f5780632f2ff15d1461042e575f80fd5b806301e1d114146102a957806301ffc9a7146102d057806304fd703e146102ff57806306fdde031461032057806307a2d13a14610341578063095ea7b314610360575b5f80fd5b3480156102b4575f80fd5b506102bd610887565b6040519081526020015b60405180910390f35b3480156102db575f80fd5b506102ef6102ea36600461248e565b6108fd565b60405190151581526020016102c7565b34801561030a575f80fd5b5061031e6103193660046124b5565b610933565b005b34801561032b575f80fd5b50610334610987565b6040516102c791906124ee565b34801561034c575f80fd5b506102bd61035b3660046124b5565b610a47565b34801561036b575f80fd5b506102ef61037a36600461253b565b610a52565b34801561038a575f80fd5b506102bd6103993660046124b5565b610a69565b3480156103a9575f80fd5b507f52c63247e1f47db19d5ce0460030c497f067ca4cebf71ba98eeadabe20bace02546102bd565b3480156103dc575f80fd5b5061031e6103eb366004612563565b610a75565b3480156103fb575f80fd5b506102ef61040a366004612595565b610b80565b34801561041a575f80fd5b506102bd6104293660046124b5565b610ba5565b348015610439575f80fd5b5061031e6104483660046125ce565b610bc5565b348015610458575f80fd5b50610461610be7565b60405160ff90911681526020016102c7565b34801561047e575f80fd5b5061031e61048d3660046125ce565b610c29565b34801561049d575f80fd5b506104a6610c61565b6040516001600160a01b0390911681526020016102c7565b3480156104c9575f80fd5b5061031e610c8f565b3480156104dd575f80fd5b506102bd6104ec3660046125f8565b610cb1565b3480156104fc575f80fd5b5061031e61050b366004612611565b610d77565b61031e61051e36600461264d565b610faa565b34801561052e575f80fd5b506102bd610fc9565b348015610542575f80fd5b506040805180820190915260018152601960f91b6020820152610334565b34801561056b575f80fd5b505f80516020612afb8339815191525460ff166102ef565b34801561058e575f80fd5b506102bd61059d3660046125ce565b610fe4565b3480156105ad575f80fd5b506102bd6105bc3660046125f8565b611017565b3480156105cc575f80fd5b5061031e61103d565b3480156105e0575f80fd5b506102bd60335481565b3480156105f5575f80fd5b506102bd5f80516020612a7b83398151915281565b348015610615575f80fd5b506102ef6106243660046125ce565b61105c565b348015610634575f80fd5b506102bd6106433660046125ce565b611092565b348015610653575f80fd5b506103346110ad565b348015610667575f80fd5b506102bd5f81565b34801561067a575f80fd5b506102ef61068936600461253b565b6110eb565b348015610699575f80fd5b506102bd6106a83660046125f8565b60346020525f908152604090205481565b3480156106c4575f80fd5b50610334604051806040016040528060058152602001640352e302e360dc1b81525081565b3480156106f4575f80fd5b506102bd6107033660046124b5565b6110f8565b348015610713575f80fd5b506102bd60325481565b348015610728575f80fd5b506102bd610737366004612709565b611104565b348015610747575f80fd5b506102bd610756366004612709565b611138565b348015610766575f80fd5b506102bd6107753660046125f8565b611154565b348015610785575f80fd5b506102bd6107943660046124b5565b611166565b3480156107a4575f80fd5b506102bd6107b33660046125f8565b611171565b3480156107c3575f80fd5b5061031e6107d23660046125ce565b611184565b3480156107e2575f80fd5b506102bd6107f13660046125f8565b6111a0565b348015610801575f80fd5b506102bd610810366004612611565b6111aa565b348015610820575f80fd5b506102bd5f80516020612abb83398151915281565b348015610840575f80fd5b5061031e61084f3660046124b5565b6111f3565b34801561085f575f80fd5b506102bd7f189ab7a9244df0848122154315af71fe140f3db0fe014031783b0946b8c9d2e381565b5f610890610c61565b6040516370a0823160e01b81523060048201526001600160a01b0391909116906370a0823190602401602060405180830381865afa1580156108d4573d5f803e3d5ffd5b505050506040513d601f19601f820116820180604052508101906108f89190612739565b905090565b5f6001600160e01b03198216637965db0b60e01b148061092d57506301ffc9a760e01b6001600160e01b03198316145b92915050565b5f80516020612a7b83398151915261094a8161123f565b60338290556040518281527f613c68bfa2dbc2aa99847e2e933309357a5fbdcb19cc38cbbab5f9151f99c903906020015b60405180910390a15050565b7f52c63247e1f47db19d5ce0460030c497f067ca4cebf71ba98eeadabe20bace0380546060915f80516020612a5b833981519152916109c590612750565b80601f01602080910402602001604051908101604052809291908181526020018280546109f190612750565b8015610a3c5780601f10610a1357610100808354040283529160200191610a3c565b820191905f5260205f20905b815481529060010190602001808311610a1f57829003601f168201915b505050505091505090565b5f61092d825f611249565b5f33610a5f8185856112a0565b5060019392505050565b5f61092d8260016112ad565b60025f610a806112fb565b8054909150600160401b900460ff1680610aa85750805467ffffffffffffffff808416911610155b15610ac65760405163f92ee8a960e01b815260040160405180910390fd5b805468ffffffffffffffffff191667ffffffffffffffff831617600160401b1781556001600160a01b038316610b0f5760405163d92e233d60e01b815260040160405180910390fd5b60328590556033849055610b305f80516020612a7b83398151915284611323565b50805460ff60401b1916815560405167ffffffffffffffff831681527fc7f505b2f371ae2175ee4913f4499e1f2633a7b5936321eed1cdaeb6115181d29060200160405180910390a15050505050565b5f33610b8d8582856113c4565b610b98858585611418565b60019150505b9392505050565b5f9081525f80516020612adb833981519152602052604090206001015490565b610bce82610ba5565b610bd78161123f565b610be18383611323565b50505050565b5f807f0773e532dfede91f04b12a73d3d2acd361424f41f76b4fb79f090161e36b4e0090505f8154610c239190600160a01b900460ff1661279c565b91505090565b6001600160a01b0381163314610c525760405163334bd91960e11b815260040160405180910390fd5b610c5c8282611475565b505050565b7f0773e532dfede91f04b12a73d3d2acd361424f41f76b4fb79f090161e36b4e00546001600160a01b031690565b5f80516020612abb833981519152610ca68161123f565b610cae6114ee565b50565b6032546033545f9190828215610cec57610cc9610887565b8311610cd5575f610cef565b610cdd610887565b610ce790846127b5565b610cef565b5f195b90505f8215610d43576001600160a01b0386165f908152603460205260409020548311610d1c575f610d46565b6001600160a01b0386165f90815260346020526040902054610d3e90846127b5565b610d46565b5f195b90505f195f828410610d585782610d5a565b835b9050818110610d695781610d6b565b805b98975050505050505050565b5f610d806112fb565b805490915060ff600160401b820416159067ffffffffffffffff165f81158015610da75750825b90505f8267ffffffffffffffff166001148015610dc35750303b155b905081158015610dd1575080155b15610def5760405163f92ee8a960e01b815260040160405180910390fd5b845467ffffffffffffffff191660011785558315610e1957845460ff60401b1916600160401b1785555b6001600160a01b0387161580610e3657506001600160a01b038616155b15610e545760405163d92e233d60e01b815260040160405180910390fd5b610ea46040518060400160405280600f81526020016e476f6c645661756c7420536861726560881b815250604051806040016040528060078152602001666776534841524560c81b81525061154d565b610ead8761155f565b610eb5611570565b610ebd611570565b610ec561157a565b610ecd611570565b610ed75f87611323565b50610eef5f80516020612abb83398151915287611323565b50610f1a7f189ab7a9244df0848122154315af71fe140f3db0fe014031783b0946b8c9d2e387611323565b50856001600160a01b0316876001600160a01b03167f3a72e8ae02f203cb5415fd3bfacaad88fa2923e8b6210e8c033253cea65b605b60405160405180910390a38315610fa157845460ff60401b19168555604051600181527fc7f505b2f371ae2175ee4913f4499e1f2633a7b5936321eed1cdaeb6115181d29060200160405180910390a15b50505050505050565b610fb261158a565b610fbb8261162e565b610fc58282611658565b5050565b5f610fd2611714565b505f80516020612a9b83398151915290565b5f610fed61175d565b610ff5611794565b610fff83836117c4565b905061092d60015f80516020612b1b83398151915255565b6001600160a01b03165f9081525f80516020612a5b833981519152602052604090205490565b5f80516020612abb8339815191526110548161123f565b610cae61182b565b5f9182525f80516020612adb833981519152602090815260408084206001600160a01b0393909316845291905290205460ff1690565b5f61109b61175d565b6110a3611794565b610fff8383611873565b7f52c63247e1f47db19d5ce0460030c497f067ca4cebf71ba98eeadabe20bace0480546060915f80516020612a5b833981519152916109c590612750565b5f33610a5f818585611418565b5f61092d826001611249565b5f61110d61175d565b611115611794565b6111208484846118bf565b9050610b9e60015f80516020612b1b83398151915255565b5f61114161175d565b611149611794565b611120848484611915565b5f8061115f83610cb1565b9050610b9e815b5f61092d825f6112ad565b5f61092d61117e83611017565b5f611249565b61118d82610ba5565b6111968161123f565b610be18383611475565b5f61092d82611017565b6001600160a01b039182165f9081527f52c63247e1f47db19d5ce0460030c497f067ca4cebf71ba98eeadabe20bace016020908152604080832093909416825291909152205490565b5f80516020612a7b83398151915261120a8161123f565b60328290556040518281527f69a7a94824f32c88cb1b294c188db8edfde43afbda4eb491974a691064b2450b9060200161097b565b610cae8133611962565b5f610b9e611255610887565b6112609060016127c8565b61126b5f600a6128bb565b7f52c63247e1f47db19d5ce0460030c497f067ca4cebf71ba98eeadabe20bace025461129791906127c8565b8591908561199b565b610c5c83838360016119dd565b5f610b9e6112bc82600a6128bb565b7f52c63247e1f47db19d5ce0460030c497f067ca4cebf71ba98eeadabe20bace02546112e891906127c8565b6112f0610887565b6112979060016127c8565b5f807ff0c57e16840df040f15088dc2f81fe391c3923bec73e23a9662efc9c229c6a0061092d565b5f5f80516020612adb83398151915261133c848461105c565b6113bb575f848152602082815260408083206001600160a01b03871684529091529020805460ff191660011790556113713390565b6001600160a01b0316836001600160a01b0316857f2f8788117e7eff1d82e926ec794901d17c78024a50270940304540a733656f0d60405160405180910390a4600191505061092d565b5f91505061092d565b5f6113cf84846111aa565b90505f19811015610be1578181101561140a57828183604051637dc7a0d960e11b8152600401611401939291906128c9565b60405180910390fd5b610be184848484035f6119dd565b6001600160a01b03831661144157604051634b637e8f60e11b81525f6004820152602401611401565b6001600160a01b03821661146a5760405163ec442f0560e01b81525f6004820152602401611401565b610c5c838383611ac1565b5f5f80516020612adb83398151915261148e848461105c565b156113bb575f848152602082815260408083206001600160a01b0387168085529252808320805460ff1916905551339287917ff6391f5c32d9c69d2a47ea670b442974b53935d1edc7fd64eb21e047a839171b9190a4600191505061092d565b6114f6611ad4565b5f80516020612afb833981519152805460ff191681557f5db9ee0a495bf2e6ff9c91a7834c1ba4fdd244a5e8aa4e537bd38aeae4b073aa335b6040516001600160a01b03909116815260200160405180910390a150565b611555611b03565b610fc58282611b28565b611567611b03565b610cae81611b78565b611578611b03565b565b611582611b03565b611578611bfb565b306001600160a01b037f000000000000000000000000000000000000000000000000000000000000000016148061161057507f00000000000000000000000000000000000000000000000000000000000000006001600160a01b03166116045f80516020612a9b833981519152546001600160a01b031690565b6001600160a01b031614155b156115785760405163703e46dd60e11b815260040160405180910390fd5b7f189ab7a9244df0848122154315af71fe140f3db0fe014031783b0946b8c9d2e3610fc58161123f565b816001600160a01b03166352d1902d6040518163ffffffff1660e01b8152600401602060405180830381865afa9250505080156116b2575060408051601f3d908101601f191682019092526116af91810190612739565b60015b6116da57604051634c9c8ce360e01b81526001600160a01b0383166004820152602401611401565b5f80516020612a9b833981519152811461170a57604051632a87526960e21b815260048101829052602401611401565b610c5c8383611c03565b306001600160a01b037f000000000000000000000000000000000000000000000000000000000000000016146115785760405163703e46dd60e11b815260040160405180910390fd5b5f80516020612b1b83398151915280546001190161178e57604051633ee5aeb560e01b815260040160405180910390fd5b60029055565b5f80516020612afb8339815191525460ff16156115785760405163d93c066560e01b815260040160405180910390fd5b5f806117cf83610cb1565b9050808411156117f857828482604051633c8097d960e11b8152600401611401939291906128c9565b5f61180285611166565b905061181033858784611c58565b949350505050565b60015f80516020612b1b83398151915255565b611833611794565b5f80516020612afb833981519152805460ff191660011781557f62e78cea01bee320cd4e420270b5ea74000d11b0c9f74754ebdbfc544b05a2583361152f565b5f8061187e83611154565b9050808411156118a75782848260405163284ff66760e01b8152600401611401939291906128c9565b5f6118b1856110f8565b905061181033858388611c58565b5f806118ca83611171565b9050808511156118f357828582604051633fa733bb60e21b8152600401611401939291906128c9565b5f6118fd86610a69565b905061190c3386868985611d2c565b95945050505050565b5f80611920836111a0565b90508085111561194957828582604051632e52afbb60e21b8152600401611401939291906128c9565b5f61195386610a47565b905061190c338686848a611d2c565b61196c828261105c565b610fc55760405163e2517d3f60e01b81526001600160a01b038216600482015260248101839052604401611401565b5f6119c86119a883611d82565b80156119c357505f84806119be576119be6128ea565b868809115b151590565b6119d3868686611dae565b61190c91906127c8565b5f80516020612a5b8339815191526001600160a01b038516611a145760405163e602df0560e01b81525f6004820152602401611401565b6001600160a01b038416611a3d57604051634a1406b160e11b81525f6004820152602401611401565b6001600160a01b038086165f90815260018301602090815260408083209388168352929052208390558115611aba57836001600160a01b0316856001600160a01b03167f8c5be1e5ebec7d5bd14f71427d1e84f3dd0314c0f7b2291e5b200ac8c7c3b92585604051611ab191815260200190565b60405180910390a35b5050505050565b611ac9611794565b610c5c838383611e5e565b5f80516020612afb8339815191525460ff1661157857604051638dfc202b60e01b815260040160405180910390fd5b611b0b611f84565b61157857604051631afcd79f60e31b815260040160405180910390fd5b611b30611b03565b5f80516020612a5b8339815191527f52c63247e1f47db19d5ce0460030c497f067ca4cebf71ba98eeadabe20bace03611b698482612942565b5060048101610be18382612942565b611b80611b03565b7f0773e532dfede91f04b12a73d3d2acd361424f41f76b4fb79f090161e36b4e005f80611bac84611f9d565b9150915081611bbc576012611bbe565b805b83546001600160a81b031916600160a01b60ff92909216919091026001600160a01b031916176001600160a01b0394909416939093179091555050565b611818611b03565b611c0c82612073565b6040516001600160a01b038316907fbc7cd75a20ee27fd9adebab32041f755214dbc6bffa90cc0225b39da2e5c2d3b905f90a2805115611c5057610c5c82826120d6565b610fc561213f565b6032546033548115801590611c7e57508184611c72610887565b611c7c91906127c8565b115b15611c9c576040516324d758c360e21b815260040160405180910390fd5b8015801590611ccd57506001600160a01b0385165f908152603460205260409020548190611ccb9086906127c8565b115b15611ceb5760405163662648b160e01b815260040160405180910390fd5b6001600160a01b0385165f9081526034602052604081208054869290611d129084906127c8565b90915550611d2490508686868661215e565b505050505050565b6001600160a01b0383165f9081526034602052604090205480831015611d5b57611d5683826127b5565b611d5d565b5f5b6001600160a01b0385165f90815260346020526040902055611d2486868686866121c9565b5f6002826003811115611d9757611d976129fe565b611da19190612a12565b60ff166001149050919050565b5f805f611dbb8686612270565b91509150815f03611ddf57838181611dd557611dd56128ea565b0492505050610b9e565b818411611df657611df6600385150260111861228c565b5f848688095f868103871696879004966002600389028118808a02820302808a02820302808a02820302808a02820302808a02820302808a02909103029181900381900460010185841190960395909502919093039390930492909217029150509392505050565b5f80516020612a5b8339815191526001600160a01b038416611e985781816002015f828254611e8d91906127c8565b90915550611ef59050565b6001600160a01b0384165f9081526020829052604090205482811015611ed75784818460405163391434e360e21b8152600401611401939291906128c9565b6001600160a01b0385165f9081526020839052604090209083900390555b6001600160a01b038316611f13576002810180548390039055611f31565b6001600160a01b0383165f9081526020829052604090208054830190555b826001600160a01b0316846001600160a01b03167fddf252ad1be2c89b69c2b068fc378daa952ba7f163c4a11628f55a4df523b3ef84604051611f7691815260200190565b60405180910390a350505050565b5f611f8d6112fb565b54600160401b900460ff16919050565b60408051600481526024810182526020810180516001600160e01b031663313ce56760e01b17905290515f918291829182916001600160a01b03871691611fe391612a3f565b5f60405180830381855afa9150503d805f811461201b576040519150601f19603f3d011682016040523d82523d5f602084013e612020565b606091505b509150915081801561203457506020815110155b15612067575f8180602001905181019061204e9190612739565b905060ff8111612065576001969095509350505050565b505b505f9485945092505050565b806001600160a01b03163b5f036120a857604051634c9c8ce360e01b81526001600160a01b0382166004820152602401611401565b5f80516020612a9b83398151915280546001600160a01b0319166001600160a01b0392909216919091179055565b60605f80846001600160a01b0316846040516120f29190612a3f565b5f60405180830381855af49150503d805f811461212a576040519150601f19603f3d011682016040523d82523d5f602084013e61212f565b606091505b509150915061190c85838361229d565b34156115785760405163b398979f60e01b815260040160405180910390fd5b612171612169610c61565b8530856122f9565b61217b8382612360565b826001600160a01b0316846001600160a01b03167fdcbc1c05240f31ff3ad067ef1ee35ce4997762752e3a095284754544f4c709d78484604051611f76929190918252602082015260400190565b826001600160a01b0316856001600160a01b0316146121ed576121ed8386836113c4565b6121f78382612394565b612209612202610c61565b85846123c8565b826001600160a01b0316846001600160a01b0316866001600160a01b03167ffbde797d201c681b91056529119e0b02407c7bb96a4a2c75c01fc9667232c8db8585604051612261929190918252602082015260400190565b60405180910390a45050505050565b5f805f1983850993909202808410938190039390930393915050565b634e487b715f52806020526024601cfd5b6060826122b2576122ad826123f9565b610b9e565b81511580156122c957506001600160a01b0384163b155b156122f257604051639996b31560e01b81526001600160a01b0385166004820152602401611401565b5080610b9e565b6040516001600160a01b038481166024830152838116604483015260648201839052610be19186918216906323b872dd906084015b604051602081830303815290604052915060e01b6020820180516001600160e01b038381831617835250505050612422565b6001600160a01b0382166123895760405163ec442f0560e01b81525f6004820152602401611401565b610fc55f8383611ac1565b6001600160a01b0382166123bd57604051634b637e8f60e11b81525f6004820152602401611401565b610fc5825f83611ac1565b6040516001600160a01b03838116602483015260448201839052610c5c91859182169063a9059cbb9060640161232e565b8051156124095780518082602001fd5b60405163d6bda27560e01b815260040160405180910390fd5b5f8060205f8451602086015f885af180612441576040513d5f823e3d81fd5b50505f513d91508115612458578060011415612465565b6001600160a01b0384163b155b15610be157604051635274afe760e01b81526001600160a01b0385166004820152602401611401565b5f6020828403121561249e575f80fd5b81356001600160e01b031981168114610b9e575f80fd5b5f602082840312156124c5575f80fd5b5035919050565b5f5b838110156124e65781810151838201526020016124ce565b50505f910152565b602081525f825180602084015261250c8160408501602087016124cc565b601f01601f19169190910160400192915050565b80356001600160a01b0381168114612536575f80fd5b919050565b5f806040838503121561254c575f80fd5b61255583612520565b946020939093013593505050565b5f805f60608486031215612575575f80fd5b833592506020840135915061258c60408501612520565b90509250925092565b5f805f606084860312156125a7575f80fd5b6125b084612520565b92506125be60208501612520565b9150604084013590509250925092565b5f80604083850312156125df575f80fd5b823591506125ef60208401612520565b90509250929050565b5f60208284031215612608575f80fd5b610b9e82612520565b5f8060408385031215612622575f80fd5b61262b83612520565b91506125ef60208401612520565b634e487b7160e01b5f52604160045260245ffd5b5f806040838503121561265e575f80fd5b61266783612520565b9150602083013567ffffffffffffffff80821115612683575f80fd5b818501915085601f830112612696575f80fd5b8135818111156126a8576126a8612639565b604051601f8201601f19908116603f011681019083821181831017156126d0576126d0612639565b816040528281528860208487010111156126e8575f80fd5b826020860160208301375f6020848301015280955050505050509250929050565b5f805f6060848603121561271b575f80fd5b8335925061272b60208501612520565b915061258c60408501612520565b5f60208284031215612749575f80fd5b5051919050565b600181811c9082168061276457607f821691505b60208210810361278257634e487b7160e01b5f52602260045260245ffd5b50919050565b634e487b7160e01b5f52601160045260245ffd5b60ff818116838216019081111561092d5761092d612788565b8181038181111561092d5761092d612788565b8082018082111561092d5761092d612788565b600181815b8085111561281557815f19048211156127fb576127fb612788565b8085161561280857918102915b93841c93908002906127e0565b509250929050565b5f8261282b5750600161092d565b8161283757505f61092d565b816001811461284d576002811461285757612873565b600191505061092d565b60ff84111561286857612868612788565b50506001821b61092d565b5060208310610133831016604e8410600b8410161715612896575081810a61092d565b6128a083836127db565b805f19048211156128b3576128b3612788565b029392505050565b5f610b9e60ff84168361281d565b6001600160a01b039390931683526020830191909152604082015260600190565b634e487b7160e01b5f52601260045260245ffd5b601f821115610c5c57805f5260205f20601f840160051c810160208510156129235750805b601f840160051c820191505b81811015611aba575f815560010161292f565b815167ffffffffffffffff81111561295c5761295c612639565b6129708161296a8454612750565b846128fe565b602080601f8311600181146129a3575f841561298c5750858301515b5f19600386901b1c1916600185901b178555611d24565b5f85815260208120601f198616915b828110156129d1578886015182559484019460019091019084016129b2565b50858210156129ee57878501515f19600388901b60f8161c191681555b5050505050600190811b01905550565b634e487b7160e01b5f52602160045260245ffd5b5f60ff831680612a3057634e487b7160e01b5f52601260045260245ffd5b8060ff84160691505092915050565b5f8251612a508184602087016124cc565b919091019291505056fe52c63247e1f47db19d5ce0460030c497f067ca4cebf71ba98eeadabe20bace00027f9f680a0c6704fd9796b55c67fe885252243966ecb05a88f3e7873c845d9a360894a13ba1a3210667c828492db98dca3e2076cc3735a920a3ca505d382bbc65d7a28e3265b37a6474929f336521b332c1681b933f6cb9f3376673440d862a02dd7bc7dec4dceedda775e58dd541e08a116c6c53815c0bd028192f7b626800cd5ed15c6e187e77e9aee88184c21f4f2182ab5827cb3b7e07fbedcd63f033009b779b17422d0df92223018b32b4d1fa46e071723d6817e2486d003becc55f00a26469706673582212206f070fac3732d7dcea2c88d2a7d96bcabdd817e162a891edbea7acfab44cd7e664736f6c63430008180033","linkReferences":{}},"methodIdentifiers":{"CAP_MANAGER_ROLE()":"8e141c75","DEFAULT_ADMIN_ROLE()":"a217fddf","PAUSER_ROLE()":"e63ab1e9","UPGRADER_ROLE()":"f72c0d8b","UPGRADE_INTERFACE_VERSION()":"ad3cb1cc","allowance(address,address)":"dd62ed3e","approve(address,uint256)":"095ea7b3","asset()":"38d52e0f","balanceOf(address)":"70a08231","convertToAssets(uint256)":"07a2d13a","convertToShares(uint256)":"c6e6f592","decimals()":"313ce567","deposit(uint256,address)":"6e553f65","getRoleAdmin(bytes32)":"248a9ca3","grantRole(bytes32,address)":"2f2ff15d","hasRole(bytes32,address)":"91d14854","initialize(address,address)":"485cc955","initializeV2(uint256,uint256,address)":"1f51bf0c","maxDeposit(address)":"402d267d","maxMint(address)":"c63d75b6","maxRedeem(address)":"d905777e","maxWithdraw(address)":"ce96cb77","mint(uint256,address)":"94bf804d","name()":"06fdde03","pause()":"8456cb59","paused()":"5c975abb","perUserDepositCap()":"8c6c2785","previewDeposit(uint256)":"ef8b30f7","previewMint(uint256)":"b3d7f6b9","previewRedeem(uint256)":"4cdad506","previewWithdraw(uint256)":"0a28a477","proxiableUUID()":"52d1902d","redeem(uint256,address,address)":"ba087652","renounceRole(bytes32,address)":"36568abe","revokeRole(bytes32,address)":"d547741f","setPerUserDepositCap(uint256)":"04fd703e","setVaultDepositCap(uint256)":"ed761774","supportsInterface(bytes4)":"01ffc9a7","symbol()":"95d89b41","totalAssets()":"01e1d114","totalSupply()":"18160ddd","transfer(address,uint256)":"a9059cbb","transferFrom(address,address,uint256)":"23b872dd","unpause()":"3f4ba83a","upgradeToAndCall(address,bytes)":"4f1ef286","userTotalDeposited(address)":"aa80e8a2","vaultDepositCap()":"b4020f6a","version()":"54fd4d50","withdraw(uint256,address,address)":"b460af94"},"id":66}