{"abi":[{"type":"constructor","inputs":[{"name":"admin","type":"address","internalType":"address"}],"stateMutability":"nonpayable"},{"type":"function","name":"DEFAULT_ADMIN_ROLE","inputs":[],"outputs":[{"name":"","type":"bytes32","internalType":"bytes32"}],"stateMutability":"view"},{"type":"function","name":"DEPLOYER_ROLE","inputs":[],"outputs":[{"name":"","type":"bytes32","internalType":"bytes32"}],"stateMutability":"view"},{"type":"function","name":"deployAMM","inputs":[{"name":"token0","type":"address","internalType":"address"},{"name":"token1","type":"address","internalType":"address"},{"name":"ammOwner","type":"address","internalType":"address"}],"outputs":[{"name":"amm","type":"address","internalType":"address"}],"stateMutability":"nonpayable"},{"type":"function","name":"deployGoldToken","inputs":[{"name":"admin","type":"address","internalType":"address"}],"outputs":[{"name":"token","type":"address","internalType":"address"}],"stateMutability":"nonpayable"},{"type":"function","name":"deployGoldTokenDeterministic","inputs":[{"name":"admin","type":"address","internalType":"address"},{"name":"salt","type":"bytes32","internalType":"bytes32"}],"outputs":[{"name":"token","type":"address","internalType":"address"}],"stateMutability":"nonpayable"},{"type":"function","name":"deployGovernanceToken","inputs":[{"name":"admin","type":"address","internalType":"address"}],"outputs":[{"name":"token","type":"address","internalType":"address"}],"stateMutability":"nonpayable"},{"type":"function","name":"deployGovernanceTokenDeterministic","inputs":[{"name":"admin","type":"address","internalType":"address"},{"name":"salt","type":"bytes32","internalType":"bytes32"}],"outputs":[{"name":"token","type":"address","internalType":"address"}],"stateMutability":"nonpayable"},{"type":"function","name":"deployNFT","inputs":[{"name":"admin","type":"address","internalType":"address"}],"outputs":[{"name":"nft","type":"address","internalType":"address"}],"stateMutability":"nonpayable"},{"type":"function","name":"deployNFTDeterministic","inputs":[{"name":"admin","type":"address","internalType":"address"},{"name":"salt","type":"bytes32","internalType":"bytes32"}],"outputs":[{"name":"nft","type":"address","internalType":"address"}],"stateMutability":"nonpayable"},{"type":"function","name":"deployVaultProxy","inputs":[{"name":"implementation","type":"address","internalType":"address"},{"name":"asset","type":"address","internalType":"address"},{"name":"admin","type":"address","internalType":"address"}],"outputs":[{"name":"proxy","type":"address","internalType":"address"}],"stateMutability":"nonpayable"},{"type":"function","name":"deployVaultProxyDeterministic","inputs":[{"name":"implementation","type":"address","internalType":"address"},{"name":"asset","type":"address","internalType":"address"},{"name":"admin","type":"address","internalType":"address"},{"name":"salt","type":"bytes32","internalType":"bytes32"}],"outputs":[{"name":"proxy","type":"address","internalType":"address"}],"stateMutability":"nonpayable"},{"type":"function","name":"deployedAMMs","inputs":[{"name":"","type":"uint256","internalType":"uint256"}],"outputs":[{"name":"","type":"address","internalType":"address"}],"stateMutability":"view"},{"type":"function","name":"deployedAMMsCount","inputs":[],"outputs":[{"name":"","type":"uint256","internalType":"uint256"}],"stateMutability":"view"},{"type":"function","name":"deployedNFTs","inputs":[{"name":"","type":"uint256","internalType":"uint256"}],"outputs":[{"name":"","type":"address","internalType":"address"}],"stateMutability":"view"},{"type":"function","name":"deployedNFTsCount","inputs":[],"outputs":[{"name":"","type":"uint256","internalType":"uint256"}],"stateMutability":"view"},{"type":"function","name":"deployedTokens","inputs":[{"name":"","type":"uint256","internalType":"uint256"}],"outputs":[{"name":"","type":"address","internalType":"address"}],"stateMutability":"view"},{"type":"function","name":"deployedTokensCount","inputs":[],"outputs":[{"name":"","type":"uint256","internalType":"uint256"}],"stateMutability":"view"},{"type":"function","name":"deployedVaults","inputs":[{"name":"","type":"uint256","internalType":"uint256"}],"outputs":[{"name":"","type":"address","internalType":"address"}],"stateMutability":"view"},{"type":"function","name":"deployedVaultsCount","inputs":[],"outputs":[{"name":"","type":"uint256","internalType":"uint256"}],"stateMutability":"view"},{"type":"function","name":"getRoleAdmin","inputs":[{"name":"role","type":"bytes32","internalType":"bytes32"}],"outputs":[{"name":"","type":"bytes32","internalType":"bytes32"}],"stateMutability":"view"},{"type":"function","name":"grantRole","inputs":[{"name":"role","type":"bytes32","internalType":"bytes32"},{"name":"account","type":"address","internalType":"address"}],"outputs":[],"stateMutability":"nonpayable"},{"type":"function","name":"hasRole","inputs":[{"name":"role","type":"bytes32","internalType":"bytes32"},{"name":"account","type":"address","internalType":"address"}],"outputs":[{"name":"","type":"bool","internalType":"bool"}],"stateMutability":"view"},{"type":"function","name":"predictGoldTokenAddress","inputs":[{"name":"admin","type":"address","internalType":"address"},{"name":"salt","type":"bytes32","internalType":"bytes32"}],"outputs":[{"name":"","type":"address","internalType":"address"}],"stateMutability":"view"},{"type":"function","name":"predictNFTAddress","inputs":[{"name":"admin","type":"address","internalType":"address"},{"name":"salt","type":"bytes32","internalType":"bytes32"}],"outputs":[{"name":"","type":"address","internalType":"address"}],"stateMutability":"view"},{"type":"function","name":"predictVaultProxyAddress","inputs":[{"name":"implementation","type":"address","internalType":"address"},{"name":"asset","type":"address","internalType":"address"},{"name":"admin","type":"address","internalType":"address"},{"name":"salt","type":"bytes32","internalType":"bytes32"}],"outputs":[{"name":"","type":"address","internalType":"address"}],"stateMutability":"view"},{"type":"function","name":"renounceRole","inputs":[{"name":"role","type":"bytes32","internalType":"bytes32"},{"name":"callerConfirmation","type":"address","internalType":"address"}],"outputs":[],"stateMutability":"nonpayable"},{"type":"function","name":"revokeRole","inputs":[{"name":"role","type":"bytes32","internalType":"bytes32"},{"name":"account","type":"address","internalType":"address"}],"outputs":[],"stateMutability":"nonpayable"},{"type":"function","name":"supportsInterface","inputs":[{"name":"interfaceId","type":"bytes4","internalType":"bytes4"}],"outputs":[{"name":"","type":"bool","internalType":"bool"}],"stateMutability":"view"},{"type":"event","name":"AMMDeployed","inputs":[{"name":"amm","type":"address","indexed":true,"internalType":"address"},{"name":"token0","type":"address","indexed":true,"internalType":"address"},{"name":"token1","type":"address","indexed":true,"internalType":"address"}],"anonymous":false},{"type":"event","name":"GoldTokenDeployed","inputs":[{"name":"token","type":"address","indexed":true,"internalType":"address"},{"name":"deterministic","type":"bool","indexed":false,"internalType":"bool"},{"name":"salt","type":"bytes32","indexed":false,"internalType":"bytes32"}],"anonymous":false},{"type":"event","name":"GovernanceTokenDeployed","inputs":[{"name":"token","type":"address","indexed":true,"internalType":"address"},{"name":"deterministic","type":"bool","indexed":false,"internalType":"bool"},{"name":"salt","type":"bytes32","indexed":false,"internalType":"bytes32"}],"anonymous":false},{"type":"event","name":"NFTDeployed","inputs":[{"name":"nft","type":"address","indexed":true,"internalType":"address"},{"name":"deterministic","type":"bool","indexed":false,"internalType":"bool"},{"name":"salt","type":"bytes32","indexed":false,"internalType":"bytes32"}],"anonymous":false},{"type":"event","name":"RoleAdminChanged","inputs":[{"name":"role","type":"bytes32","indexed":true,"internalType":"bytes32"},{"name":"previousAdminRole","type":"bytes32","indexed":true,"internalType":"bytes32"},{"name":"newAdminRole","type":"bytes32","indexed":true,"internalType":"bytes32"}],"anonymous":false},{"type":"event","name":"RoleGranted","inputs":[{"name":"role","type":"bytes32","indexed":true,"internalType":"bytes32"},{"name":"account","type":"address","indexed":true,"internalType":"address"},{"name":"sender","type":"address","indexed":true,"internalType":"address"}],"anonymous":false},{"type":"event","name":"RoleRevoked","inputs":[{"name":"role","type":"bytes32","indexed":true,"internalType":"bytes32"},{"name":"account","type":"address","indexed":true,"internalType":"address"},{"name":"sender","type":"address","indexed":true,"internalType":"address"}],"anonymous":false},{"type":"event","name":"VaultDeployed","inputs":[{"name":"proxy","type":"address","indexed":true,"internalType":"address"},{"name":"deterministic","type":"bool","indexed":false,"internalType":"bool"},{"name":"salt","type":"bytes32","indexed":false,"internalType":"bytes32"}],"anonymous":false},{"type":"error","name":"AccessControlBadConfirmation","inputs":[]},{"type":"error","name":"AccessControlUnauthorizedAccount","inputs":[{"name":"account","type":"address","internalType":"address"},{"name":"neededRole","type":"bytes32","internalType":"bytes32"}]},{"type":"error","name":"ZeroAddress","inputs":[]},{"type":"error","name":"ZeroImplementation","inputs":[]}],"bytecode":{"object":"0x608060405234801562000010575f80fd5b506040516200914238038062009142833981016040819052620000339162000148565b6001600160a01b0381166200005b5760405163d92e233d60e01b815260040160405180910390fd5b620000675f826200009c565b50620000947ffc425f2263d0df187444b70e47283d622c70181c5baebb1306a01edba1ce184c826200009c565b505062000177565b5f828152602081815260408083206001600160a01b038516845290915281205460ff166200013f575f838152602081815260408083206001600160a01b03861684529091529020805460ff19166001179055620000f63390565b6001600160a01b0316826001600160a01b0316847f2f8788117e7eff1d82e926ec794901d17c78024a50270940304540a733656f0d60405160405180910390a450600162000142565b505f5b92915050565b5f6020828403121562000159575f80fd5b81516001600160a01b038116811462000170575f80fd5b9392505050565b618fbd80620001855f395ff3fe608060405234801562000010575f80fd5b5060043610620001e0575f3560e01c806391d148541162000107578063d35006fe116200009f578063e7be5f971162000077578063e7be5f97146200042e578063ec81aadb1462000437578063ecd00261146200044e578063f69ae1be1462000464575f80fd5b8063d35006fe14620003e9578063d547741f1462000400578063e2112f0c1462000417575f80fd5b8063a5f8a09c11620000df578063a5f8a09c146200038d578063a8f139d314620003a4578063bcf1ff4d14620003bb578063cf768d0414620003d2575f80fd5b806391d1485414620003655780639a55e3cd146200037c578063a217fddf1462000385575f80fd5b80632f2ff15d116200017b5780633e6a527611620001535780633e6a52761462000317578063665e4b97146200032e578063666faae114620003455780636cb02d5c146200034e575f80fd5b80632f2ff15d14620002d05780632f3e067214620002e957806336568abe1462000300575f80fd5b806313df822311620001bb57806313df8223146200025757806319350f7d146200026e578063248a9ca3146200028557806325e7e92d14620002b9575f80fd5b806301ffc9a714620001e45780630324677f14620002105780630ac214df1462000240575b5f80fd5b620001fb620001f536600462001383565b6200046d565b60405190151581526020015b60405180910390f35b6200022762000221366004620013cf565b620004a4565b6040516001600160a01b03909116815260200162000207565b6200022762000251366004620013fa565b6200054f565b6200022762000268366004620013fa565b62000578565b620002276200027f36600462001412565b62000588565b620002aa62000296366004620013fa565b5f9081526020819052604090206001015490565b60405190815260200162000207565b62000227620002ca366004620013cf565b62000683565b620002e7620002e13660046200142e565b62000783565b005b62000227620002fa3660046200145b565b620007b1565b620002e7620003113660046200142e565b62000948565b620002276200032836600462001412565b62000983565b620002276200033f3660046200145b565b62000a75565b600354620002aa565b620002276200035f366004620013cf565b62000bb5565b620001fb620003763660046200142e565b62000cc0565b600454620002aa565b620002aa5f81565b620002276200039e366004620013cf565b62000ce8565b62000227620003b5366004620013fa565b62000dde565b62000227620003cc366004620014a2565b62000dee565b62000227620003e3366004620014a2565b62000f8d565b62000227620003fa36600462001412565b62001090565b620002e7620004113660046200142e565b62001195565b6200022762000428366004620013cf565b620011bd565b600254620002aa565b6200022762000448366004620013fa565b620011d8565b620002aa5f8051602062008f4883398151915281565b600154620002aa565b5f6001600160e01b03198216637965db0b60e01b14806200049e57506301ffc9a760e01b6001600160e01b03198316145b92915050565b5f8060ff60f81b308460405180602001620004bf906200133d565b601f1982820381018352601f9091011660408181526001600160a01b038a1660208301520160408051601f198184030181529082905262000504929160200162001515565b604051602081830303815290604052805190602001206040516020016200052f949392919062001547565b60408051808303601f190181529190528051602090910120949350505050565b600281815481106200055f575f80fd5b5f918252602090912001546001600160a01b0316905081565b600381815481106200055f575f80fd5b5f5f8051602062008f48833981519152620005a381620011e8565b6001600160a01b038316620005cb5760405163d92e233d60e01b815260040160405180910390fd5b82604051620005da906200134b565b6001600160a01b039091168152602001604051809103905ff08015801562000604573d5f803e3d5ffd5b506001805480820182555f9182525f8051602062008f688339815191520180546001600160a01b0319166001600160a01b038416908117909155604080518381526020810193909352929450917fe40c400a77e287fab0653e086cdd1181d4ae7762c5e7d14b76f5225353d489be91015b60405180910390a250919050565b5f5f8051602062008f488339815191526200069e81620011e8565b6001600160a01b038416620006c65760405163d92e233d60e01b815260040160405180910390fd5b8284604051620006d69062001359565b6001600160a01b0390911681526020018190604051809103905ff590508015801562000704573d5f803e3d5ffd5b506001805480820182555f8290525f8051602062008f688339815191520180546001600160a01b0319166001600160a01b0384169081179091556040805192835260208301879052929450917faef8219f292b8a2cd967f6e125c6e06d1178e8ffc70cdd33f93620e5908fa3a991015b60405180910390a25092915050565b5f828152602081905260409020600101546200079f81620011e8565b620007ab8383620011f7565b50505050565b5f5f8051602062008f48833981519152620007cc81620011e8565b6001600160a01b038516620007f457604051634208d2eb60e01b815260040160405180910390fd5b6001600160a01b03841615806200081257506001600160a01b038316155b15620008315760405163d92e233d60e01b815260040160405180910390fd5b6040516001600160a01b038086166024830152841660448201525f9060640160408051601f198184030181529181526020820180516001600160e01b031663485cc95560e01b17905251909150869082906200088d9062001367565b6200089a92919062001580565b604051809103905ff080158015620008b4573d5f803e3d5ffd5b50600280546001810182555f9182527f405787fa12a823e0f2b7631cc41b3ba8828b3321ca811111fa75cd3aa3bb5ace0180546001600160a01b0319166001600160a01b038416908117909155604080518381526020810193909352929550917f252148c8925d1e7165e271597770b325f2bdb2b8dca45dff6a2cb24c0aeba277910160405180910390a250509392505050565b6001600160a01b0381163314620009725760405163334bd91960e11b815260040160405180910390fd5b6200097e82826200128c565b505050565b5f5f8051602062008f488339815191526200099e81620011e8565b6001600160a01b038316620009c65760405163d92e233d60e01b815260040160405180910390fd5b82604051620009d59062001359565b6001600160a01b039091168152602001604051809103905ff080158015620009ff573d5f803e3d5ffd5b506001805480820182555f9182525f8051602062008f688339815191520180546001600160a01b0319166001600160a01b038416908117909155604080518381526020810193909352929450917faef8219f292b8a2cd967f6e125c6e06d1178e8ffc70cdd33f93620e5908fa3a9910162000675565b5f5f8051602062008f4883398151915262000a9081620011e8565b6001600160a01b038516158062000aae57506001600160a01b038416155b8062000ac157506001600160a01b038316155b1562000ae05760405163d92e233d60e01b815260040160405180910390fd5b84848460405162000af19062001375565b6001600160a01b03938416815291831660208301529091166040820152606001604051809103905ff08015801562000b2b573d5f803e3d5ffd5b50600480546001810182555f9182527f8a35acfbc15ff81a39ae7d344fd709f28e8600b4aa8c65c6b64bfe7fe36bd19b0180546001600160a01b0319166001600160a01b03848116918217909255604051939550878216939189169290917f21497e9db0fce5573816684096241dac2fd1c75ccfe8ea06eedd9d80e533be149190a4509392505050565b5f5f8051602062008f4883398151915262000bd081620011e8565b6001600160a01b03841662000bf85760405163d92e233d60e01b815260040160405180910390fd5b828460405162000c08906200133d565b6001600160a01b0390911681526020018190604051809103905ff590508015801562000c36573d5f803e3d5ffd5b5060038054600180820183555f929092527fc2575a0e9e593c00f959f8c92f12db2869c3395a3b0502d05e2516446f71f85b0180546001600160a01b0319166001600160a01b0384169081179091556040805192835260208301879052929450917fd61598fb1ce2887e52460be5a20dd97861cf42e2a14a95f5d78602bda857c5bf910162000774565b5f918252602082815260408084206001600160a01b0393909316845291905290205460ff1690565b5f5f8051602062008f4883398151915262000d0381620011e8565b6001600160a01b03841662000d2b5760405163d92e233d60e01b815260040160405180910390fd5b828460405162000d3b906200134b565b6001600160a01b0390911681526020018190604051809103905ff590508015801562000d69573d5f803e3d5ffd5b506001805480820182555f8290525f8051602062008f688339815191520180546001600160a01b0319166001600160a01b0384169081179091556040805192835260208301879052929450917fe40c400a77e287fab0653e086cdd1181d4ae7762c5e7d14b76f5225353d489be910162000774565b600481815481106200055f575f80fd5b5f5f8051602062008f4883398151915262000e0981620011e8565b6001600160a01b03861662000e3157604051634208d2eb60e01b815260040160405180910390fd5b6001600160a01b038516158062000e4f57506001600160a01b038416155b1562000e6e5760405163d92e233d60e01b815260040160405180910390fd5b6040516001600160a01b038087166024830152851660448201525f9060640160408051601f198184030181529181526020820180516001600160e01b031663485cc95560e01b1790525190915084908890839062000ecc9062001367565b62000ed992919062001580565b8190604051809103905ff590508015801562000ef7573d5f803e3d5ffd5b5060028054600180820183555f929092527f405787fa12a823e0f2b7631cc41b3ba8828b3321ca811111fa75cd3aa3bb5ace0180546001600160a01b0319166001600160a01b0384169081179091556040805192835260208301889052929550917f252148c8925d1e7165e271597770b325f2bdb2b8dca45dff6a2cb24c0aeba277910160405180910390a25050949350505050565b6040516001600160a01b038085166024830152831660448201525f90819060640160408051601f19818403018152918152602080830180516001600160e01b031663485cc95560e01b17905290519192505f916001600160f81b0319913091879162000ffb90820162001367565b601f1982820381018352601f90910116604081905262001022908c90889060200162001580565b60408051601f198184030181529082905262001042929160200162001515565b604051602081830303815290604052805190602001206040516020016200106d949392919062001547565b60408051808303601f190181529190528051602090910120979650505050505050565b5f5f8051602062008f48833981519152620010ab81620011e8565b6001600160a01b038316620010d35760405163d92e233d60e01b815260040160405180910390fd5b82604051620010e2906200133d565b6001600160a01b039091168152602001604051809103905ff0801580156200110c573d5f803e3d5ffd5b50600380546001810182555f9182527fc2575a0e9e593c00f959f8c92f12db2869c3395a3b0502d05e2516446f71f85b0180546001600160a01b0319166001600160a01b038416908117909155604080518381526020810193909352929450917fd61598fb1ce2887e52460be5a20dd97861cf42e2a14a95f5d78602bda857c5bf910162000675565b5f82815260208190526040902060010154620011b181620011e8565b620007ab83836200128c565b5f8060ff60f81b308460405180602001620004bf906200134b565b600181815481106200055f575f80fd5b620011f48133620012f9565b50565b5f62001204838362000cc0565b62001284575f838152602081815260408083206001600160a01b03861684529091529020805460ff191660011790556200123b3390565b6001600160a01b0316826001600160a01b0316847f2f8788117e7eff1d82e926ec794901d17c78024a50270940304540a733656f0d60405160405180910390a45060016200049e565b505f6200049e565b5f62001299838362000cc0565b1562001284575f838152602081815260408083206001600160a01b0386168085529252808320805460ff1916905551339286917ff6391f5c32d9c69d2a47ea670b442974b53935d1edc7fd64eb21e047a839171b9190a45060016200049e565b62001305828262000cc0565b620013395760405163e2517d3f60e01b81526001600160a01b03821660048201526024810183905260440160405180910390fd5b5050565b611e2380620015c483390190565b6111d080620033e783390190565b61290480620045b783390190565b6103f08062006ebb83390190565b611c9d80620072ab83390190565b5f6020828403121562001394575f80fd5b81356001600160e01b031981168114620013ac575f80fd5b9392505050565b80356001600160a01b0381168114620013ca575f80fd5b919050565b5f8060408385031215620013e1575f80fd5b620013ec83620013b3565b946020939093013593505050565b5f602082840312156200140b575f80fd5b5035919050565b5f6020828403121562001423575f80fd5b620013ac82620013b3565b5f806040838503121562001440575f80fd5b823591506200145260208401620013b3565b90509250929050565b5f805f606084860312156200146e575f80fd5b6200147984620013b3565b92506200148960208501620013b3565b91506200149960408501620013b3565b90509250925092565b5f805f8060808587031215620014b6575f80fd5b620014c185620013b3565b9350620014d160208601620013b3565b9250620014e160408601620013b3565b9396929550929360600135925050565b5f5b838110156200150d578181015183820152602001620014f3565b50505f910152565b5f835162001528818460208801620014f1565b8351908301906200153e818360208801620014f1565b01949350505050565b6001600160f81b031994909416845260609290921b6bffffffffffffffffffffffff191660018401526015830152603582015260550190565b60018060a01b0383168152604060208201525f8251806040840152620015ae816060850160208701620014f1565b601f01601f191691909101606001939250505056fe608060405234801562000010575f80fd5b5060405162001e2338038062001e238339810160408190526200003391620001c3565b6040518060400160405280601581526020017f476f6c645661756c7420436572746966696361746500000000000000000000008152506040518060400160405280600681526020016511d590d1549560d21b815250815f908162000098919062000290565b506001620000a7828262000290565b5050506001600160a01b038116620000d25760405163d92e233d60e01b815260040160405180910390fd5b620000de5f8262000113565b506200010b7f65d7a28e3265b37a6474929f336521b332c1681b933f6cb9f3376673440d862a8262000113565b50506200035c565b5f828152600a602090815260408083206001600160a01b038516845290915281205460ff16620001ba575f838152600a602090815260408083206001600160a01b03861684529091529020805460ff19166001179055620001713390565b6001600160a01b0316826001600160a01b0316847f2f8788117e7eff1d82e926ec794901d17c78024a50270940304540a733656f0d60405160405180910390a4506001620001bd565b505f5b92915050565b5f60208284031215620001d4575f80fd5b81516001600160a01b0381168114620001eb575f80fd5b9392505050565b634e487b7160e01b5f52604160045260245ffd5b600181811c908216806200021b57607f821691505b6020821081036200023a57634e487b7160e01b5f52602260045260245ffd5b50919050565b601f8211156200028b57805f5260205f20601f840160051c81016020851015620002675750805b601f840160051c820191505b8181101562000288575f815560010162000273565b50505b505050565b81516001600160401b03811115620002ac57620002ac620001f2565b620002c481620002bd845462000206565b8462000240565b602080601f831160018114620002fa575f8415620002e25750858301515b5f19600386901b1c1916600185901b17855562000354565b5f85815260208120601f198616915b828110156200032a5788860151825594840194600190910190840162000309565b50858210156200034857878501515f19600388901b60f8161c191681555b505060018460011b0185555b505050505050565b611ab9806200036a5f395ff3fe608060405234801561000f575f80fd5b50600436106101d1575f3560e01c80635c975abb116100fe578063a217fddf1161009e578063d53913931161006e578063d539139314610415578063d547741f1461043c578063e63ab1e91461044f578063e985e9c514610476575f80fd5b8063a217fddf146103d5578063a22cb465146103dc578063b88d4fde146103ef578063c87b56dd14610402575f80fd5b806370a08231116100d957806370a082311461039f5780638456cb59146103b257806391d14854146103ba57806395d89b41146103cd575f80fd5b80635c975abb146103265780636352211e14610331578063663b3e2214610344575f80fd5b80632f2ff15d1161017457806340c10f191161014457806340c10f19146102da57806342842e0e146102ed57806342966c68146103005780634f6ccce714610313575f80fd5b80632f2ff15d146102995780632f745c59146102ac57806336568abe146102bf5780633f4ba83a146102d2575f80fd5b8063095ea7b3116101af578063095ea7b31461023d57806318160ddd1461025257806323b872dd14610264578063248a9ca314610277575f80fd5b806301ffc9a7146101d557806306fdde03146101fd578063081812fc14610212575b5f80fd5b6101e86101e33660046116c5565b610489565b60405190151581526020015b60405180910390f35b610205610499565b6040516101f4919061172d565b61022561022036600461173f565b610528565b6040516001600160a01b0390911681526020016101f4565b61025061024b366004611771565b61054f565b005b6008545b6040519081526020016101f4565b610250610272366004611799565b61055e565b61025661028536600461173f565b5f908152600a602052604090206001015490565b6102506102a73660046117d2565b6105ec565b6102566102ba366004611771565b610610565b6102506102cd3660046117d2565b610673565b6102506106ab565b6102566102e8366004611771565b6106e0565b6102506102fb366004611799565b61081b565b61025061030e36600461173f565b610835565b61025661032136600461173f565b6108bf565b600b5460ff166101e8565b61022561033f36600461173f565b610914565b61037b61035236600461173f565b600d6020525f90815260409020805460018201546002909201549091906001600160a01b031683565b6040805193845260208401929092526001600160a01b0316908201526060016101f4565b6102566103ad3660046117fc565b61091e565b610250610963565b6101e86103c83660046117d2565b610995565b6102056109bf565b6102565f81565b6102506103ea366004611815565b6109ce565b6102506103fd366004611862565b6109d9565b61020561041036600461173f565b6109f1565b6102567f9f2df0fed2c77648de5860a4cc508cd0818c85b8b8a1ab4ceeef8d981c8956a681565b61025061044a3660046117d2565b610a62565b6102567f65d7a28e3265b37a6474929f336521b332c1681b933f6cb9f3376673440d862a81565b6101e8610484366004611937565b610a86565b5f61049382610ab3565b92915050565b60605f80546104a79061195f565b80601f01602080910402602001604051908101604052809291908181526020018280546104d39061195f565b801561051e5780601f106104f55761010080835404028352916020019161051e565b820191905f5260205f20905b81548152906001019060200180831161050157829003601f168201915b5050505050905090565b5f61053282610ad7565b505f828152600460205260409020546001600160a01b0316610493565b61055a828233610b0f565b5050565b6001600160a01b03821661058c57604051633250574960e11b81525f60048201526024015b60405180910390fd5b5f610598838333610b1c565b9050836001600160a01b0316816001600160a01b0316146105e6576040516364283d7b60e01b81526001600160a01b0380861660048301526024820184905282166044820152606401610583565b50505050565b5f828152600a602052604090206001015461060681610b38565b6105e68383610b42565b5f61061a8361091e565b821061064b5760405163295f44f760e21b81526001600160a01b038416600482015260248101839052604401610583565b506001600160a01b03919091165f908152600660209081526040808320938352929052205490565b6001600160a01b038116331461069c5760405163334bd91960e11b815260040160405180910390fd5b6106a68282610bd3565b505050565b7f65d7a28e3265b37a6474929f336521b332c1681b933f6cb9f3376673440d862a6106d581610b38565b6106dd610c3e565b50565b5f7f9f2df0fed2c77648de5860a4cc508cd0818c85b8b8a1ab4ceeef8d981c8956a661070b81610b38565b610713610c90565b6001600160a01b03841661073a5760405163d92e233d60e01b815260040160405180910390fd5b825f0361075a57604051631f2a200560e01b815260040160405180910390fd5b600c8054905f610769836119ab565b9091555060408051606081018252858152426020808301918252338385019081525f868152600d909252939020915182555160018201559051600290910180546001600160a01b0319166001600160a01b0390921691909117905591506107d08483610cb6565b81846001600160a01b03167ffb2a8276c788bcdeaec6f4ec55f21fc636460802e63cb7e05337309232a1b9058560405161080c91815260200190565b60405180910390a35092915050565b6106a683838360405180602001604052805f8152506109d9565b7f9f2df0fed2c77648de5860a4cc508cd0818c85b8b8a1ab4ceeef8d981c8956a661085f81610b38565b5f828152600d60205260408120818155600181019190915560020180546001600160a01b031916905561089182610ccf565b60405182907fb5b5ff4ec0735adc942b77efd721b86b1b579d7afac0c1ae614681eead1dfbe3905f90a25050565b5f6108c960085490565b82106108f15760405163295f44f760e21b81525f600482015260248101839052604401610583565b60088281548110610904576109046119c3565b905f5260205f2001549050919050565b5f61049382610ad7565b5f6001600160a01b038216610948576040516322718ad960e21b81525f6004820152602401610583565b506001600160a01b03165f9081526003602052604090205490565b7f65d7a28e3265b37a6474929f336521b332c1681b933f6cb9f3376673440d862a61098d81610b38565b6106dd610d07565b5f918252600a602090815260408084206001600160a01b0393909316845291905290205460ff1690565b6060600180546104a79061195f565b61055a338383610d44565b6109e484848461055e565b6105e63385858585610de2565b60606109fc82610ad7565b505f610a1260408051602081019091525f815290565b90505f815111610a305760405180602001604052805f815250610a5b565b80610a3a84610f0a565b604051602001610a4b9291906119d7565b6040516020818303038152906040525b9392505050565b5f828152600a6020526040902060010154610a7c81610b38565b6105e68383610bd3565b6001600160a01b039182165f90815260056020908152604080832093909416825291909152205460ff1690565b5f6001600160e01b03198216637965db0b60e01b1480610493575061049382610f9a565b5f818152600260205260408120546001600160a01b03168061049357604051637e27328960e01b815260048101849052602401610583565b6106a68383836001610fbe565b5f610b25610c90565b610b308484846110c2565b949350505050565b6106dd813361118d565b5f610b4d8383610995565b610bcc575f838152600a602090815260408083206001600160a01b03861684529091529020805460ff19166001179055610b843390565b6001600160a01b0316826001600160a01b0316847f2f8788117e7eff1d82e926ec794901d17c78024a50270940304540a733656f0d60405160405180910390a4506001610493565b505f610493565b5f610bde8383610995565b15610bcc575f838152600a602090815260408083206001600160a01b0386168085529252808320805460ff1916905551339286917ff6391f5c32d9c69d2a47ea670b442974b53935d1edc7fd64eb21e047a839171b9190a4506001610493565b610c466111c6565b600b805460ff191690557f5db9ee0a495bf2e6ff9c91a7834c1ba4fdd244a5e8aa4e537bd38aeae4b073aa335b6040516001600160a01b03909116815260200160405180910390a1565b600b5460ff1615610cb45760405163d93c066560e01b815260040160405180910390fd5b565b61055a828260405180602001604052805f8152506111e9565b5f610cdb5f835f610b1c565b90506001600160a01b03811661055a57604051637e27328960e01b815260048101839052602401610583565b610d0f610c90565b600b805460ff191660011790557f62e78cea01bee320cd4e420270b5ea74000d11b0c9f74754ebdbfc544b05a258610c733390565b6001600160a01b038216610d7657604051630b61174360e31b81526001600160a01b0383166004820152602401610583565b6001600160a01b038381165f81815260056020908152604080832094871680845294825291829020805460ff191686151590811790915591519182527f17307eab39ab6107e8899845ad3d59bd9653f200f220920489ca2b5937696c31910160405180910390a3505050565b6001600160a01b0383163b15610f0357604051630a85bd0160e11b81526001600160a01b0384169063150b7a0290610e24908890889087908790600401611a05565b6020604051808303815f875af1925050508015610e5e575060408051601f3d908101601f19168201909252610e5b91810190611a41565b60015b610ec5573d808015610e8b576040519150601f19603f3d011682016040523d82523d5f602084013e610e90565b606091505b5080515f03610ebd57604051633250574960e11b81526001600160a01b0385166004820152602401610583565b805181602001fd5b6001600160e01b03198116630a85bd0160e11b14610f0157604051633250574960e11b81526001600160a01b0385166004820152602401610583565b505b5050505050565b60605f610f1683611200565b60010190505f8167ffffffffffffffff811115610f3557610f3561184e565b6040519080825280601f01601f191660200182016040528015610f5f576020820181803683370190505b5090508181016020015b5f19016f181899199a1a9b1b9c1cb0b131b232b360811b600a86061a8153600a8504945084610f6957509392505050565b5f6001600160e01b0319821663780e9d6360e01b14806104935750610493826112d7565b8080610fd257506001600160a01b03821615155b15611093575f610fe184610ad7565b90506001600160a01b0383161580159061100d5750826001600160a01b0316816001600160a01b031614155b8015611020575061101e8184610a86565b155b156110495760405163a9fbf51f60e01b81526001600160a01b0384166004820152602401610583565b81156110915783856001600160a01b0316826001600160a01b03167f8c5be1e5ebec7d5bd14f71427d1e84f3dd0314c0f7b2291e5b200ac8c7c3b92560405160405180910390a45b505b50505f90815260046020526040902080546001600160a01b0319166001600160a01b0392909216919091179055565b5f806110cf858585611326565b90506001600160a01b03811661112b5761112684600880545f838152600960205260408120829055600182018355919091527ff3f7a9fe364faab93b216da50a3214154f22a0a2b415b23a84c8169e8b636ee30155565b61114e565b846001600160a01b0316816001600160a01b03161461114e5761114e8185611418565b6001600160a01b03851661116a5761116584611495565b610b30565b846001600160a01b0316816001600160a01b031614610b3057610b30858561153c565b6111978282610995565b61055a5760405163e2517d3f60e01b81526001600160a01b038216600482015260248101839052604401610583565b600b5460ff16610cb457604051638dfc202b60e01b815260040160405180910390fd5b6111f3838361158a565b6106a6335f858585610de2565b5f8072184f03e93ff9f4daa797ed6e38ed64bf6a1f0160401b831061123e5772184f03e93ff9f4daa797ed6e38ed64bf6a1f0160401b830492506040015b6d04ee2d6d415b85acef8100000000831061126a576d04ee2d6d415b85acef8100000000830492506020015b662386f26fc10000831061128857662386f26fc10000830492506010015b6305f5e10083106112a0576305f5e100830492506008015b61271083106112b457612710830492506004015b606483106112c6576064830492506002015b600a83106104935760010192915050565b5f6001600160e01b031982166380ac58cd60e01b148061130757506001600160e01b03198216635b5e139f60e01b145b8061049357506301ffc9a760e01b6001600160e01b0319831614610493565b5f828152600260205260408120546001600160a01b0390811690831615611352576113528184866115eb565b6001600160a01b0381161561138c5761136d5f855f80610fbe565b6001600160a01b0381165f90815260036020526040902080545f190190555b6001600160a01b038516156113ba576001600160a01b0385165f908152600360205260409020805460010190555b5f8481526002602052604080822080546001600160a01b0319166001600160a01b0389811691821790925591518793918516917fddf252ad1be2c89b69c2b068fc378daa952ba7f163c4a11628f55a4df523b3ef91a4949350505050565b5f6114228361091e565b5f838152600760209081526040808320546001600160a01b0388168452600690925290912091925090818314611477575f83815260208281526040808320548584528184208190558352600790915290208290555b5f938452600760209081526040808620869055938552525081205550565b6008545f906114a690600190611a5c565b5f83815260096020526040812054600880549394509092849081106114cd576114cd6119c3565b905f5260205f200154905080600883815481106114ec576114ec6119c3565b5f91825260208083209091019290925582815260099091526040808220849055858252812055600880548061152357611523611a6f565b600190038181905f5260205f20015f9055905550505050565b5f60016115488461091e565b6115529190611a5c565b6001600160a01b039093165f908152600660209081526040808320868452825280832085905593825260079052919091209190915550565b6001600160a01b0382166115b357604051633250574960e11b81525f6004820152602401610583565b5f6115bf83835f610b1c565b90506001600160a01b038116156106a6576040516339e3563760e11b81525f6004820152602401610583565b6115f683838361164f565b6106a6576001600160a01b03831661162457604051637e27328960e01b815260048101829052602401610583565b60405163177e802f60e01b81526001600160a01b038316600482015260248101829052604401610583565b5f6001600160a01b03831615801590610b305750826001600160a01b0316846001600160a01b0316148061168857506116888484610a86565b80610b305750505f908152600460205260409020546001600160a01b03908116911614919050565b6001600160e01b0319811681146106dd575f80fd5b5f602082840312156116d5575f80fd5b8135610a5b816116b0565b5f5b838110156116fa5781810151838201526020016116e2565b50505f910152565b5f81518084526117198160208601602086016116e0565b601f01601f19169290920160200192915050565b602081525f610a5b6020830184611702565b5f6020828403121561174f575f80fd5b5035919050565b80356001600160a01b038116811461176c575f80fd5b919050565b5f8060408385031215611782575f80fd5b61178b83611756565b946020939093013593505050565b5f805f606084860312156117ab575f80fd5b6117b484611756565b92506117c260208501611756565b9150604084013590509250925092565b5f80604083850312156117e3575f80fd5b823591506117f360208401611756565b90509250929050565b5f6020828403121561180c575f80fd5b610a5b82611756565b5f8060408385031215611826575f80fd5b61182f83611756565b915060208301358015158114611843575f80fd5b809150509250929050565b634e487b7160e01b5f52604160045260245ffd5b5f805f8060808587031215611875575f80fd5b61187e85611756565b935061188c60208601611756565b925060408501359150606085013567ffffffffffffffff808211156118af575f80fd5b818701915087601f8301126118c2575f80fd5b8135818111156118d4576118d461184e565b604051601f8201601f19908116603f011681019083821181831017156118fc576118fc61184e565b816040528281528a6020848701011115611914575f80fd5b826020860160208301375f60208483010152809550505050505092959194509250565b5f8060408385031215611948575f80fd5b61195183611756565b91506117f360208401611756565b600181811c9082168061197357607f821691505b60208210810361199157634e487b7160e01b5f52602260045260245ffd5b50919050565b634e487b7160e01b5f52601160045260245ffd5b5f600182016119bc576119bc611997565b5060010190565b634e487b7160e01b5f52603260045260245ffd5b5f83516119e88184602088016116e0565b8351908301906119fc8183602088016116e0565b01949350505050565b6001600160a01b03858116825284166020820152604081018390526080606082018190525f90611a3790830184611702565b9695505050505050565b5f60208284031215611a51575f80fd5b8151610a5b816116b0565b8181038181111561049357610493611997565b634e487b7160e01b5f52603160045260245ffdfea2646970667358221220de087ec06b23bccfaca12fffc8946992c72c2436017372e7f343723007783e3164736f6c63430008180033608060405234801562000010575f80fd5b50604051620011d0380380620011d08339810160408190526200003391620001b4565b6040518060400160405280600f81526020016e23b7b6322b30bab63a102a37b5b2b760891b8152506040518060400160405280600481526020016311d3d31160e21b815250816003908162000089919062000281565b50600462000098828262000281565b5050506001600160a01b038116620000c35760405163d92e233d60e01b815260040160405180910390fd5b620000cf5f8262000104565b50620000fc7f65d7a28e3265b37a6474929f336521b332c1681b933f6cb9f3376673440d862a8262000104565b50506200034d565b5f8281526005602090815260408083206001600160a01b038516845290915281205460ff16620001ab575f8381526005602090815260408083206001600160a01b03861684529091529020805460ff19166001179055620001623390565b6001600160a01b0316826001600160a01b0316847f2f8788117e7eff1d82e926ec794901d17c78024a50270940304540a733656f0d60405160405180910390a4506001620001ae565b505f5b92915050565b5f60208284031215620001c5575f80fd5b81516001600160a01b0381168114620001dc575f80fd5b9392505050565b634e487b7160e01b5f52604160045260245ffd5b600181811c908216806200020c57607f821691505b6020821081036200022b57634e487b7160e01b5f52602260045260245ffd5b50919050565b601f8211156200027c57805f5260205f20601f840160051c81016020851015620002585750805b601f840160051c820191505b8181101562000279575f815560010162000264565b50505b505050565b81516001600160401b038111156200029d576200029d620001e3565b620002b581620002ae8454620001f7565b8462000231565b602080601f831160018114620002eb575f8415620002d35750858301515b5f19600386901b1c1916600185901b17855562000345565b5f85815260208120601f198616915b828110156200031b57888601518255948401946001909101908401620002fa565b50858210156200033957878501515f19600388901b60f8161c191681555b505060018460011b0185555b505050505050565b610e75806200035b5f395ff3fe608060405234801561000f575f80fd5b5060043610610148575f3560e01c80635c975abb116100bf5780639dc29fac116100795780639dc29fac146102b2578063a217fddf146102c5578063a9059cbb146102cc578063d547741f146102df578063dd62ed3e146102f2578063e63ab1e91461032a575f80fd5b80635c975abb1461023557806370a082311461024057806382aefa24146102685780638456cb591461028f57806391d148541461029757806395d89b41146102aa575f80fd5b8063248a9ca311610110578063248a9ca3146101c15780632f2ff15d146101e3578063313ce567146101f857806336568abe146102075780633f4ba83a1461021a57806340c10f1914610222575f80fd5b806301ffc9a71461014c57806306fdde0314610174578063095ea7b31461018957806318160ddd1461019c57806323b872dd146101ae575b5f80fd5b61015f61015a366004610c70565b610351565b60405190151581526020015b60405180910390f35b61017c610387565b60405161016b9190610c9e565b61015f610197366004610d05565b610417565b6002545b60405190815260200161016b565b61015f6101bc366004610d2d565b61042e565b6101a06101cf366004610d66565b5f9081526005602052604090206001015490565b6101f66101f1366004610d7d565b610451565b005b6040516012815260200161016b565b6101f6610215366004610d7d565b61047b565b6101f66104b3565b6101f6610230366004610d05565b6104e8565b60065460ff1661015f565b6101a061024e366004610da7565b6001600160a01b03165f9081526020819052604090205490565b6101a07f114e74f6ea3bd819998f78687bfcb11b140da08e9b7d222fa9c1f1ba1f2aa12281565b6101f66105ab565b61015f6102a5366004610d7d565b6105dd565b61017c610607565b6101f66102c0366004610d05565b610616565b6101a05f81565b61015f6102da366004610d05565b6106cc565b6101f66102ed366004610d7d565b6106d9565b6101a0610300366004610dc0565b6001600160a01b039182165f90815260016020908152604080832093909416825291909152205490565b6101a07f65d7a28e3265b37a6474929f336521b332c1681b933f6cb9f3376673440d862a81565b5f6001600160e01b03198216637965db0b60e01b148061038157506301ffc9a760e01b6001600160e01b03198316145b92915050565b60606003805461039690610de8565b80601f01602080910402602001604051908101604052809291908181526020018280546103c290610de8565b801561040d5780601f106103e45761010080835404028352916020019161040d565b820191905f5260205f20905b8154815290600101906020018083116103f057829003601f168201915b5050505050905090565b5f336104248185856106fd565b5060019392505050565b5f3361043b85828561070a565b610446858585610785565b506001949350505050565b5f8281526005602052604090206001015461046b816107e2565b61047583836107ec565b50505050565b6001600160a01b03811633146104a45760405163334bd91960e11b815260040160405180910390fd5b6104ae828261087d565b505050565b7f65d7a28e3265b37a6474929f336521b332c1681b933f6cb9f3376673440d862a6104dd816107e2565b6104e56108e8565b50565b7f114e74f6ea3bd819998f78687bfcb11b140da08e9b7d222fa9c1f1ba1f2aa122610512816107e2565b6001600160a01b0383166105395760405163d92e233d60e01b815260040160405180910390fd5b815f0361055957604051631f2a200560e01b815260040160405180910390fd5b610563838361093a565b826001600160a01b03167f3f2c9d57c068687834f0de942a9babb9e5acab57d516d3480a3c16ee165a42738360405161059e91815260200190565b60405180910390a2505050565b7f65d7a28e3265b37a6474929f336521b332c1681b933f6cb9f3376673440d862a6105d5816107e2565b6104e5610972565b5f9182526005602090815260408084206001600160a01b0393909316845291905290205460ff1690565b60606004805461039690610de8565b7f114e74f6ea3bd819998f78687bfcb11b140da08e9b7d222fa9c1f1ba1f2aa122610640816107e2565b6001600160a01b0383166106675760405163d92e233d60e01b815260040160405180910390fd5b815f0361068757604051631f2a200560e01b815260040160405180910390fd5b61069183836109af565b826001600160a01b03167ffd38818f5291bf0bb3a2a48aadc06ba8757865d1dabd804585338aab3009dcb68360405161059e91815260200190565b5f33610424818585610785565b5f828152600560205260409020600101546106f3816107e2565b610475838361087d565b6104ae83838360016109e3565b6001600160a01b038381165f908152600160209081526040808320938616835292905220545f19811015610475578181101561077757604051637dc7a0d960e11b81526001600160a01b038416600482015260248101829052604481018390526064015b60405180910390fd5b61047584848484035f6109e3565b6001600160a01b0383166107ae57604051634b637e8f60e11b81525f600482015260240161076e565b6001600160a01b0382166107d75760405163ec442f0560e01b81525f600482015260240161076e565b6104ae838383610ab5565b6104e58133610ac8565b5f6107f783836105dd565b610876575f8381526005602090815260408083206001600160a01b03861684529091529020805460ff1916600117905561082e3390565b6001600160a01b0316826001600160a01b0316847f2f8788117e7eff1d82e926ec794901d17c78024a50270940304540a733656f0d60405160405180910390a4506001610381565b505f610381565b5f61088883836105dd565b15610876575f8381526005602090815260408083206001600160a01b0386168085529252808320805460ff1916905551339286917ff6391f5c32d9c69d2a47ea670b442974b53935d1edc7fd64eb21e047a839171b9190a4506001610381565b6108f0610b01565b6006805460ff191690557f5db9ee0a495bf2e6ff9c91a7834c1ba4fdd244a5e8aa4e537bd38aeae4b073aa335b6040516001600160a01b03909116815260200160405180910390a1565b6001600160a01b0382166109635760405163ec442f0560e01b81525f600482015260240161076e565b61096e5f8383610ab5565b5050565b61097a610b26565b6006805460ff191660011790557f62e78cea01bee320cd4e420270b5ea74000d11b0c9f74754ebdbfc544b05a25861091d3390565b6001600160a01b0382166109d857604051634b637e8f60e11b81525f600482015260240161076e565b61096e825f83610ab5565b6001600160a01b038416610a0c5760405163e602df0560e01b81525f600482015260240161076e565b6001600160a01b038316610a3557604051634a1406b160e11b81525f600482015260240161076e565b6001600160a01b038085165f908152600160209081526040808320938716835292905220829055801561047557826001600160a01b0316846001600160a01b03167f8c5be1e5ebec7d5bd14f71427d1e84f3dd0314c0f7b2291e5b200ac8c7c3b92584604051610aa791815260200190565b60405180910390a350505050565b610abd610b26565b6104ae838383610b4a565b610ad282826105dd565b61096e5760405163e2517d3f60e01b81526001600160a01b03821660048201526024810183905260440161076e565b60065460ff16610b2457604051638dfc202b60e01b815260040160405180910390fd5b565b60065460ff1615610b245760405163d93c066560e01b815260040160405180910390fd5b6001600160a01b038316610b74578060025f828254610b699190610e20565b90915550610be49050565b6001600160a01b0383165f9081526020819052604090205481811015610bc65760405163391434e360e21b81526001600160a01b0385166004820152602481018290526044810183905260640161076e565b6001600160a01b0384165f9081526020819052604090209082900390555b6001600160a01b038216610c0057600280548290039055610c1e565b6001600160a01b0382165f9081526020819052604090208054820190555b816001600160a01b0316836001600160a01b03167fddf252ad1be2c89b69c2b068fc378daa952ba7f163c4a11628f55a4df523b3ef83604051610c6391815260200190565b60405180910390a3505050565b5f60208284031215610c80575f80fd5b81356001600160e01b031981168114610c97575f80fd5b9392505050565b5f602080835283518060208501525f5b81811015610cca57858101830151858201604001528201610cae565b505f604082860101526040601f19601f8301168501019250505092915050565b80356001600160a01b0381168114610d00575f80fd5b919050565b5f8060408385031215610d16575f80fd5b610d1f83610cea565b946020939093013593505050565b5f805f60608486031215610d3f575f80fd5b610d4884610cea565b9250610d5660208501610cea565b9150604084013590509250925092565b5f60208284031215610d76575f80fd5b5035919050565b5f8060408385031215610d8e575f80fd5b82359150610d9e60208401610cea565b90509250929050565b5f60208284031215610db7575f80fd5b610c9782610cea565b5f8060408385031215610dd1575f80fd5b610dda83610cea565b9150610d9e60208401610cea565b600181811c90821680610dfc57607f821691505b602082108103610e1a57634e487b7160e01b5f52602260045260245ffd5b50919050565b8082018082111561038157634e487b7160e01b5f52601160045260245ffdfea26469706673582212203fcabcdd74893b7e01b9b21de61cc3891b1ed583fee5e3d974a74230ca2ebead64736f6c6343000818003361016060405234801562000011575f80fd5b50604051620029043803806200290483398101604081905262000034916200034c565b6040518060400160405280601481526020017f476f6c645661756c7420476f7665726e616e636500000000000000000000000081525080604051806040016040528060018152602001603160f81b8152506040518060400160405280601481526020017f476f6c645661756c7420476f7665726e616e63650000000000000000000000008152506040518060400160405280600381526020016247564760e81b8152508160039081620000e8919062000419565b506004620000f7828262000419565b5062000109915083905060056200021a565b610120526200011a8160066200021a565b61014052815160208084019190912060e052815190820120610100524660a052620001a760e05161010051604080517f8b73c3c69bb8fe3d512ecc4cf759cc79239f7b179b0ffacaa9a75d522b39400f60208201529081019290925260608201524660808201523060a08201525f9060c00160405160208183030381529060405280519060200120905090565b60805250503060c052506001600160a01b038116620001d95760405163d92e233d60e01b815260040160405180910390fd5b620001e55f8262000252565b50620002127f65d7a28e3265b37a6474929f336521b332c1681b933f6cb9f3376673440d862a8262000252565b505062000557565b5f6020835110156200023957620002318362000301565b90506200024c565b8162000246848262000419565b5060ff90505b92915050565b5f828152600b602090815260408083206001600160a01b038516845290915281205460ff16620002f9575f838152600b602090815260408083206001600160a01b03861684529091529020805460ff19166001179055620002b03390565b6001600160a01b0316826001600160a01b0316847f2f8788117e7eff1d82e926ec794901d17c78024a50270940304540a733656f0d60405160405180910390a45060016200024c565b505f6200024c565b5f80829050601f8151111562000337578260405163305a27a960e01b81526004016200032e9190620004e5565b60405180910390fd5b8051620003448262000533565b179392505050565b5f602082840312156200035d575f80fd5b81516001600160a01b038116811462000374575f80fd5b9392505050565b634e487b7160e01b5f52604160045260245ffd5b600181811c90821680620003a457607f821691505b602082108103620003c357634e487b7160e01b5f52602260045260245ffd5b50919050565b601f8211156200041457805f5260205f20601f840160051c81016020851015620003f05750805b601f840160051c820191505b8181101562000411575f8155600101620003fc565b50505b505050565b81516001600160401b038111156200043557620004356200037b565b6200044d816200044684546200038f565b84620003c9565b602080601f83116001811462000483575f84156200046b5750858301515b5f19600386901b1c1916600185901b178555620004dd565b5f85815260208120601f198616915b82811015620004b35788860151825594840194600190910190840162000492565b5085821015620004d157878501515f19600388901b60f8161c191681555b505060018460011b0185555b505050505050565b5f602080835283518060208501525f5b818110156200051357858101830151858201604001528201620004f5565b505f604082860101526040601f19601f8301168501019250505092915050565b80516020808301519190811015620003c3575f1960209190910360031b1b16919050565b60805160a05160c05160e05161010051610120516101405161235b620005a95f395f6111c201525f61119501525f610e5901525f610e3101525f610d8c01525f610db601525f610de0015261235b5ff3fe608060405234801561000f575f80fd5b5060043610610213575f3560e01c806370a082311161011f578063a217fddf116100a9578063d539139311610079578063d5391393146104aa578063d547741f146104d1578063dd62ed3e146104e4578063e63ab1e91461051c578063f1127ed814610543575f80fd5b8063a217fddf1461046a578063a9059cbb14610471578063c3cda52014610484578063d505accf14610497575f80fd5b80638e539e8c116100ef5780638e539e8c1461040a57806391d148541461041d57806391ddadf41461043057806395d89b411461044f5780639ab24eb014610457575f80fd5b806370a08231146103ac5780637ecebe00146103d45780638456cb59146103e757806384b0196e146103ef575f80fd5b806336568abe116101a05780634bf5d7e9116101705780634bf5d7e91461031b578063587cde1e146103235780635c19a95c146103665780635c975abb146103795780636fcfff4514610384575f80fd5b806336568abe146102da5780633a46b1a8146102ed5780633f4ba83a1461030057806340c10f1914610308575f80fd5b806323b872dd116101e657806323b872dd14610279578063248a9ca31461028c5780632f2ff15d146102ae578063313ce567146102c35780633644e515146102d2575f80fd5b806301ffc9a71461021757806306fdde031461023f578063095ea7b31461025457806318160ddd14610267575b5f80fd5b61022a610225366004611efa565b610582565b60405190151581526020015b60405180910390f35b6102476105b8565b6040516102369190611f64565b61022a610262366004611f91565b610648565b6002545b604051908152602001610236565b61022a610287366004611fb9565b61065f565b61026b61029a366004611ff2565b5f908152600b602052604090206001015490565b6102c16102bc366004612009565b610682565b005b60405160128152602001610236565b61026b6106ac565b6102c16102e8366004612009565b6106ba565b61026b6102fb366004611f91565b6106f2565b6102c161072c565b6102c1610316366004611f91565b610761565b610247610824565b61034e610331366004612033565b6001600160a01b039081165f908152600860205260409020541690565b6040516001600160a01b039091168152602001610236565b6102c1610374366004612033565b61089c565b600c5460ff1661022a565b610397610392366004612033565b6108ab565b60405163ffffffff9091168152602001610236565b61026b6103ba366004612033565b6001600160a01b03165f9081526020819052604090205490565b61026b6103e2366004612033565b6108b5565b6102c16108bf565b6103f76108f1565b604051610236979695949392919061204c565b61026b610418366004611ff2565b610933565b61022a61042b366004612009565b610957565b610438610981565b60405165ffffffffffff9091168152602001610236565b61024761098a565b61026b610465366004612033565b610999565b61026b5f81565b61022a61047f366004611f91565b6109b9565b6102c16104923660046120f3565b6109c6565b6102c16104a5366004612147565b610a87565b61026b7f9f2df0fed2c77648de5860a4cc508cd0818c85b8b8a1ab4ceeef8d981c8956a681565b6102c16104df366004612009565b610bbd565b61026b6104f23660046121ac565b6001600160a01b039182165f90815260016020908152604080832093909416825291909152205490565b61026b7f65d7a28e3265b37a6474929f336521b332c1681b933f6cb9f3376673440d862a81565b6105566105513660046121d4565b610be1565b60408051825165ffffffffffff1681526020928301516001600160d01b03169281019290925201610236565b5f6001600160e01b03198216637965db0b60e01b14806105b257506301ffc9a760e01b6001600160e01b03198316145b92915050565b6060600380546105c790612211565b80601f01602080910402602001604051908101604052809291908181526020018280546105f390612211565b801561063e5780601f106106155761010080835404028352916020019161063e565b820191905f5260205f20905b81548152906001019060200180831161062157829003601f168201915b5050505050905090565b5f33610655818585610c05565b5060019392505050565b5f3361066c858285610c12565b610677858585610c88565b506001949350505050565b5f828152600b602052604090206001015461069c81610ce5565b6106a68383610cef565b50505050565b5f6106b5610d80565b905090565b6001600160a01b03811633146106e35760405163334bd91960e11b815260040160405180910390fd5b6106ed8282610ea9565b505050565b5f61071c6106ff83610f14565b6001600160a01b0385165f90815260096020526040902090610f62565b6001600160d01b03169392505050565b7f65d7a28e3265b37a6474929f336521b332c1681b933f6cb9f3376673440d862a61075681610ce5565b61075e611012565b50565b7f9f2df0fed2c77648de5860a4cc508cd0818c85b8b8a1ab4ceeef8d981c8956a661078b81610ce5565b6001600160a01b0383166107b25760405163d92e233d60e01b815260040160405180910390fd5b815f036107d257604051631f2a200560e01b815260040160405180910390fd5b6107dc8383611064565b826001600160a01b03167f3f2c9d57c068687834f0de942a9babb9e5acab57d516d3480a3c16ee165a42738360405161081791815260200190565b60405180910390a2505050565b606061082e611098565b65ffffffffffff1661083e610981565b65ffffffffffff1614610864576040516301bfc1c560e61b815260040160405180910390fd5b5060408051808201909152601d81527f6d6f64653d626c6f636b6e756d6265722666726f6d3d64656661756c74000000602082015290565b336108a781836110a2565b5050565b5f6105b282611113565b5f6105b282611134565b7f65d7a28e3265b37a6474929f336521b332c1681b933f6cb9f3376673440d862a6108e981610ce5565b61075e611151565b5f6060805f805f606061090261118e565b61090a6111bb565b604080515f80825260208201909252600f60f81b9b939a50919850469750309650945092509050565b5f61094861094083610f14565b600a90610f62565b6001600160d01b031692915050565b5f918252600b602090815260408084206001600160a01b0393909316845291905290205460ff1690565b5f6106b5611098565b6060600480546105c790612211565b6001600160a01b0381165f908152600960205260408120610948906111e8565b5f33610655818585610c88565b834211156109ef57604051632341d78760e11b8152600481018590526024015b60405180910390fd5b604080517fe48329057bfd03d55e49b547132e39cffd9c1820ad7b9d4c5307691425d15adf60208201526001600160a01b0388169181019190915260608101869052608081018590525f90610a6890610a609060a0016040516020818303038152906040528051906020012061121f565b85858561124b565b9050610a748187611277565b610a7e81886110a2565b50505050505050565b83421115610aab5760405163313c898160e11b8152600481018590526024016109e6565b5f7f6e71edae12b1b97f4d1f60370fef10105fa2faae0126114a169c64845d6126c9888888610af68c6001600160a01b03165f90815260076020526040902080546001810190915590565b6040805160208101969096526001600160a01b0394851690860152929091166060840152608083015260a082015260c0810186905260e0016040516020818303038152906040528051906020012090505f610b508261121f565b90505f610b5f8287878761124b565b9050896001600160a01b0316816001600160a01b031614610ba6576040516325c0072360e11b81526001600160a01b0380831660048301528b1660248201526044016109e6565b610bb18a8a8a610c05565b50505050505050505050565b5f828152600b6020526040902060010154610bd781610ce5565b6106a68383610ea9565b604080518082019091525f8082526020820152610bfe83836112c9565b9392505050565b6106ed83838360016112fd565b6001600160a01b038381165f908152600160209081526040808320938616835292905220545f198110156106a65781811015610c7a57604051637dc7a0d960e11b81526001600160a01b038416600482015260248101829052604481018390526064016109e6565b6106a684848484035f6112fd565b6001600160a01b038316610cb157604051634b637e8f60e11b81525f60048201526024016109e6565b6001600160a01b038216610cda5760405163ec442f0560e01b81525f60048201526024016109e6565b6106ed8383836113cf565b61075e81336113e2565b5f610cfa8383610957565b610d79575f838152600b602090815260408083206001600160a01b03861684529091529020805460ff19166001179055610d313390565b6001600160a01b0316826001600160a01b0316847f2f8788117e7eff1d82e926ec794901d17c78024a50270940304540a733656f0d60405160405180910390a45060016105b2565b505f6105b2565b5f306001600160a01b037f000000000000000000000000000000000000000000000000000000000000000016148015610dd857507f000000000000000000000000000000000000000000000000000000000000000046145b15610e0257507f000000000000000000000000000000000000000000000000000000000000000090565b6106b5604080517f8b73c3c69bb8fe3d512ecc4cf759cc79239f7b179b0ffacaa9a75d522b39400f60208201527f0000000000000000000000000000000000000000000000000000000000000000918101919091527f000000000000000000000000000000000000000000000000000000000000000060608201524660808201523060a08201525f9060c00160405160208183030381529060405280519060200120905090565b5f610eb48383610957565b15610d79575f838152600b602090815260408083206001600160a01b0386168085529252808320805460ff1916905551339286917ff6391f5c32d9c69d2a47ea670b442974b53935d1edc7fd64eb21e047a839171b9190a45060016105b2565b5f80610f1e610981565b90508065ffffffffffff168310610f5957604051637669fc0f60e11b81526004810184905265ffffffffffff821660248201526044016109e6565b610bfe8361141b565b81545f9081816005811115610fbe575f610f7b84611451565b610f85908561225d565b5f8881526020902090915081015465ffffffffffff9081169087161015610fae57809150610fbc565b610fb9816001612270565b92505b505b5f610fcb878785856115a9565b9050801561100557610fef87610fe260018461225d565b5f91825260209091200190565b54600160301b90046001600160d01b0316611007565b5f5b979650505050505050565b61101a611608565b600c805460ff191690557f5db9ee0a495bf2e6ff9c91a7834c1ba4fdd244a5e8aa4e537bd38aeae4b073aa335b6040516001600160a01b03909116815260200160405180910390a1565b6001600160a01b03821661108d5760405163ec442f0560e01b81525f60048201526024016109e6565b6108a75f83836113cf565b5f6106b54361141b565b6001600160a01b038281165f8181526008602052604080822080548686166001600160a01b0319821681179092559151919094169392849290917f3134e8a2e6d97e929a7e54011ea5485d7d196dd5f0ba4d4ef95803e8e3fc257f9190a46106ed818361110e8661162d565b61164a565b6001600160a01b0381165f908152600960205260408120546105b2906117b3565b6001600160a01b0381165f908152600760205260408120546105b2565b6111596117e3565b600c805460ff191660011790557f62e78cea01bee320cd4e420270b5ea74000d11b0c9f74754ebdbfc544b05a2586110473390565b60606106b57f00000000000000000000000000000000000000000000000000000000000000006005611807565b60606106b57f00000000000000000000000000000000000000000000000000000000000000006006611807565b80545f9080156112175761120183610fe260018461225d565b54600160301b90046001600160d01b0316610bfe565b5f9392505050565b5f6105b261122b610d80565b8360405161190160f01b8152600281019290925260228201526042902090565b5f805f8061125b888888886118b0565b92509250925061126b8282611978565b50909695505050505050565b6001600160a01b0382165f9081526007602052604090208054600181019091558181146106ed576040516301d4b62360e61b81526001600160a01b0384166004820152602481018290526044016109e6565b604080518082019091525f80825260208201526001600160a01b0383165f908152600960205260409020610bfe9083611a30565b6001600160a01b0384166113265760405163e602df0560e01b81525f60048201526024016109e6565b6001600160a01b03831661134f57604051634a1406b160e11b81525f60048201526024016109e6565b6001600160a01b038085165f90815260016020908152604080832093871683529290522082905580156106a657826001600160a01b0316846001600160a01b03167f8c5be1e5ebec7d5bd14f71427d1e84f3dd0314c0f7b2291e5b200ac8c7c3b925846040516113c191815260200190565b60405180910390a350505050565b6113d76117e3565b6106ed838383611a9d565b6113ec8282610957565b6108a75760405163e2517d3f60e01b81526001600160a01b0382166004820152602481018390526044016109e6565b5f65ffffffffffff82111561144d576040516306dfcc6560e41b815260306004820152602481018390526044016109e6565b5090565b5f6001821161145e575090565b816001600160801b82106114775760809190911c9060401b5b6801000000000000000082106114925760409190911c9060201b5b64010000000082106114a95760209190911c9060101b5b6201000082106114be5760109190911c9060081b5b61010082106114d25760089190911c9060041b5b601082106114e55760049190911c9060021b5b600482106114f15760011b5b600302600190811c9081858161150957611509612283565b048201901c9050600181858161152157611521612283565b048201901c9050600181858161153957611539612283565b048201901c9050600181858161155157611551612283565b048201901c9050600181858161156957611569612283565b048201901c9050600181858161158157611581612283565b048201901c90506115a081858161159a5761159a612283565b04821190565b90039392505050565b5f5b81831015611600575f6115be8484611b03565b5f8781526020902090915065ffffffffffff86169082015465ffffffffffff1611156115ec578092506115fa565b6115f7816001612270565b93505b506115ab565b509392505050565b600c5460ff1661162b57604051638dfc202b60e01b815260040160405180910390fd5b565b6001600160a01b0381165f908152602081905260408120546105b2565b816001600160a01b0316836001600160a01b03161415801561166b57505f81115b156106ed576001600160a01b03831615611712576001600160a01b0383165f90815260096020526040812081906116ad90611b1d6116a886611b28565b611b5b565b6001600160d01b031691506001600160d01b03169150846001600160a01b03167fdec2bacdd2f05b59de34da9b523dff8be42e5e38e818c82fdb0bae774387a7248383604051611707929190918252602082015260400190565b60405180910390a250505b6001600160a01b038216156106ed576001600160a01b0382165f908152600960205260408120819061174a90611b936116a886611b28565b6001600160d01b031691506001600160d01b03169150836001600160a01b03167fdec2bacdd2f05b59de34da9b523dff8be42e5e38e818c82fdb0bae774387a72483836040516117a4929190918252602082015260400190565b60405180910390a25050505050565b5f63ffffffff82111561144d576040516306dfcc6560e41b815260206004820152602481018390526044016109e6565b600c5460ff161561162b5760405163d93c066560e01b815260040160405180910390fd5b606060ff83146118215761181a83611b9e565b90506105b2565b81805461182d90612211565b80601f016020809104026020016040519081016040528092919081815260200182805461185990612211565b80156118a45780601f1061187b576101008083540402835291602001916118a4565b820191905f5260205f20905b81548152906001019060200180831161188757829003601f168201915b505050505090506105b2565b5f80807f7fffffffffffffffffffffffffffffff5d576e7357a4501ddfe92f46681b20a08411156118e957505f9150600390508261196e565b604080515f808252602082018084528a905260ff891692820192909252606081018790526080810186905260019060a0016020604051602081039080840390855afa15801561193a573d5f803e3d5ffd5b5050604051601f1901519150506001600160a01b03811661196557505f92506001915082905061196e565b92505f91508190505b9450945094915050565b5f82600381111561198b5761198b612297565b03611994575050565b60018260038111156119a8576119a8612297565b036119c65760405163f645eedf60e01b815260040160405180910390fd5b60028260038111156119da576119da612297565b036119fb5760405163fce698f760e01b8152600481018290526024016109e6565b6003826003811115611a0f57611a0f612297565b036108a7576040516335e2f38360e21b8152600481018290526024016109e6565b604080518082019091525f8082526020820152825f018263ffffffff1681548110611a5d57611a5d6122ab565b5f9182526020918290206040805180820190915291015465ffffffffffff81168252600160301b90046001600160d01b0316918101919091529392505050565b611aa8838383611bdb565b6001600160a01b038316611af8575f611ac060025490565b90506001600160d01b0380821115611af557604051630e58ae9360e11b815260048101839052602481018290526044016109e6565b50505b6106ed838383611d01565b5f611b1160028484186122bf565b610bfe90848416612270565b5f610bfe82846122de565b5f6001600160d01b0382111561144d576040516306dfcc6560e41b815260d06004820152602481018390526044016109e6565b5f80611b86611b68610981565b611b7e611b74886111e8565b868863ffffffff16565b879190611d76565b915091505b935093915050565b5f610bfe8284612305565b60605f611baa83611d83565b6040805160208082528183019092529192505f91906020820181803683375050509182525060208101929092525090565b6001600160a01b038316611c05578060025f828254611bfa9190612270565b90915550611c759050565b6001600160a01b0383165f9081526020819052604090205481811015611c575760405163391434e360e21b81526001600160a01b038516600482015260248101829052604481018390526064016109e6565b6001600160a01b0384165f9081526020819052604090209082900390555b6001600160a01b038216611c9157600280548290039055611caf565b6001600160a01b0382165f9081526020819052604090208054820190555b816001600160a01b0316836001600160a01b03167fddf252ad1be2c89b69c2b068fc378daa952ba7f163c4a11628f55a4df523b3ef83604051611cf491815260200190565b60405180910390a3505050565b6001600160a01b038316611d2357611d20600a611b936116a884611b28565b50505b6001600160a01b038216611d4557611d42600a611b1d6116a884611b28565b50505b6001600160a01b038381165f908152600860205260408082205485841683529120546106ed9291821691168361164a565b5f80611b86858585611daa565b5f60ff8216601f8111156105b257604051632cd44ac360e21b815260040160405180910390fd5b82545f9081908015611ea0575f611dc687610fe260018561225d565b805490915065ffffffffffff80821691600160301b90046001600160d01b0316908816821115611e0957604051632520601d60e01b815260040160405180910390fd5b8765ffffffffffff168265ffffffffffff1603611e4257825465ffffffffffff16600160301b6001600160d01b03891602178355611e92565b6040805180820190915265ffffffffffff808a1682526001600160d01b03808a1660208085019182528d54600181018f555f8f81529190912094519151909216600160301b029216919091179101555b9450859350611b8b92505050565b50506040805180820190915265ffffffffffff80851682526001600160d01b0380851660208085019182528854600181018a555f8a815291822095519251909316600160301b029190931617920191909155905081611b8b565b5f60208284031215611f0a575f80fd5b81356001600160e01b031981168114610bfe575f80fd5b5f81518084525f5b81811015611f4557602081850181015186830182015201611f29565b505f602082860101526020601f19601f83011685010191505092915050565b602081525f610bfe6020830184611f21565b80356001600160a01b0381168114611f8c575f80fd5b919050565b5f8060408385031215611fa2575f80fd5b611fab83611f76565b946020939093013593505050565b5f805f60608486031215611fcb575f80fd5b611fd484611f76565b9250611fe260208501611f76565b9150604084013590509250925092565b5f60208284031215612002575f80fd5b5035919050565b5f806040838503121561201a575f80fd5b8235915061202a60208401611f76565b90509250929050565b5f60208284031215612043575f80fd5b610bfe82611f76565b60ff60f81b881681525f602060e0602084015261206c60e084018a611f21565b838103604085015261207e818a611f21565b606085018990526001600160a01b038816608086015260a0850187905284810360c0860152855180825260208088019350909101905f5b818110156120d1578351835292840192918401916001016120b5565b50909c9b505050505050505050505050565b803560ff81168114611f8c575f80fd5b5f805f805f8060c08789031215612108575f80fd5b61211187611f76565b9550602087013594506040870135935061212d606088016120e3565b92506080870135915060a087013590509295509295509295565b5f805f805f805f60e0888a03121561215d575f80fd5b61216688611f76565b965061217460208901611f76565b95506040880135945060608801359350612190608089016120e3565b925060a0880135915060c0880135905092959891949750929550565b5f80604083850312156121bd575f80fd5b6121c683611f76565b915061202a60208401611f76565b5f80604083850312156121e5575f80fd5b6121ee83611f76565b9150602083013563ffffffff81168114612206575f80fd5b809150509250929050565b600181811c9082168061222557607f821691505b60208210810361224357634e487b7160e01b5f52602260045260245ffd5b50919050565b634e487b7160e01b5f52601160045260245ffd5b818103818111156105b2576105b2612249565b808201808211156105b2576105b2612249565b634e487b7160e01b5f52601260045260245ffd5b634e487b7160e01b5f52602160045260245ffd5b634e487b7160e01b5f52603260045260245ffd5b5f826122d957634e487b7160e01b5f52601260045260245ffd5b500490565b6001600160d01b038281168282160390808211156122fe576122fe612249565b5092915050565b6001600160d01b038181168382160190808211156122fe576122fe61224956fea264697066735822122083aee0d658f1527275b60fbdc7b83ba30cd0138df89153b76345c15ea94e26a064736f6c6343000818003360806040526040516103f03803806103f08339810160408190526100229161025e565b61002c8282610033565b5050610341565b61003c82610091565b6040516001600160a01b038316907fbc7cd75a20ee27fd9adebab32041f755214dbc6bffa90cc0225b39da2e5c2d3b905f90a280511561008557610080828261010c565b505050565b61008d61017f565b5050565b806001600160a01b03163b5f036100cb57604051634c9c8ce360e01b81526001600160a01b03821660048201526024015b60405180910390fd5b7f360894a13ba1a3210667c828492db98dca3e2076cc3735a920a3ca505d382bbc80546001600160a01b0319166001600160a01b0392909216919091179055565b60605f80846001600160a01b0316846040516101289190610326565b5f60405180830381855af49150503d805f8114610160576040519150601f19603f3d011682016040523d82523d5f602084013e610165565b606091505b5090925090506101768583836101a0565b95945050505050565b341561019e5760405163b398979f60e01b815260040160405180910390fd5b565b6060826101b5576101b0826101ff565b6101f8565b81511580156101cc57506001600160a01b0384163b155b156101f557604051639996b31560e01b81526001600160a01b03851660048201526024016100c2565b50805b9392505050565b80511561020f5780518082602001fd5b60405163d6bda27560e01b815260040160405180910390fd5b634e487b7160e01b5f52604160045260245ffd5b5f5b8381101561025657818101518382015260200161023e565b50505f910152565b5f806040838503121561026f575f80fd5b82516001600160a01b0381168114610285575f80fd5b60208401519092506001600160401b03808211156102a1575f80fd5b818501915085601f8301126102b4575f80fd5b8151818111156102c6576102c6610228565b604051601f8201601f19908116603f011681019083821181831017156102ee576102ee610228565b81604052828152886020848701011115610306575f80fd5b61031783602083016020880161023c565b80955050505050509250929050565b5f825161033781846020870161023c565b9190910192915050565b60a38061034d5f395ff3fe6080604052600a600c565b005b60186014601a565b6050565b565b5f604b7f360894a13ba1a3210667c828492db98dca3e2076cc3735a920a3ca505d382bbc546001600160a01b031690565b905090565b365f80375f80365f845af43d5f803e8080156069573d5ff35b3d5ffdfea26469706673582212203731cd3365294fb236b530006c3fa21c11716509c3bb93bd29a5f932217e728d64736f6c6343000818003360c060405234801562000010575f80fd5b5060405162001c9d38038062001c9d8339810160408190526200003391620001df565b806040518060400160405280600a8152602001690476f6c64414d4d204c560b41b81525060405180604001604052806004815260200163047564c560e41b8152508160039081620000859190620002c4565b506004620000948282620002c4565b50506001600555506001600160a01b038116620000ca57604051631e4fbdf760e01b81525f600482015260240160405180910390fd5b620000d58162000172565b506001600160a01b0383161580620000f457506001600160a01b038216155b806200010757506001600160a01b038116155b15620001265760405163d92e233d60e01b815260040160405180910390fd5b816001600160a01b0316836001600160a01b0316036200015957604051635c6d7b7360e01b815260040160405180910390fd5b506001600160a01b039182166080521660a05262000390565b600680546001600160a01b038381166001600160a01b0319831681179093556040519116919082907f8be0079c531659141344cd1fd0a4f28419497f9722a3daafe3b4186f6b6457e0905f90a35050565b80516001600160a01b0381168114620001da575f80fd5b919050565b5f805f60608486031215620001f2575f80fd5b620001fd84620001c3565b92506200020d60208501620001c3565b91506200021d60408501620001c3565b90509250925092565b634e487b7160e01b5f52604160045260245ffd5b600181811c908216806200024f57607f821691505b6020821081036200026e57634e487b7160e01b5f52602260045260245ffd5b50919050565b601f821115620002bf57805f5260205f20601f840160051c810160208510156200029b5750805b601f840160051c820191505b81811015620002bc575f8155600101620002a7565b50505b505050565b81516001600160401b03811115620002e057620002e062000226565b620002f881620002f184546200023a565b8462000274565b602080601f8311600181146200032e575f8415620003165750858301515b5f19600386901b1c1916600185901b17855562000388565b5f85815260208120601f198616915b828110156200035e578886015182559484019460019091019084016200033d565b50858210156200037c57878501515f19600388901b60f8161c191681555b505060018460011b0185555b505050505050565b60805160a05161189e620003ff5f395f81816102fe015281816105e1015281816107bc0152818161082401528181610ace0152610cbc01525f81816101d3015281816105ac01528181610614015281816107f101528181610a9901528181610c880152610d4f015261189e5ff3fe608060405234801561000f575f80fd5b506004361061016d575f3560e01c8063715018a6116100d9578063c2f9506c11610093578063e0ab07721161006e578063e0ab077214610358578063e39b0eb514610386578063f140a35a14610399578063f2fde38b146103ac575f80fd5b8063c2f9506c146102e6578063d21220a7146102f9578063dd62ed3e14610320575f80fd5b8063715018a6146102975780637cfaa0601461029f5780638456cb59146102b25780638da5cb5b146102ba57806395d89b41146102cb578063a9059cbb146102d3575f80fd5b8063313ce5671161012a578063313ce567146102325780633f4ba83a14610241578063443cb4bc1461024b5780635a76f25e146102545780635c975abb1461025d57806370a082311461026f575f80fd5b806306fdde03146101715780630902f1ac1461018f578063095ea7b3146101ab5780630dfe1681146101ce57806318160ddd1461020d57806323b872dd1461021f575b5f80fd5b6101796103bf565b60405161018691906115c6565b60405180910390f35b6007546008545b60408051928352602083019190915201610186565b6101be6101b936600461162d565b61044f565b6040519015158152602001610186565b6101f57f000000000000000000000000000000000000000000000000000000000000000081565b6040516001600160a01b039091168152602001610186565b6002545b604051908152602001610186565b6101be61022d366004611655565b610468565b60405160128152602001610186565b61024961048d565b005b61021160075481565b61021160085481565b600654600160a01b900460ff166101be565b61021161027d36600461168e565b6001600160a01b03165f9081526020819052604090205490565b61024961049f565b6102116102ad3660046116a7565b6104b0565b610249610694565b6006546001600160a01b03166101f5565b6101796106a4565b6101be6102e136600461162d565b6106b3565b6102116102f43660046116a7565b6106c0565b6101f57f000000000000000000000000000000000000000000000000000000000000000081565b61021161032e3660046116d9565b6001600160a01b039182165f90815260016020908152604080832093909416825291909152205490565b61036b61036636600461170a565b610890565b60408051938452602084019290925290820152606001610186565b61019661039436600461174f565b610b51565b6102116103a736600461178b565b610d3c565b6102496103ba36600461168e565b610da0565b6060600380546103ce906117ac565b80601f01602080910402602001604051908101604052809291908181526020018280546103fa906117ac565b80156104455780601f1061041c57610100808354040283529160200191610445565b820191905f5260205f20905b81548152906001019060200180831161042857829003601f168201915b5050505050905090565b5f3361045c818585610de2565b60019150505b92915050565b5f33610475858285610df4565b610480858585610e70565b60019150505b9392505050565b610495610ecd565b61049d610efa565b565b6104a7610ecd565b61049d5f610f4f565b5f6104b9610fa0565b6104c1610fca565b835f036104e157604051631f2a200560e01b815260040160405180910390fd5b6001600160a01b0382166105085760405163d92e233d60e01b815260040160405180910390fd5b600754600854811580610519575080155b156105375760405163bb55fd2760e01b815260040160405180910390fd5b610542868383610ff5565b92508483101561056557604051638199f5f360e01b815260040160405180910390fd5b8083106105855760405163bb55fd2760e01b815260040160405180910390fd5b61058f86836117f8565b60075561059c838261180b565b6008556105d46001600160a01b037f00000000000000000000000000000000000000000000000000000000000000001633308961108a565b6106086001600160a01b037f00000000000000000000000000000000000000000000000000000000000000001685856110f1565b836001600160a01b03167f00000000000000000000000000000000000000000000000000000000000000006001600160a01b0316336001600160a01b03167fb39c9bc43f811e1a7ce159c5f147458fdb80266bf23c17322013316e27e086d08987604051610680929190918252602082015260400190565b60405180910390a450506104866001600555565b61069c610ecd565b61049d611122565b6060600480546103ce906117ac565b5f3361045c818585610e70565b5f6106c9610fa0565b6106d1610fca565b835f036106f157604051631f2a200560e01b815260040160405180910390fd5b6001600160a01b0382166107185760405163d92e233d60e01b815260040160405180910390fd5b600754600854811580610729575080155b156107475760405163bb55fd2760e01b815260040160405180910390fd5b610752868284610ff5565b92508483101561077557604051638199f5f360e01b815260040160405180910390fd5b8183106107955760405163bb55fd2760e01b815260040160405180910390fd5b61079f86826117f8565b6008556107ac838361180b565b6007556107e46001600160a01b037f00000000000000000000000000000000000000000000000000000000000000001633308961108a565b6108186001600160a01b037f00000000000000000000000000000000000000000000000000000000000000001685856110f1565b836001600160a01b03167f00000000000000000000000000000000000000000000000000000000000000006001600160a01b0316336001600160a01b03167fb39c9bc43f811e1a7ce159c5f147458fdb80266bf23c17322013316e27e086d08987604051610680929190918252602082015260400190565b5f805f61089b610fa0565b6108a3610fca565b8715806108ae575086155b156108cc57604051631f2a200560e01b815260040160405180910390fd5b6001600160a01b0384166108f35760405163d92e233d60e01b815260040160405180910390fd5b6007546008545f61090360025490565b9050805f03610946578a95508994506103e8610927610922878961181e565b611165565b610931919061180b565b935061094161dead6103e86112bd565b610a06565b5f83610952848e61181e565b61095c9190611849565b90508a8111610991578881101561098657604051638199f5f360e01b815260040160405180910390fd5b8b96508095506109d0565b5f8361099d868e61181e565b6109a79190611849565b90508a8110156109ca57604051638199f5f360e01b815260040160405180910390fd5b96508a95505b610a02846109de848a61181e565b6109e89190611849565b846109f3858a61181e565b6109fd9190611849565b6112f5565b9450505b835f03610a2657604051633999656760e01b815260040160405180910390fd5b88861015610a4757604051638199f5f360e01b815260040160405180910390fd5b87851015610a6857604051638199f5f360e01b815260040160405180910390fd5b610a7286846117f8565b600755610a7f85836117f8565b600855610a8c87856112bd565b610ac16001600160a01b037f00000000000000000000000000000000000000000000000000000000000000001633308961108a565b610af66001600160a01b037f00000000000000000000000000000000000000000000000000000000000000001633308861108a565b604080518781526020810187905290810185905233907f64b83944e79c3ce8d4c297411de637c3e102d064677aac0c163976ebdcd6f50e9060600160405180910390a2505050610b466001600555565b955095509592505050565b5f80610b5b610fa0565b610b63610fca565b855f03610b8357604051631f2a200560e01b815260040160405180910390fd5b6001600160a01b038316610baa5760405163d92e233d60e01b815260040160405180910390fd5b5f610bb460025490565b6007546008549192509082610bc9838b61181e565b610bd39190611849565b945082610be0828b61181e565b610bea9190611849565b9350841580610bf7575083155b15610c155760405163bb55fd2760e01b815260040160405180910390fd5b87851015610c3657604051638199f5f360e01b815260040160405180910390fd5b86841015610c5757604051638199f5f360e01b815260040160405180910390fd5b610c61858361180b565b600755610c6e848261180b565b600855610c7b338a611304565b610caf6001600160a01b037f00000000000000000000000000000000000000000000000000000000000000001687876110f1565b610ce36001600160a01b037f00000000000000000000000000000000000000000000000000000000000000001687866110f1565b60408051868152602081018690529081018a905233907f1dc8bb69df2b8e91fbdcbfcf93d951b3f0000f085a95fe3f7946d6161439245d9060600160405180910390a2505050610d336001600555565b94509492505050565b6007546008545f91906001600160a01b037f0000000000000000000000000000000000000000000000000000000000000000811690851603610d8c57610d83858383610ff5565b92505050610462565b610d97858284610ff5565b95945050505050565b610da8610ecd565b6001600160a01b038116610dd657604051631e4fbdf760e01b81525f60048201526024015b60405180910390fd5b610ddf81610f4f565b50565b610def8383836001611338565b505050565b6001600160a01b038381165f908152600160209081526040808320938616835292905220545f19811015610e6a5781811015610e5c57604051637dc7a0d960e11b81526001600160a01b03841660048201526024810182905260448101839052606401610dcd565b610e6a84848484035f611338565b50505050565b6001600160a01b038316610e9957604051634b637e8f60e11b81525f6004820152602401610dcd565b6001600160a01b038216610ec25760405163ec442f0560e01b81525f6004820152602401610dcd565b610def83838361140a565b6006546001600160a01b0316331461049d5760405163118cdaa760e01b8152336004820152602401610dcd565b610f02611530565b6006805460ff60a01b191690557f5db9ee0a495bf2e6ff9c91a7834c1ba4fdd244a5e8aa4e537bd38aeae4b073aa335b6040516001600160a01b03909116815260200160405180910390a1565b600680546001600160a01b038381166001600160a01b0319831681179093556040519116919082907f8be0079c531659141344cd1fd0a4f28419497f9722a3daafe3b4186f6b6457e0905f90a35050565b600260055403610fc357604051633ee5aeb560e01b815260040160405180910390fd5b6002600555565b600654600160a01b900460ff161561049d5760405163d93c066560e01b815260040160405180910390fd5b5f821580611001575081155b1561101f5760405163bb55fd2760e01b815260040160405180910390fd5b835f0361103f57604051631f2a200560e01b815260040160405180910390fd5b5f61104c6103e58661181e565b90505f611059848361181e565b90505f826110696103e88861181e565b61107391906117f8565b905061107f8183611849565b979650505050505050565b6040516001600160a01b038481166024830152838116604483015260648201839052610e6a9186918216906323b872dd906084015b604051602081830303815290604052915060e01b6020820180516001600160e01b03838183161783525050505061155a565b6040516001600160a01b03838116602483015260448201839052610def91859182169063a9059cbb906064016110bf565b61112a610fca565b6006805460ff60a01b1916600160a01b1790557f62e78cea01bee320cd4e420270b5ea74000d11b0c9f74754ebdbfc544b05a258610f323390565b5f60018211611172575090565b816001600160801b821061118b5760809190911c9060401b5b6801000000000000000082106111a65760409190911c9060201b5b64010000000082106111bd5760209190911c9060101b5b6201000082106111d25760109190911c9060081b5b61010082106111e65760089190911c9060041b5b601082106111f95760049190911c9060021b5b600482106112055760011b5b600302600190811c9081858161121d5761121d611835565b048201901c9050600181858161123557611235611835565b048201901c9050600181858161124d5761124d611835565b048201901c9050600181858161126557611265611835565b048201901c9050600181858161127d5761127d611835565b048201901c9050600181858161129557611295611835565b048201901c90506112b48185816112ae576112ae611835565b04821190565b90039392505050565b6001600160a01b0382166112e65760405163ec442f0560e01b81525f6004820152602401610dcd565b6112f15f838361140a565b5050565b5f828218828410028218610486565b6001600160a01b03821661132d57604051634b637e8f60e11b81525f6004820152602401610dcd565b6112f1825f8361140a565b6001600160a01b0384166113615760405163e602df0560e01b81525f6004820152602401610dcd565b6001600160a01b03831661138a57604051634a1406b160e11b81525f6004820152602401610dcd565b6001600160a01b038085165f9081526001602090815260408083209387168352929052208290558015610e6a57826001600160a01b0316846001600160a01b03167f8c5be1e5ebec7d5bd14f71427d1e84f3dd0314c0f7b2291e5b200ac8c7c3b925846040516113fc91815260200190565b60405180910390a350505050565b6001600160a01b038316611434578060025f82825461142991906117f8565b909155506114a49050565b6001600160a01b0383165f90815260208190526040902054818110156114865760405163391434e360e21b81526001600160a01b03851660048201526024810182905260448101839052606401610dcd565b6001600160a01b0384165f9081526020819052604090209082900390555b6001600160a01b0382166114c0576002805482900390556114de565b6001600160a01b0382165f9081526020819052604090208054820190555b816001600160a01b0316836001600160a01b03167fddf252ad1be2c89b69c2b068fc378daa952ba7f163c4a11628f55a4df523b3ef8360405161152391815260200190565b60405180910390a3505050565b600654600160a01b900460ff1661049d57604051638dfc202b60e01b815260040160405180910390fd5b5f8060205f8451602086015f885af180611579576040513d5f823e3d81fd5b50505f513d9150811561159057806001141561159d565b6001600160a01b0384163b155b15610e6a57604051635274afe760e01b81526001600160a01b0385166004820152602401610dcd565b5f602080835283518060208501525f5b818110156115f2578581018301518582016040015282016115d6565b505f604082860101526040601f19601f8301168501019250505092915050565b80356001600160a01b0381168114611628575f80fd5b919050565b5f806040838503121561163e575f80fd5b61164783611612565b946020939093013593505050565b5f805f60608486031215611667575f80fd5b61167084611612565b925061167e60208501611612565b9150604084013590509250925092565b5f6020828403121561169e575f80fd5b61048682611612565b5f805f606084860312156116b9575f80fd5b83359250602084013591506116d060408501611612565b90509250925092565b5f80604083850312156116ea575f80fd5b6116f383611612565b915061170160208401611612565b90509250929050565b5f805f805f60a0868803121561171e575f80fd5b8535945060208601359350604086013592506060860135915061174360808701611612565b90509295509295909350565b5f805f8060808587031215611762575f80fd5b84359350602085013592506040850135915061178060608601611612565b905092959194509250565b5f806040838503121561179c575f80fd5b8235915061170160208401611612565b600181811c908216806117c057607f821691505b6020821081036117de57634e487b7160e01b5f52602260045260245ffd5b50919050565b634e487b7160e01b5f52601160045260245ffd5b80820180821115610462576104626117e4565b81810381811115610462576104626117e4565b8082028115828204841417610462576104626117e4565b634e487b7160e01b5f52601260045260245ffd5b5f8261186357634e487b7160e01b5f52601260045260245ffd5b50049056fea264697066735822122094475f2e0083f4ba8f7bb896ee0ccd1375e7830d12d1055ba45fc3fc07e398e264736f6c63430008180033fc425f2263d0df187444b70e47283d622c70181c5baebb1306a01edba1ce184cb10e2d527612073b26eecdfd717e6a320cf44b4afac2b0732d9fcbe2b7fa0cf6a2646970667358221220050719d959efe7a6a0c3ce0c61b74dee3f7bb41ae19c26fadc9ef716f4164b0364736f6c63430008180033","linkReferences":{}},"methodIdentifiers":{"DEFAULT_ADMIN_ROLE()":"a217fddf","DEPLOYER_ROLE()":"ecd00261","deployAMM(address,address,address)":"665e4b97","deployGoldToken(address)":"19350f7d","deployGoldTokenDeterministic(address,bytes32)":"a5f8a09c","deployGovernanceToken(address)":"3e6a5276","deployGovernanceTokenDeterministic(address,bytes32)":"25e7e92d","deployNFT(address)":"d35006fe","deployNFTDeterministic(address,bytes32)":"6cb02d5c","deployVaultProxy(address,address,address)":"2f3e0672","deployVaultProxyDeterministic(address,address,address,bytes32)":"bcf1ff4d","deployedAMMs(uint256)":"a8f139d3","deployedAMMsCount()":"9a55e3cd","deployedNFTs(uint256)":"13df8223","deployedNFTsCount()":"666faae1","deployedTokens(uint256)":"ec81aadb","deployedTokensCount()":"f69ae1be","deployedVaults(uint256)":"0ac214df","deployedVaultsCount()":"e7be5f97","getRoleAdmin(bytes32)":"248a9ca3","grantRole(bytes32,address)":"2f2ff15d","hasRole(bytes32,address)":"91d14854","predictGoldTokenAddress(address,bytes32)":"e2112f0c","predictNFTAddress(address,bytes32)":"0324677f","predictVaultProxyAddress(address,address,address,bytes32)":"cf768d04","renounceRole(bytes32,address)":"36568abe","revokeRole(bytes32,address)":"d547741f","supportsInterface(bytes4)":"01ffc9a7"},"id":68}