{"abi":[{"type":"constructor","inputs":[],"stateMutability":"nonpayable"},{"type":"function","name":"DEFAULT_ADMIN_ROLE","inputs":[],"outputs":[{"name":"","type":"bytes32","internalType":"bytes32"}],"stateMutability":"view"},{"type":"function","name":"PAUSER_ROLE","inputs":[],"outputs":[{"name":"","type":"bytes32","internalType":"bytes32"}],"stateMutability":"view"},{"type":"function","name":"UPGRADER_ROLE","inputs":[],"outputs":[{"name":"","type":"bytes32","internalType":"bytes32"}],"stateMutability":"view"},{"type":"function","name":"UPGRADE_INTERFACE_VERSION","inputs":[],"outputs":[{"name":"","type":"string","internalType":"string"}],"stateMutability":"view"},{"type":"function","name":"allowance","inputs":[{"name":"owner","type":"address","internalType":"address"},{"name":"spender","type":"address","internalType":"address"}],"outputs":[{"name":"","type":"uint256","internalType":"uint256"}],"stateMutability":"view"},{"type":"function","name":"approve","inputs":[{"name":"spender","type":"address","internalType":"address"},{"name":"value","type":"uint256","internalType":"uint256"}],"outputs":[{"name":"","type":"bool","internalType":"bool"}],"stateMutability":"nonpayable"},{"type":"function","name":"asset","inputs":[],"outputs":[{"name":"","type":"address","internalType":"address"}],"stateMutability":"view"},{"type":"function","name":"balanceOf","inputs":[{"name":"account","type":"address","internalType":"address"}],"outputs":[{"name":"","type":"uint256","internalType":"uint256"}],"stateMutability":"view"},{"type":"function","name":"convertToAssets","inputs":[{"name":"shares","type":"uint256","internalType":"uint256"}],"outputs":[{"name":"","type":"uint256","internalType":"uint256"}],"stateMutability":"view"},{"type":"function","name":"convertToShares","inputs":[{"name":"assets","type":"uint256","internalType":"uint256"}],"outputs":[{"name":"","type":"uint256","internalType":"uint256"}],"stateMutability":"view"},{"type":"function","name":"decimals","inputs":[],"outputs":[{"name":"","type":"uint8","internalType":"uint8"}],"stateMutability":"view"},{"type":"function","name":"deposit","inputs":[{"name":"assets","type":"uint256","internalType":"uint256"},{"name":"receiver","type":"address","internalType":"address"}],"outputs":[{"name":"","type":"uint256","internalType":"uint256"}],"stateMutability":"nonpayable"},{"type":"function","name":"getRoleAdmin","inputs":[{"name":"role","type":"bytes32","internalType":"bytes32"}],"outputs":[{"name":"","type":"bytes32","internalType":"bytes32"}],"stateMutability":"view"},{"type":"function","name":"grantRole","inputs":[{"name":"role","type":"bytes32","internalType":"bytes32"},{"name":"account","type":"address","internalType":"address"}],"outputs":[],"stateMutability":"nonpayable"},{"type":"function","name":"hasRole","inputs":[{"name":"role","type":"bytes32","internalType":"bytes32"},{"name":"account","type":"address","internalType":"address"}],"outputs":[{"name":"","type":"bool","internalType":"bool"}],"stateMutability":"view"},{"type":"function","name":"initialize","inputs":[{"name":"asset_","type":"address","internalType":"address"},{"name":"admin","type":"address","internalType":"address"}],"outputs":[],"stateMutability":"nonpayable"},{"type":"function","name":"maxDeposit","inputs":[{"name":"","type":"address","internalType":"address"}],"outputs":[{"name":"","type":"uint256","internalType":"uint256"}],"stateMutability":"view"},{"type":"function","name":"maxMint","inputs":[{"name":"","type":"address","internalType":"address"}],"outputs":[{"name":"","type":"uint256","internalType":"uint256"}],"stateMutability":"view"},{"type":"function","name":"maxRedeem","inputs":[{"name":"owner","type":"address","internalType":"address"}],"outputs":[{"name":"","type":"uint256","internalType":"uint256"}],"stateMutability":"view"},{"type":"function","name":"maxWithdraw","inputs":[{"name":"owner","type":"address","internalType":"address"}],"outputs":[{"name":"","type":"uint256","internalType":"uint256"}],"stateMutability":"view"},{"type":"function","name":"mint","inputs":[{"name":"shares","type":"uint256","internalType":"uint256"},{"name":"receiver","type":"address","internalType":"address"}],"outputs":[{"name":"","type":"uint256","internalType":"uint256"}],"stateMutability":"nonpayable"},{"type":"function","name":"name","inputs":[],"outputs":[{"name":"","type":"string","internalType":"string"}],"stateMutability":"view"},{"type":"function","name":"pause","inputs":[],"outputs":[],"stateMutability":"nonpayable"},{"type":"function","name":"paused","inputs":[],"outputs":[{"name":"","type":"bool","internalType":"bool"}],"stateMutability":"view"},{"type":"function","name":"previewDeposit","inputs":[{"name":"assets","type":"uint256","internalType":"uint256"}],"outputs":[{"name":"","type":"uint256","internalType":"uint256"}],"stateMutability":"view"},{"type":"function","name":"previewMint","inputs":[{"name":"shares","type":"uint256","internalType":"uint256"}],"outputs":[{"name":"","type":"uint256","internalType":"uint256"}],"stateMutability":"view"},{"type":"function","name":"previewRedeem","inputs":[{"name":"shares","type":"uint256","internalType":"uint256"}],"outputs":[{"name":"","type":"uint256","internalType":"uint256"}],"stateMutability":"view"},{"type":"function","name":"previewWithdraw","inputs":[{"name":"assets","type":"uint256","internalType":"uint256"}],"outputs":[{"name":"","type":"uint256","internalType":"uint256"}],"stateMutability":"view"},{"type":"function","name":"proxiableUUID","inputs":[],"outputs":[{"name":"","type":"bytes32","internalType":"bytes32"}],"stateMutability":"view"},{"type":"function","name":"redeem","inputs":[{"name":"shares","type":"uint256","internalType":"uint256"},{"name":"receiver","type":"address","internalType":"address"},{"name":"owner","type":"address","internalType":"address"}],"outputs":[{"name":"","type":"uint256","internalType":"uint256"}],"stateMutability":"nonpayable"},{"type":"function","name":"renounceRole","inputs":[{"name":"role","type":"bytes32","internalType":"bytes32"},{"name":"callerConfirmation","type":"address","internalType":"address"}],"outputs":[],"stateMutability":"nonpayable"},{"type":"function","name":"revokeRole","inputs":[{"name":"role","type":"bytes32","internalType":"bytes32"},{"name":"account","type":"address","internalType":"address"}],"outputs":[],"stateMutability":"nonpayable"},{"type":"function","name":"supportsInterface","inputs":[{"name":"interfaceId","type":"bytes4","internalType":"bytes4"}],"outputs":[{"name":"","type":"bool","internalType":"bool"}],"stateMutability":"view"},{"type":"function","name":"symbol","inputs":[],"outputs":[{"name":"","type":"string","internalType":"string"}],"stateMutability":"view"},{"type":"function","name":"totalAssets","inputs":[],"outputs":[{"name":"","type":"uint256","internalType":"uint256"}],"stateMutability":"view"},{"type":"function","name":"totalSupply","inputs":[],"outputs":[{"name":"","type":"uint256","internalType":"uint256"}],"stateMutability":"view"},{"type":"function","name":"transfer","inputs":[{"name":"to","type":"address","internalType":"address"},{"name":"value","type":"uint256","internalType":"uint256"}],"outputs":[{"name":"","type":"bool","internalType":"bool"}],"stateMutability":"nonpayable"},{"type":"function","name":"transferFrom","inputs":[{"name":"from","type":"address","internalType":"address"},{"name":"to","type":"address","internalType":"address"},{"name":"value","type":"uint256","internalType":"uint256"}],"outputs":[{"name":"","type":"bool","internalType":"bool"}],"stateMutability":"nonpayable"},{"type":"function","name":"unpause","inputs":[],"outputs":[],"stateMutability":"nonpayable"},{"type":"function","name":"upgradeToAndCall","inputs":[{"name":"newImplementation","type":"address","internalType":"address"},{"name":"data","type":"bytes","internalType":"bytes"}],"outputs":[],"stateMutability":"payable"},{"type":"function","name":"version","inputs":[],"outputs":[{"name":"","type":"string","internalType":"string"}],"stateMutability":"pure"},{"type":"function","name":"withdraw","inputs":[{"name":"assets","type":"uint256","internalType":"uint256"},{"name":"receiver","type":"address","internalType":"address"},{"name":"owner","type":"address","internalType":"address"}],"outputs":[{"name":"","type":"uint256","internalType":"uint256"}],"stateMutability":"nonpayable"},{"type":"event","name":"Approval","inputs":[{"name":"owner","type":"address","indexed":true,"internalType":"address"},{"name":"spender","type":"address","indexed":true,"internalType":"address"},{"name":"value","type":"uint256","indexed":false,"internalType":"uint256"}],"anonymous":false},{"type":"event","name":"Deposit","inputs":[{"name":"sender","type":"address","indexed":true,"internalType":"address"},{"name":"owner","type":"address","indexed":true,"internalType":"address"},{"name":"assets","type":"uint256","indexed":false,"internalType":"uint256"},{"name":"shares","type":"uint256","indexed":false,"internalType":"uint256"}],"anonymous":false},{"type":"event","name":"Initialized","inputs":[{"name":"version","type":"uint64","indexed":false,"internalType":"uint64"}],"anonymous":false},{"type":"event","name":"Paused","inputs":[{"name":"account","type":"address","indexed":false,"internalType":"address"}],"anonymous":false},{"type":"event","name":"RoleAdminChanged","inputs":[{"name":"role","type":"bytes32","indexed":true,"internalType":"bytes32"},{"name":"previousAdminRole","type":"bytes32","indexed":true,"internalType":"bytes32"},{"name":"newAdminRole","type":"bytes32","indexed":true,"internalType":"bytes32"}],"anonymous":false},{"type":"event","name":"RoleGranted","inputs":[{"name":"role","type":"bytes32","indexed":true,"internalType":"bytes32"},{"name":"account","type":"address","indexed":true,"internalType":"address"},{"name":"sender","type":"address","indexed":true,"internalType":"address"}],"anonymous":false},{"type":"event","name":"RoleRevoked","inputs":[{"name":"role","type":"bytes32","indexed":true,"internalType":"bytes32"},{"name":"account","type":"address","indexed":true,"internalType":"address"},{"name":"sender","type":"address","indexed":true,"internalType":"address"}],"anonymous":false},{"type":"event","name":"Transfer","inputs":[{"name":"from","type":"address","indexed":true,"internalType":"address"},{"name":"to","type":"address","indexed":true,"internalType":"address"},{"name":"value","type":"uint256","indexed":false,"internalType":"uint256"}],"anonymous":false},{"type":"event","name":"Unpaused","inputs":[{"name":"account","type":"address","indexed":false,"internalType":"address"}],"anonymous":false},{"type":"event","name":"Upgraded","inputs":[{"name":"implementation","type":"address","indexed":true,"internalType":"address"}],"anonymous":false},{"type":"event","name":"VaultInitialized","inputs":[{"name":"asset","type":"address","indexed":true,"internalType":"address"},{"name":"admin","type":"address","indexed":true,"internalType":"address"}],"anonymous":false},{"type":"event","name":"Withdraw","inputs":[{"name":"sender","type":"address","indexed":true,"internalType":"address"},{"name":"receiver","type":"address","indexed":true,"internalType":"address"},{"name":"owner","type":"address","indexed":true,"internalType":"address"},{"name":"assets","type":"uint256","indexed":false,"internalType":"uint256"},{"name":"shares","type":"uint256","indexed":false,"internalType":"uint256"}],"anonymous":false},{"type":"error","name":"AccessControlBadConfirmation","inputs":[]},{"type":"error","name":"AccessControlUnauthorizedAccount","inputs":[{"name":"account","type":"address","internalType":"address"},{"name":"neededRole","type":"bytes32","internalType":"bytes32"}]},{"type":"error","name":"AddressEmptyCode","inputs":[{"name":"target","type":"address","internalType":"address"}]},{"type":"error","name":"ERC1967InvalidImplementation","inputs":[{"name":"implementation","type":"address","internalType":"address"}]},{"type":"error","name":"ERC1967NonPayable","inputs":[]},{"type":"error","name":"ERC20InsufficientAllowance","inputs":[{"name":"spender","type":"address","internalType":"address"},{"name":"allowance","type":"uint256","internalType":"uint256"},{"name":"needed","type":"uint256","internalType":"uint256"}]},{"type":"error","name":"ERC20InsufficientBalance","inputs":[{"name":"sender","type":"address","internalType":"address"},{"name":"balance","type":"uint256","internalType":"uint256"},{"name":"needed","type":"uint256","internalType":"uint256"}]},{"type":"error","name":"ERC20InvalidApprover","inputs":[{"name":"approver","type":"address","internalType":"address"}]},{"type":"error","name":"ERC20InvalidReceiver","inputs":[{"name":"receiver","type":"address","internalType":"address"}]},{"type":"error","name":"ERC20InvalidSender","inputs":[{"name":"sender","type":"address","internalType":"address"}]},{"type":"error","name":"ERC20InvalidSpender","inputs":[{"name":"spender","type":"address","internalType":"address"}]},{"type":"error","name":"ERC4626ExceededMaxDeposit","inputs":[{"name":"receiver","type":"address","internalType":"address"},{"name":"assets","type":"uint256","internalType":"uint256"},{"name":"max","type":"uint256","internalType":"uint256"}]},{"type":"error","name":"ERC4626ExceededMaxMint","inputs":[{"name":"receiver","type":"address","internalType":"address"},{"name":"shares","type":"uint256","internalType":"uint256"},{"name":"max","type":"uint256","internalType":"uint256"}]},{"type":"error","name":"ERC4626ExceededMaxRedeem","inputs":[{"name":"owner","type":"address","internalType":"address"},{"name":"shares","type":"uint256","internalType":"uint256"},{"name":"max","type":"uint256","internalType":"uint256"}]},{"type":"error","name":"ERC4626ExceededMaxWithdraw","inputs":[{"name":"owner","type":"address","internalType":"address"},{"name":"assets","type":"uint256","internalType":"uint256"},{"name":"max","type":"uint256","internalType":"uint256"}]},{"type":"error","name":"EnforcedPause","inputs":[]},{"type":"error","name":"ExpectedPause","inputs":[]},{"type":"error","name":"FailedCall","inputs":[]},{"type":"error","name":"InvalidInitialization","inputs":[]},{"type":"error","name":"NotInitializing","inputs":[]},{"type":"error","name":"ReentrancyGuardReentrantCall","inputs":[]},{"type":"error","name":"SafeERC20FailedOperation","inputs":[{"name":"token","type":"address","internalType":"address"}]},{"type":"error","name":"UUPSUnauthorizedCallContext","inputs":[]},{"type":"error","name":"UUPSUnsupportedProxiableUUID","inputs":[{"name":"slot","type":"bytes32","internalType":"bytes32"}]},{"type":"error","name":"ZeroAddress","inputs":[]}],"bytecode":{"object":"0x60a06040523060805234801562000014575f80fd5b506200001f62000025565b620000d9565b7ff0c57e16840df040f15088dc2f81fe391c3923bec73e23a9662efc9c229c6a00805468010000000000000000900460ff1615620000765760405163f92ee8a960e01b815260040160405180910390fd5b80546001600160401b0390811614620000d65780546001600160401b0319166001600160401b0390811782556040519081527fc7f505b2f371ae2175ee4913f4499e1f2633a7b5936321eed1cdaeb6115181d29060200160405180910390a15b50565b6080516125bd620001005f395f81816111c6015281816111ef015261135001526125bd5ff3fe608060405260043610610249575f3560e01c80636e553f6511610134578063b460af94116100b3578063d547741f11610078578063d547741f1461068b578063d905777e146106aa578063dd62ed3e146106c9578063e63ab1e9146106e8578063ef8b30f71461064d578063f72c0d8b14610708575f80fd5b8063b460af941461060f578063ba0876521461062e578063c63d75b614610438578063c6e6f5921461064d578063ce96cb771461066c575f80fd5b806395d89b41116100f957806395d89b411461057a578063a217fddf1461058e578063a9059cbb146105a1578063ad3cb1cc146105c0578063b3d7f6b9146105f0575f80fd5b80636e553f65146104ea57806370a08231146105095780638456cb591461052857806391d148541461053c57806394bf804d1461055b575f80fd5b8063313ce567116101cb578063485cc95511610190578063485cc955146104585780634cdad506146102c45780634f1ef2861461047757806352d1902d1461048a57806354fd4d501461049e5780635c975abb146104c7575f80fd5b8063313ce567146103b357806336568abe146103d957806338d52e0f146103f85780633f4ba83a14610424578063402d267d14610438575f80fd5b80630a28a477116102115780630a28a4771461030257806318160ddd1461032157806323b872dd14610354578063248a9ca3146103735780632f2ff15d14610392575f80fd5b806301e1d1141461024d57806301ffc9a71461027457806306fdde03146102a357806307a2d13a146102c4578063095ea7b3146102e3575b5f80fd5b348015610258575f80fd5b5061026161073b565b6040519081526020015b60405180910390f35b34801561027f575f80fd5b5061029361028e366004611f33565b6107b1565b604051901515815260200161026b565b3480156102ae575f80fd5b506102b76107e7565b60405161026b9190611f7c565b3480156102cf575f80fd5b506102616102de366004611fae565b6108a7565b3480156102ee575f80fd5b506102936102fd366004611fe0565b6108b2565b34801561030d575f80fd5b5061026161031c366004611fae565b6108c9565b34801561032c575f80fd5b507f52c63247e1f47db19d5ce0460030c497f067ca4cebf71ba98eeadabe20bace0254610261565b34801561035f575f80fd5b5061029361036e366004612008565b6108d5565b34801561037e575f80fd5b5061026161038d366004611fae565b6108fa565b34801561039d575f80fd5b506103b16103ac366004612041565b61091a565b005b3480156103be575f80fd5b506103c761093c565b60405160ff909116815260200161026b565b3480156103e4575f80fd5b506103b16103f3366004612041565b61097e565b348015610403575f80fd5b5061040c6109b6565b6040516001600160a01b03909116815260200161026b565b34801561042f575f80fd5b506103b16109e4565b348015610443575f80fd5b5061026161045236600461206b565b505f1990565b348015610463575f80fd5b506103b1610472366004612084565b610a06565b6103b16104853660046120c0565b610c39565b348015610495575f80fd5b50610261610c58565b3480156104a9575f80fd5b506040805180820190915260018152603160f81b60208201526102b7565b3480156104d2575f80fd5b505f805160206125488339815191525460ff16610293565b3480156104f5575f80fd5b50610261610504366004612041565b610c73565b348015610514575f80fd5b5061026161052336600461206b565b610ca6565b348015610533575f80fd5b506103b1610ccc565b348015610547575f80fd5b50610293610556366004612041565b610ceb565b348015610566575f80fd5b50610261610575366004612041565b610d21565b348015610585575f80fd5b506102b7610d3c565b348015610599575f80fd5b506102615f81565b3480156105ac575f80fd5b506102936105bb366004611fe0565b610d7a565b3480156105cb575f80fd5b506102b7604051806040016040528060058152602001640352e302e360dc1b81525081565b3480156105fb575f80fd5b5061026161060a366004611fae565b610d87565b34801561061a575f80fd5b5061026161062936600461217c565b610d93565b348015610639575f80fd5b5061026161064836600461217c565b610dc7565b348015610658575f80fd5b50610261610667366004611fae565b610de3565b348015610677575f80fd5b5061026161068636600461206b565b610dee565b348015610696575f80fd5b506103b16106a5366004612041565b610e01565b3480156106b5575f80fd5b506102616106c436600461206b565b610e1d565b3480156106d4575f80fd5b506102616106e3366004612084565b610e27565b3480156106f3575f80fd5b506102615f8051602061250883398151915281565b348015610713575f80fd5b506102617f189ab7a9244df0848122154315af71fe140f3db0fe014031783b0946b8c9d2e381565b5f6107446109b6565b6040516370a0823160e01b81523060048201526001600160a01b0391909116906370a0823190602401602060405180830381865afa158015610788573d5f803e3d5ffd5b505050506040513d601f19601f820116820180604052508101906107ac91906121b5565b905090565b5f6001600160e01b03198216637965db0b60e01b14806107e157506301ffc9a760e01b6001600160e01b03198316145b92915050565b7f52c63247e1f47db19d5ce0460030c497f067ca4cebf71ba98eeadabe20bace0380546060915f805160206124c883398151915291610825906121cc565b80601f0160208091040260200160405190810160405280929190818152602001828054610851906121cc565b801561089c5780601f106108735761010080835404028352916020019161089c565b820191905f5260205f20905b81548152906001019060200180831161087f57829003601f168201915b505050505091505090565b5f6107e1825f610e70565b5f336108bf818585610ec7565b5060019392505050565b5f6107e1826001610ed4565b5f336108e2858285610f22565b6108ed858585610f76565b60019150505b9392505050565b5f9081525f80516020612528833981519152602052604090206001015490565b610923826108fa565b61092c81610fd3565b6109368383610fdd565b50505050565b5f807f0773e532dfede91f04b12a73d3d2acd361424f41f76b4fb79f090161e36b4e0090505f81546109789190600160a01b900460ff16612218565b91505090565b6001600160a01b03811633146109a75760405163334bd91960e11b815260040160405180910390fd5b6109b1828261107e565b505050565b7f0773e532dfede91f04b12a73d3d2acd361424f41f76b4fb79f090161e36b4e00546001600160a01b031690565b5f805160206125088339815191526109fb81610fd3565b610a036110f7565b50565b5f610a0f611156565b805490915060ff600160401b820416159067ffffffffffffffff165f81158015610a365750825b90505f8267ffffffffffffffff166001148015610a525750303b155b905081158015610a60575080155b15610a7e5760405163f92ee8a960e01b815260040160405180910390fd5b845467ffffffffffffffff191660011785558315610aa857845460ff60401b1916600160401b1785555b6001600160a01b0387161580610ac557506001600160a01b038616155b15610ae35760405163d92e233d60e01b815260040160405180910390fd5b610b336040518060400160405280600f81526020016e476f6c645661756c7420536861726560881b815250604051806040016040528060078152602001666776534841524560c81b81525061117e565b610b3c87611190565b610b446111a1565b610b4c6111a1565b610b546111ab565b610b5c6111a1565b610b665f87610fdd565b50610b7e5f8051602061250883398151915287610fdd565b50610ba97f189ab7a9244df0848122154315af71fe140f3db0fe014031783b0946b8c9d2e387610fdd565b50856001600160a01b0316876001600160a01b03167f3a72e8ae02f203cb5415fd3bfacaad88fa2923e8b6210e8c033253cea65b605b60405160405180910390a38315610c3057845460ff60401b19168555604051600181527fc7f505b2f371ae2175ee4913f4499e1f2633a7b5936321eed1cdaeb6115181d29060200160405180910390a15b50505050505050565b610c416111bb565b610c4a8261125f565b610c548282611289565b5050565b5f610c61611345565b505f805160206124e883398151915290565b5f610c7c61138e565b610c846113c5565b610c8e83836113f5565b90506107e160015f8051602061256883398151915255565b6001600160a01b03165f9081525f805160206124c8833981519152602052604090205490565b5f80516020612508833981519152610ce381610fd3565b610a0361142b565b5f9182525f80516020612528833981519152602090815260408084206001600160a01b0393909316845291905290205460ff1690565b5f610d2a61138e565b610d326113c5565b610c8e8383611473565b7f52c63247e1f47db19d5ce0460030c497f067ca4cebf71ba98eeadabe20bace0480546060915f805160206124c883398151915291610825906121cc565b5f336108bf818585610f76565b5f6107e1826001610e70565b5f610d9c61138e565b610da46113c5565b610daf84848461148e565b90506108f360015f8051602061256883398151915255565b5f610dd061138e565b610dd86113c5565b610daf8484846114e4565b5f6107e1825f610ed4565b5f6107e1610dfb83610ca6565b5f610e70565b610e0a826108fa565b610e1381610fd3565b610936838361107e565b5f6107e182610ca6565b6001600160a01b039182165f9081527f52c63247e1f47db19d5ce0460030c497f067ca4cebf71ba98eeadabe20bace016020908152604080832093909416825291909152205490565b5f6108f3610e7c61073b565b610e87906001612231565b610e925f600a612324565b7f52c63247e1f47db19d5ce0460030c497f067ca4cebf71ba98eeadabe20bace0254610ebe9190612231565b85919085611531565b6109b18383836001611573565b5f6108f3610ee382600a612324565b7f52c63247e1f47db19d5ce0460030c497f067ca4cebf71ba98eeadabe20bace0254610f0f9190612231565b610f1761073b565b610ebe906001612231565b5f610f2d8484610e27565b90505f198110156109365781811015610f6857828183604051637dc7a0d960e11b8152600401610f5f93929190612332565b60405180910390fd5b61093684848484035f611573565b6001600160a01b038316610f9f57604051634b637e8f60e11b81525f6004820152602401610f5f565b6001600160a01b038216610fc85760405163ec442f0560e01b81525f6004820152602401610f5f565b6109b1838383611657565b610a03813361166a565b5f5f80516020612528833981519152610ff68484610ceb565b611075575f848152602082815260408083206001600160a01b03871684529091529020805460ff1916600117905561102b3390565b6001600160a01b0316836001600160a01b0316857f2f8788117e7eff1d82e926ec794901d17c78024a50270940304540a733656f0d60405160405180910390a460019150506107e1565b5f9150506107e1565b5f5f805160206125288339815191526110978484610ceb565b15611075575f848152602082815260408083206001600160a01b0387168085529252808320805460ff1916905551339287917ff6391f5c32d9c69d2a47ea670b442974b53935d1edc7fd64eb21e047a839171b9190a460019150506107e1565b6110ff6116a3565b5f80516020612548833981519152805460ff191681557f5db9ee0a495bf2e6ff9c91a7834c1ba4fdd244a5e8aa4e537bd38aeae4b073aa335b6040516001600160a01b03909116815260200160405180910390a150565b5f807ff0c57e16840df040f15088dc2f81fe391c3923bec73e23a9662efc9c229c6a006107e1565b6111866116d2565b610c5482826116f7565b6111986116d2565b610a0381611747565b6111a96116d2565b565b6111b36116d2565b6111a96117ca565b306001600160a01b037f000000000000000000000000000000000000000000000000000000000000000016148061124157507f00000000000000000000000000000000000000000000000000000000000000006001600160a01b03166112355f805160206124e8833981519152546001600160a01b031690565b6001600160a01b031614155b156111a95760405163703e46dd60e11b815260040160405180910390fd5b7f189ab7a9244df0848122154315af71fe140f3db0fe014031783b0946b8c9d2e3610c5481610fd3565b816001600160a01b03166352d1902d6040518163ffffffff1660e01b8152600401602060405180830381865afa9250505080156112e3575060408051601f3d908101601f191682019092526112e0918101906121b5565b60015b61130b57604051634c9c8ce360e01b81526001600160a01b0383166004820152602401610f5f565b5f805160206124e8833981519152811461133b57604051632a87526960e21b815260048101829052602401610f5f565b6109b183836117d2565b306001600160a01b037f000000000000000000000000000000000000000000000000000000000000000016146111a95760405163703e46dd60e11b815260040160405180910390fd5b5f805160206125688339815191528054600119016113bf57604051633ee5aeb560e01b815260040160405180910390fd5b60029055565b5f805160206125488339815191525460ff16156111a95760405163d93c066560e01b815260040160405180910390fd5b5f5f195f61140285610de3565b905061141033858784611827565b949350505050565b60015f8051602061256883398151915255565b6114336113c5565b5f80516020612548833981519152805460ff191660011781557f62e78cea01bee320cd4e420270b5ea74000d11b0c9f74754ebdbfc544b05a25833611138565b5f5f195f61148085610d87565b905061141033858388611827565b5f8061149983610dee565b9050808511156114c257828582604051633fa733bb60e21b8152600401610f5f93929190612332565b5f6114cc866108c9565b90506114db33868689856118a0565b95945050505050565b5f806114ef83610e1d565b90508085111561151857828582604051632e52afbb60e21b8152600401610f5f93929190612332565b5f611522866108a7565b90506114db338686848a6118a0565b5f61155e61153e83611947565b801561155957505f848061155457611554612353565b868809115b151590565b611569868686611973565b6114db9190612231565b5f805160206124c88339815191526001600160a01b0385166115aa5760405163e602df0560e01b81525f6004820152602401610f5f565b6001600160a01b0384166115d357604051634a1406b160e11b81525f6004820152602401610f5f565b6001600160a01b038086165f9081526001830160209081526040808320938816835292905220839055811561165057836001600160a01b0316856001600160a01b03167f8c5be1e5ebec7d5bd14f71427d1e84f3dd0314c0f7b2291e5b200ac8c7c3b9258560405161164791815260200190565b60405180910390a35b5050505050565b61165f6113c5565b6109b1838383611a23565b6116748282610ceb565b610c545760405163e2517d3f60e01b81526001600160a01b038216600482015260248101839052604401610f5f565b5f805160206125488339815191525460ff166111a957604051638dfc202b60e01b815260040160405180910390fd5b6116da611b3b565b6111a957604051631afcd79f60e31b815260040160405180910390fd5b6116ff6116d2565b5f805160206124c88339815191527f52c63247e1f47db19d5ce0460030c497f067ca4cebf71ba98eeadabe20bace0361173884826123ab565b506004810161093683826123ab565b61174f6116d2565b7f0773e532dfede91f04b12a73d3d2acd361424f41f76b4fb79f090161e36b4e005f8061177b84611b54565b915091508161178b57601261178d565b805b83546001600160a81b031916600160a01b60ff92909216919091026001600160a01b031916176001600160a01b0394909416939093179091555050565b6114186116d2565b6117db82611c2a565b6040516001600160a01b038316907fbc7cd75a20ee27fd9adebab32041f755214dbc6bffa90cc0225b39da2e5c2d3b905f90a280511561181f576109b18282611c8d565b610c54611cf6565b61183a6118326109b6565b853085611d15565b6118448382611d7c565b826001600160a01b0316846001600160a01b03167fdcbc1c05240f31ff3ad067ef1ee35ce4997762752e3a095284754544f4c709d78484604051611892929190918252602082015260400190565b60405180910390a350505050565b826001600160a01b0316856001600160a01b0316146118c4576118c4838683610f22565b6118ce8382611db0565b6118e06118d96109b6565b8584611de4565b826001600160a01b0316846001600160a01b0316866001600160a01b03167ffbde797d201c681b91056529119e0b02407c7bb96a4a2c75c01fc9667232c8db8585604051611938929190918252602082015260400190565b60405180910390a45050505050565b5f600282600381111561195c5761195c61246b565b611966919061247f565b60ff166001149050919050565b5f805f6119808686611e15565b91509150815f036119a45783818161199a5761199a612353565b04925050506108f3565b8184116119bb576119bb6003851502601118611e31565b5f848688095f868103871696879004966002600389028118808a02820302808a02820302808a02820302808a02820302808a02820302808a02909103029181900381900460010185841190960395909502919093039390930492909217029150509392505050565b5f805160206124c88339815191526001600160a01b038416611a5d5781816002015f828254611a529190612231565b90915550611aba9050565b6001600160a01b0384165f9081526020829052604090205482811015611a9c5784818460405163391434e360e21b8152600401610f5f93929190612332565b6001600160a01b0385165f9081526020839052604090209083900390555b6001600160a01b038316611ad8576002810180548390039055611af6565b6001600160a01b0383165f9081526020829052604090208054830190555b826001600160a01b0316846001600160a01b03167fddf252ad1be2c89b69c2b068fc378daa952ba7f163c4a11628f55a4df523b3ef8460405161189291815260200190565b5f611b44611156565b54600160401b900460ff16919050565b60408051600481526024810182526020810180516001600160e01b031663313ce56760e01b17905290515f918291829182916001600160a01b03871691611b9a916124ac565b5f60405180830381855afa9150503d805f8114611bd2576040519150601f19603f3d011682016040523d82523d5f602084013e611bd7565b606091505b5091509150818015611beb57506020815110155b15611c1e575f81806020019051810190611c0591906121b5565b905060ff8111611c1c576001969095509350505050565b505b505f9485945092505050565b806001600160a01b03163b5f03611c5f57604051634c9c8ce360e01b81526001600160a01b0382166004820152602401610f5f565b5f805160206124e883398151915280546001600160a01b0319166001600160a01b0392909216919091179055565b60605f80846001600160a01b031684604051611ca991906124ac565b5f60405180830381855af49150503d805f8114611ce1576040519150601f19603f3d011682016040523d82523d5f602084013e611ce6565b606091505b50915091506114db858383611e42565b34156111a95760405163b398979f60e01b815260040160405180910390fd5b6040516001600160a01b0384811660248301528381166044830152606482018390526109369186918216906323b872dd906084015b604051602081830303815290604052915060e01b6020820180516001600160e01b038381831617835250505050611e9e565b6001600160a01b038216611da55760405163ec442f0560e01b81525f6004820152602401610f5f565b610c545f8383611657565b6001600160a01b038216611dd957604051634b637e8f60e11b81525f6004820152602401610f5f565b610c54825f83611657565b6040516001600160a01b038381166024830152604482018390526109b191859182169063a9059cbb90606401611d4a565b5f805f1983850993909202808410938190039390930393915050565b634e487b715f52806020526024601cfd5b606082611e5757611e5282611f0a565b6108f3565b8151158015611e6e57506001600160a01b0384163b155b15611e9757604051639996b31560e01b81526001600160a01b0385166004820152602401610f5f565b50806108f3565b5f8060205f8451602086015f885af180611ebd576040513d5f823e3d81fd5b50505f513d91508115611ed4578060011415611ee1565b6001600160a01b0384163b155b1561093657604051635274afe760e01b81526001600160a01b0385166004820152602401610f5f565b805115611f1a5780518082602001fd5b60405163d6bda27560e01b815260040160405180910390fd5b5f60208284031215611f43575f80fd5b81356001600160e01b0319811681146108f3575f80fd5b5f5b83811015611f74578181015183820152602001611f5c565b50505f910152565b602081525f8251806020840152611f9a816040850160208701611f5a565b601f01601f19169190910160400192915050565b5f60208284031215611fbe575f80fd5b5035919050565b80356001600160a01b0381168114611fdb575f80fd5b919050565b5f8060408385031215611ff1575f80fd5b611ffa83611fc5565b946020939093013593505050565b5f805f6060848603121561201a575f80fd5b61202384611fc5565b925061203160208501611fc5565b9150604084013590509250925092565b5f8060408385031215612052575f80fd5b8235915061206260208401611fc5565b90509250929050565b5f6020828403121561207b575f80fd5b6108f382611fc5565b5f8060408385031215612095575f80fd5b61209e83611fc5565b915061206260208401611fc5565b634e487b7160e01b5f52604160045260245ffd5b5f80604083850312156120d1575f80fd5b6120da83611fc5565b9150602083013567ffffffffffffffff808211156120f6575f80fd5b818501915085601f830112612109575f80fd5b81358181111561211b5761211b6120ac565b604051601f8201601f19908116603f01168101908382118183101715612143576121436120ac565b8160405282815288602084870101111561215b575f80fd5b826020860160208301375f6020848301015280955050505050509250929050565b5f805f6060848603121561218e575f80fd5b8335925061219e60208501611fc5565b91506121ac60408501611fc5565b90509250925092565b5f602082840312156121c5575f80fd5b5051919050565b600181811c908216806121e057607f821691505b6020821081036121fe57634e487b7160e01b5f52602260045260245ffd5b50919050565b634e487b7160e01b5f52601160045260245ffd5b60ff81811683821601908111156107e1576107e1612204565b808201808211156107e1576107e1612204565b600181815b8085111561227e57815f190482111561226457612264612204565b8085161561227157918102915b93841c9390800290612249565b509250929050565b5f82612294575060016107e1565b816122a057505f6107e1565b81600181146122b657600281146122c0576122dc565b60019150506107e1565b60ff8411156122d1576122d1612204565b50506001821b6107e1565b5060208310610133831016604e8410600b84101617156122ff575081810a6107e1565b6123098383612244565b805f190482111561231c5761231c612204565b029392505050565b5f6108f360ff841683612286565b6001600160a01b039390931683526020830191909152604082015260600190565b634e487b7160e01b5f52601260045260245ffd5b601f8211156109b157805f5260205f20601f840160051c8101602085101561238c5750805b601f840160051c820191505b81811015611650575f8155600101612398565b815167ffffffffffffffff8111156123c5576123c56120ac565b6123d9816123d384546121cc565b84612367565b602080601f83116001811461240c575f84156123f55750858301515b5f19600386901b1c1916600185901b178555612463565b5f85815260208120601f198616915b8281101561243a5788860151825594840194600190910190840161241b565b508582101561245757878501515f19600388901b60f8161c191681555b505060018460011b0185555b505050505050565b634e487b7160e01b5f52602160045260245ffd5b5f60ff83168061249d57634e487b7160e01b5f52601260045260245ffd5b8060ff84160691505092915050565b5f82516124bd818460208701611f5a565b919091019291505056fe52c63247e1f47db19d5ce0460030c497f067ca4cebf71ba98eeadabe20bace00360894a13ba1a3210667c828492db98dca3e2076cc3735a920a3ca505d382bbc65d7a28e3265b37a6474929f336521b332c1681b933f6cb9f3376673440d862a02dd7bc7dec4dceedda775e58dd541e08a116c6c53815c0bd028192f7b626800cd5ed15c6e187e77e9aee88184c21f4f2182ab5827cb3b7e07fbedcd63f033009b779b17422d0df92223018b32b4d1fa46e071723d6817e2486d003becc55f00a2646970667358221220cd9b15ec04740f6f060be7d0a2d24eef1f1b0ac2a1037d5d57ecb1f2ebb1c17664736f6c63430008180033","linkReferences":{}},"methodIdentifiers":{"DEFAULT_ADMIN_ROLE()":"a217fddf","PAUSER_ROLE()":"e63ab1e9","UPGRADER_ROLE()":"f72c0d8b","UPGRADE_INTERFACE_VERSION()":"ad3cb1cc","allowance(address,address)":"dd62ed3e","approve(address,uint256)":"095ea7b3","asset()":"38d52e0f","balanceOf(address)":"70a08231","convertToAssets(uint256)":"07a2d13a","convertToShares(uint256)":"c6e6f592","decimals()":"313ce567","deposit(uint256,address)":"6e553f65","getRoleAdmin(bytes32)":"248a9ca3","grantRole(bytes32,address)":"2f2ff15d","hasRole(bytes32,address)":"91d14854","initialize(address,address)":"485cc955","maxDeposit(address)":"402d267d","maxMint(address)":"c63d75b6","maxRedeem(address)":"d905777e","maxWithdraw(address)":"ce96cb77","mint(uint256,address)":"94bf804d","name()":"06fdde03","pause()":"8456cb59","paused()":"5c975abb","previewDeposit(uint256)":"ef8b30f7","previewMint(uint256)":"b3d7f6b9","previewRedeem(uint256)":"4cdad506","previewWithdraw(uint256)":"0a28a477","proxiableUUID()":"52d1902d","redeem(uint256,address,address)":"ba087652","renounceRole(bytes32,address)":"36568abe","revokeRole(bytes32,address)":"d547741f","supportsInterface(bytes4)":"01ffc9a7","symbol()":"95d89b41","totalAssets()":"01e1d114","totalSupply()":"18160ddd","transfer(address,uint256)":"a9059cbb","transferFrom(address,address,uint256)":"23b872dd","unpause()":"3f4ba83a","upgradeToAndCall(address,bytes)":"4f1ef286","version()":"54fd4d50","withdraw(uint256,address,address)":"b460af94"},"id":65}