{"abi":[{"type":"constructor","inputs":[{"name":"admin","type":"address","internalType":"address"}],"stateMutability":"nonpayable"},{"type":"function","name":"CLOCK_MODE","inputs":[],"outputs":[{"name":"","type":"string","internalType":"string"}],"stateMutability":"view"},{"type":"function","name":"DEFAULT_ADMIN_ROLE","inputs":[],"outputs":[{"name":"","type":"bytes32","internalType":"bytes32"}],"stateMutability":"view"},{"type":"function","name":"DOMAIN_SEPARATOR","inputs":[],"outputs":[{"name":"","type":"bytes32","internalType":"bytes32"}],"stateMutability":"view"},{"type":"function","name":"MINTER_ROLE","inputs":[],"outputs":[{"name":"","type":"bytes32","internalType":"bytes32"}],"stateMutability":"view"},{"type":"function","name":"PAUSER_ROLE","inputs":[],"outputs":[{"name":"","type":"bytes32","internalType":"bytes32"}],"stateMutability":"view"},{"type":"function","name":"allowance","inputs":[{"name":"owner","type":"address","internalType":"address"},{"name":"spender","type":"address","internalType":"address"}],"outputs":[{"name":"","type":"uint256","internalType":"uint256"}],"stateMutability":"view"},{"type":"function","name":"approve","inputs":[{"name":"spender","type":"address","internalType":"address"},{"name":"value","type":"uint256","internalType":"uint256"}],"outputs":[{"name":"","type":"bool","internalType":"bool"}],"stateMutability":"nonpayable"},{"type":"function","name":"balanceOf","inputs":[{"name":"account","type":"address","internalType":"address"}],"outputs":[{"name":"","type":"uint256","internalType":"uint256"}],"stateMutability":"view"},{"type":"function","name":"checkpoints","inputs":[{"name":"account","type":"address","internalType":"address"},{"name":"pos","type":"uint32","internalType":"uint32"}],"outputs":[{"name":"","type":"tuple","internalType":"struct Checkpoints.Checkpoint208","components":[{"name":"_key","type":"uint48","internalType":"uint48"},{"name":"_value","type":"uint208","internalType":"uint208"}]}],"stateMutability":"view"},{"type":"function","name":"clock","inputs":[],"outputs":[{"name":"","type":"uint48","internalType":"uint48"}],"stateMutability":"view"},{"type":"function","name":"decimals","inputs":[],"outputs":[{"name":"","type":"uint8","internalType":"uint8"}],"stateMutability":"view"},{"type":"function","name":"delegate","inputs":[{"name":"delegatee","type":"address","internalType":"address"}],"outputs":[],"stateMutability":"nonpayable"},{"type":"function","name":"delegateBySig","inputs":[{"name":"delegatee","type":"address","internalType":"address"},{"name":"nonce","type":"uint256","internalType":"uint256"},{"name":"expiry","type":"uint256","internalType":"uint256"},{"name":"v","type":"uint8","internalType":"uint8"},{"name":"r","type":"bytes32","internalType":"bytes32"},{"name":"s","type":"bytes32","internalType":"bytes32"}],"outputs":[],"stateMutability":"nonpayable"},{"type":"function","name":"delegates","inputs":[{"name":"account","type":"address","internalType":"address"}],"outputs":[{"name":"","type":"address","internalType":"address"}],"stateMutability":"view"},{"type":"function","name":"eip712Domain","inputs":[],"outputs":[{"name":"fields","type":"bytes1","internalType":"bytes1"},{"name":"name","type":"string","internalType":"string"},{"name":"version","type":"string","internalType":"string"},{"name":"chainId","type":"uint256","internalType":"uint256"},{"name":"verifyingContract","type":"address","internalType":"address"},{"name":"salt","type":"bytes32","internalType":"bytes32"},{"name":"extensions","type":"uint256[]","internalType":"uint256[]"}],"stateMutability":"view"},{"type":"function","name":"getPastTotalSupply","inputs":[{"name":"timepoint","type":"uint256","internalType":"uint256"}],"outputs":[{"name":"","type":"uint256","internalType":"uint256"}],"stateMutability":"view"},{"type":"function","name":"getPastVotes","inputs":[{"name":"account","type":"address","internalType":"address"},{"name":"timepoint","type":"uint256","internalType":"uint256"}],"outputs":[{"name":"","type":"uint256","internalType":"uint256"}],"stateMutability":"view"},{"type":"function","name":"getRoleAdmin","inputs":[{"name":"role","type":"bytes32","internalType":"bytes32"}],"outputs":[{"name":"","type":"bytes32","internalType":"bytes32"}],"stateMutability":"view"},{"type":"function","name":"getVotes","inputs":[{"name":"account","type":"address","internalType":"address"}],"outputs":[{"name":"","type":"uint256","internalType":"uint256"}],"stateMutability":"view"},{"type":"function","name":"grantRole","inputs":[{"name":"role","type":"bytes32","internalType":"bytes32"},{"name":"account","type":"address","internalType":"address"}],"outputs":[],"stateMutability":"nonpayable"},{"type":"function","name":"hasRole","inputs":[{"name":"role","type":"bytes32","internalType":"bytes32"},{"name":"account","type":"address","internalType":"address"}],"outputs":[{"name":"","type":"bool","internalType":"bool"}],"stateMutability":"view"},{"type":"function","name":"mint","inputs":[{"name":"to","type":"address","internalType":"address"},{"name":"amount","type":"uint256","internalType":"uint256"}],"outputs":[],"stateMutability":"nonpayable"},{"type":"function","name":"name","inputs":[],"outputs":[{"name":"","type":"string","internalType":"string"}],"stateMutability":"view"},{"type":"function","name":"nonces","inputs":[{"name":"owner","type":"address","internalType":"address"}],"outputs":[{"name":"","type":"uint256","internalType":"uint256"}],"stateMutability":"view"},{"type":"function","name":"numCheckpoints","inputs":[{"name":"account","type":"address","internalType":"address"}],"outputs":[{"name":"","type":"uint32","internalType":"uint32"}],"stateMutability":"view"},{"type":"function","name":"pause","inputs":[],"outputs":[],"stateMutability":"nonpayable"},{"type":"function","name":"paused","inputs":[],"outputs":[{"name":"","type":"bool","internalType":"bool"}],"stateMutability":"view"},{"type":"function","name":"permit","inputs":[{"name":"owner","type":"address","internalType":"address"},{"name":"spender","type":"address","internalType":"address"},{"name":"value","type":"uint256","internalType":"uint256"},{"name":"deadline","type":"uint256","internalType":"uint256"},{"name":"v","type":"uint8","internalType":"uint8"},{"name":"r","type":"bytes32","internalType":"bytes32"},{"name":"s","type":"bytes32","internalType":"bytes32"}],"outputs":[],"stateMutability":"nonpayable"},{"type":"function","name":"renounceRole","inputs":[{"name":"role","type":"bytes32","internalType":"bytes32"},{"name":"callerConfirmation","type":"address","internalType":"address"}],"outputs":[],"stateMutability":"nonpayable"},{"type":"function","name":"revokeRole","inputs":[{"name":"role","type":"bytes32","internalType":"bytes32"},{"name":"account","type":"address","internalType":"address"}],"outputs":[],"stateMutability":"nonpayable"},{"type":"function","name":"supportsInterface","inputs":[{"name":"interfaceId","type":"bytes4","internalType":"bytes4"}],"outputs":[{"name":"","type":"bool","internalType":"bool"}],"stateMutability":"view"},{"type":"function","name":"symbol","inputs":[],"outputs":[{"name":"","type":"string","internalType":"string"}],"stateMutability":"view"},{"type":"function","name":"totalSupply","inputs":[],"outputs":[{"name":"","type":"uint256","internalType":"uint256"}],"stateMutability":"view"},{"type":"function","name":"transfer","inputs":[{"name":"to","type":"address","internalType":"address"},{"name":"value","type":"uint256","internalType":"uint256"}],"outputs":[{"name":"","type":"bool","internalType":"bool"}],"stateMutability":"nonpayable"},{"type":"function","name":"transferFrom","inputs":[{"name":"from","type":"address","internalType":"address"},{"name":"to","type":"address","internalType":"address"},{"name":"value","type":"uint256","internalType":"uint256"}],"outputs":[{"name":"","type":"bool","internalType":"bool"}],"stateMutability":"nonpayable"},{"type":"function","name":"unpause","inputs":[],"outputs":[],"stateMutability":"nonpayable"},{"type":"event","name":"Approval","inputs":[{"name":"owner","type":"address","indexed":true,"internalType":"address"},{"name":"spender","type":"address","indexed":true,"internalType":"address"},{"name":"value","type":"uint256","indexed":false,"internalType":"uint256"}],"anonymous":false},{"type":"event","name":"DelegateChanged","inputs":[{"name":"delegator","type":"address","indexed":true,"internalType":"address"},{"name":"fromDelegate","type":"address","indexed":true,"internalType":"address"},{"name":"toDelegate","type":"address","indexed":true,"internalType":"address"}],"anonymous":false},{"type":"event","name":"DelegateVotesChanged","inputs":[{"name":"delegate","type":"address","indexed":true,"internalType":"address"},{"name":"previousVotes","type":"uint256","indexed":false,"internalType":"uint256"},{"name":"newVotes","type":"uint256","indexed":false,"internalType":"uint256"}],"anonymous":false},{"type":"event","name":"EIP712DomainChanged","inputs":[],"anonymous":false},{"type":"event","name":"Paused","inputs":[{"name":"account","type":"address","indexed":false,"internalType":"address"}],"anonymous":false},{"type":"event","name":"RoleAdminChanged","inputs":[{"name":"role","type":"bytes32","indexed":true,"internalType":"bytes32"},{"name":"previousAdminRole","type":"bytes32","indexed":true,"internalType":"bytes32"},{"name":"newAdminRole","type":"bytes32","indexed":true,"internalType":"bytes32"}],"anonymous":false},{"type":"event","name":"RoleGranted","inputs":[{"name":"role","type":"bytes32","indexed":true,"internalType":"bytes32"},{"name":"account","type":"address","indexed":true,"internalType":"address"},{"name":"sender","type":"address","indexed":true,"internalType":"address"}],"anonymous":false},{"type":"event","name":"RoleRevoked","inputs":[{"name":"role","type":"bytes32","indexed":true,"internalType":"bytes32"},{"name":"account","type":"address","indexed":true,"internalType":"address"},{"name":"sender","type":"address","indexed":true,"internalType":"address"}],"anonymous":false},{"type":"event","name":"TokensMinted","inputs":[{"name":"to","type":"address","indexed":true,"internalType":"address"},{"name":"amount","type":"uint256","indexed":false,"internalType":"uint256"}],"anonymous":false},{"type":"event","name":"Transfer","inputs":[{"name":"from","type":"address","indexed":true,"internalType":"address"},{"name":"to","type":"address","indexed":true,"internalType":"address"},{"name":"value","type":"uint256","indexed":false,"internalType":"uint256"}],"anonymous":false},{"type":"event","name":"Unpaused","inputs":[{"name":"account","type":"address","indexed":false,"internalType":"address"}],"anonymous":false},{"type":"error","name":"AccessControlBadConfirmation","inputs":[]},{"type":"error","name":"AccessControlUnauthorizedAccount","inputs":[{"name":"account","type":"address","internalType":"address"},{"name":"neededRole","type":"bytes32","internalType":"bytes32"}]},{"type":"error","name":"CheckpointUnorderedInsertion","inputs":[]},{"type":"error","name":"ECDSAInvalidSignature","inputs":[]},{"type":"error","name":"ECDSAInvalidSignatureLength","inputs":[{"name":"length","type":"uint256","internalType":"uint256"}]},{"type":"error","name":"ECDSAInvalidSignatureS","inputs":[{"name":"s","type":"bytes32","internalType":"bytes32"}]},{"type":"error","name":"ERC20ExceededSafeSupply","inputs":[{"name":"increasedSupply","type":"uint256","internalType":"uint256"},{"name":"cap","type":"uint256","internalType":"uint256"}]},{"type":"error","name":"ERC20InsufficientAllowance","inputs":[{"name":"spender","type":"address","internalType":"address"},{"name":"allowance","type":"uint256","internalType":"uint256"},{"name":"needed","type":"uint256","internalType":"uint256"}]},{"type":"error","name":"ERC20InsufficientBalance","inputs":[{"name":"sender","type":"address","internalType":"address"},{"name":"balance","type":"uint256","internalType":"uint256"},{"name":"needed","type":"uint256","internalType":"uint256"}]},{"type":"error","name":"ERC20InvalidApprover","inputs":[{"name":"approver","type":"address","internalType":"address"}]},{"type":"error","name":"ERC20InvalidReceiver","inputs":[{"name":"receiver","type":"address","internalType":"address"}]},{"type":"error","name":"ERC20InvalidSender","inputs":[{"name":"sender","type":"address","internalType":"address"}]},{"type":"error","name":"ERC20InvalidSpender","inputs":[{"name":"spender","type":"address","internalType":"address"}]},{"type":"error","name":"ERC2612ExpiredSignature","inputs":[{"name":"deadline","type":"uint256","internalType":"uint256"}]},{"type":"error","name":"ERC2612InvalidSigner","inputs":[{"name":"signer","type":"address","internalType":"address"},{"name":"owner","type":"address","internalType":"address"}]},{"type":"error","name":"ERC5805FutureLookup","inputs":[{"name":"timepoint","type":"uint256","internalType":"uint256"},{"name":"clock","type":"uint48","internalType":"uint48"}]},{"type":"error","name":"ERC6372InconsistentClock","inputs":[]},{"type":"error","name":"EnforcedPause","inputs":[]},{"type":"error","name":"ExpectedPause","inputs":[]},{"type":"error","name":"InvalidAccountNonce","inputs":[{"name":"account","type":"address","internalType":"address"},{"name":"currentNonce","type":"uint256","internalType":"uint256"}]},{"type":"error","name":"InvalidShortString","inputs":[]},{"type":"error","name":"SafeCastOverflowedUintDowncast","inputs":[{"name":"bits","type":"uint8","internalType":"uint8"},{"name":"value","type":"uint256","internalType":"uint256"}]},{"type":"error","name":"StringTooLong","inputs":[{"name":"str","type":"string","internalType":"string"}]},{"type":"error","name":"VotesExpiredSignature","inputs":[{"name":"expiry","type":"uint256","internalType":"uint256"}]},{"type":"error","name":"ZeroAddress","inputs":[]},{"type":"error","name":"ZeroAmount","inputs":[]}],"bytecode":{"object":"0x61016060405234801562000011575f80fd5b50604051620029043803806200290483398101604081905262000034916200034c565b6040518060400160405280601481526020017f476f6c645661756c7420476f7665726e616e636500000000000000000000000081525080604051806040016040528060018152602001603160f81b8152506040518060400160405280601481526020017f476f6c645661756c7420476f7665726e616e63650000000000000000000000008152506040518060400160405280600381526020016247564760e81b8152508160039081620000e8919062000419565b506004620000f7828262000419565b5062000109915083905060056200021a565b610120526200011a8160066200021a565b61014052815160208084019190912060e052815190820120610100524660a052620001a760e05161010051604080517f8b73c3c69bb8fe3d512ecc4cf759cc79239f7b179b0ffacaa9a75d522b39400f60208201529081019290925260608201524660808201523060a08201525f9060c00160405160208183030381529060405280519060200120905090565b60805250503060c052506001600160a01b038116620001d95760405163d92e233d60e01b815260040160405180910390fd5b620001e55f8262000252565b50620002127f65d7a28e3265b37a6474929f336521b332c1681b933f6cb9f3376673440d862a8262000252565b505062000557565b5f6020835110156200023957620002318362000301565b90506200024c565b8162000246848262000419565b5060ff90505b92915050565b5f828152600b602090815260408083206001600160a01b038516845290915281205460ff16620002f9575f838152600b602090815260408083206001600160a01b03861684529091529020805460ff19166001179055620002b03390565b6001600160a01b0316826001600160a01b0316847f2f8788117e7eff1d82e926ec794901d17c78024a50270940304540a733656f0d60405160405180910390a45060016200024c565b505f6200024c565b5f80829050601f8151111562000337578260405163305a27a960e01b81526004016200032e9190620004e5565b60405180910390fd5b8051620003448262000533565b179392505050565b5f602082840312156200035d575f80fd5b81516001600160a01b038116811462000374575f80fd5b9392505050565b634e487b7160e01b5f52604160045260245ffd5b600181811c90821680620003a457607f821691505b602082108103620003c357634e487b7160e01b5f52602260045260245ffd5b50919050565b601f8211156200041457805f5260205f20601f840160051c81016020851015620003f05750805b601f840160051c820191505b8181101562000411575f8155600101620003fc565b50505b505050565b81516001600160401b038111156200043557620004356200037b565b6200044d816200044684546200038f565b84620003c9565b602080601f83116001811462000483575f84156200046b5750858301515b5f19600386901b1c1916600185901b178555620004dd565b5f85815260208120601f198616915b82811015620004b35788860151825594840194600190910190840162000492565b5085821015620004d157878501515f19600388901b60f8161c191681555b505060018460011b0185555b505050505050565b5f602080835283518060208501525f5b818110156200051357858101830151858201604001528201620004f5565b505f604082860101526040601f19601f8301168501019250505092915050565b80516020808301519190811015620003c3575f1960209190910360031b1b16919050565b60805160a05160c05160e05161010051610120516101405161235b620005a95f395f6111c201525f61119501525f610e5901525f610e3101525f610d8c01525f610db601525f610de0015261235b5ff3fe608060405234801561000f575f80fd5b5060043610610213575f3560e01c806370a082311161011f578063a217fddf116100a9578063d539139311610079578063d5391393146104aa578063d547741f146104d1578063dd62ed3e146104e4578063e63ab1e91461051c578063f1127ed814610543575f80fd5b8063a217fddf1461046a578063a9059cbb14610471578063c3cda52014610484578063d505accf14610497575f80fd5b80638e539e8c116100ef5780638e539e8c1461040a57806391d148541461041d57806391ddadf41461043057806395d89b411461044f5780639ab24eb014610457575f80fd5b806370a08231146103ac5780637ecebe00146103d45780638456cb59146103e757806384b0196e146103ef575f80fd5b806336568abe116101a05780634bf5d7e9116101705780634bf5d7e91461031b578063587cde1e146103235780635c19a95c146103665780635c975abb146103795780636fcfff4514610384575f80fd5b806336568abe146102da5780633a46b1a8146102ed5780633f4ba83a1461030057806340c10f1914610308575f80fd5b806323b872dd116101e657806323b872dd14610279578063248a9ca31461028c5780632f2ff15d146102ae578063313ce567146102c35780633644e515146102d2575f80fd5b806301ffc9a71461021757806306fdde031461023f578063095ea7b31461025457806318160ddd14610267575b5f80fd5b61022a610225366004611efa565b610582565b60405190151581526020015b60405180910390f35b6102476105b8565b6040516102369190611f64565b61022a610262366004611f91565b610648565b6002545b604051908152602001610236565b61022a610287366004611fb9565b61065f565b61026b61029a366004611ff2565b5f908152600b602052604090206001015490565b6102c16102bc366004612009565b610682565b005b60405160128152602001610236565b61026b6106ac565b6102c16102e8366004612009565b6106ba565b61026b6102fb366004611f91565b6106f2565b6102c161072c565b6102c1610316366004611f91565b610761565b610247610824565b61034e610331366004612033565b6001600160a01b039081165f908152600860205260409020541690565b6040516001600160a01b039091168152602001610236565b6102c1610374366004612033565b61089c565b600c5460ff1661022a565b610397610392366004612033565b6108ab565b60405163ffffffff9091168152602001610236565b61026b6103ba366004612033565b6001600160a01b03165f9081526020819052604090205490565b61026b6103e2366004612033565b6108b5565b6102c16108bf565b6103f76108f1565b604051610236979695949392919061204c565b61026b610418366004611ff2565b610933565b61022a61042b366004612009565b610957565b610438610981565b60405165ffffffffffff9091168152602001610236565b61024761098a565b61026b610465366004612033565b610999565b61026b5f81565b61022a61047f366004611f91565b6109b9565b6102c16104923660046120f3565b6109c6565b6102c16104a5366004612147565b610a87565b61026b7f9f2df0fed2c77648de5860a4cc508cd0818c85b8b8a1ab4ceeef8d981c8956a681565b6102c16104df366004612009565b610bbd565b61026b6104f23660046121ac565b6001600160a01b039182165f90815260016020908152604080832093909416825291909152205490565b61026b7f65d7a28e3265b37a6474929f336521b332c1681b933f6cb9f3376673440d862a81565b6105566105513660046121d4565b610be1565b60408051825165ffffffffffff1681526020928301516001600160d01b03169281019290925201610236565b5f6001600160e01b03198216637965db0b60e01b14806105b257506301ffc9a760e01b6001600160e01b03198316145b92915050565b6060600380546105c790612211565b80601f01602080910402602001604051908101604052809291908181526020018280546105f390612211565b801561063e5780601f106106155761010080835404028352916020019161063e565b820191905f5260205f20905b81548152906001019060200180831161062157829003601f168201915b5050505050905090565b5f33610655818585610c05565b5060019392505050565b5f3361066c858285610c12565b610677858585610c88565b506001949350505050565b5f828152600b602052604090206001015461069c81610ce5565b6106a68383610cef565b50505050565b5f6106b5610d80565b905090565b6001600160a01b03811633146106e35760405163334bd91960e11b815260040160405180910390fd5b6106ed8282610ea9565b505050565b5f61071c6106ff83610f14565b6001600160a01b0385165f90815260096020526040902090610f62565b6001600160d01b03169392505050565b7f65d7a28e3265b37a6474929f336521b332c1681b933f6cb9f3376673440d862a61075681610ce5565b61075e611012565b50565b7f9f2df0fed2c77648de5860a4cc508cd0818c85b8b8a1ab4ceeef8d981c8956a661078b81610ce5565b6001600160a01b0383166107b25760405163d92e233d60e01b815260040160405180910390fd5b815f036107d257604051631f2a200560e01b815260040160405180910390fd5b6107dc8383611064565b826001600160a01b03167f3f2c9d57c068687834f0de942a9babb9e5acab57d516d3480a3c16ee165a42738360405161081791815260200190565b60405180910390a2505050565b606061082e611098565b65ffffffffffff1661083e610981565b65ffffffffffff1614610864576040516301bfc1c560e61b815260040160405180910390fd5b5060408051808201909152601d81527f6d6f64653d626c6f636b6e756d6265722666726f6d3d64656661756c74000000602082015290565b336108a781836110a2565b5050565b5f6105b282611113565b5f6105b282611134565b7f65d7a28e3265b37a6474929f336521b332c1681b933f6cb9f3376673440d862a6108e981610ce5565b61075e611151565b5f6060805f805f606061090261118e565b61090a6111bb565b604080515f80825260208201909252600f60f81b9b939a50919850469750309650945092509050565b5f61094861094083610f14565b600a90610f62565b6001600160d01b031692915050565b5f918252600b602090815260408084206001600160a01b0393909316845291905290205460ff1690565b5f6106b5611098565b6060600480546105c790612211565b6001600160a01b0381165f908152600960205260408120610948906111e8565b5f33610655818585610c88565b834211156109ef57604051632341d78760e11b8152600481018590526024015b60405180910390fd5b604080517fe48329057bfd03d55e49b547132e39cffd9c1820ad7b9d4c5307691425d15adf60208201526001600160a01b0388169181019190915260608101869052608081018590525f90610a6890610a609060a0016040516020818303038152906040528051906020012061121f565b85858561124b565b9050610a748187611277565b610a7e81886110a2565b50505050505050565b83421115610aab5760405163313c898160e11b8152600481018590526024016109e6565b5f7f6e71edae12b1b97f4d1f60370fef10105fa2faae0126114a169c64845d6126c9888888610af68c6001600160a01b03165f90815260076020526040902080546001810190915590565b6040805160208101969096526001600160a01b0394851690860152929091166060840152608083015260a082015260c0810186905260e0016040516020818303038152906040528051906020012090505f610b508261121f565b90505f610b5f8287878761124b565b9050896001600160a01b0316816001600160a01b031614610ba6576040516325c0072360e11b81526001600160a01b0380831660048301528b1660248201526044016109e6565b610bb18a8a8a610c05565b50505050505050505050565b5f828152600b6020526040902060010154610bd781610ce5565b6106a68383610ea9565b604080518082019091525f8082526020820152610bfe83836112c9565b9392505050565b6106ed83838360016112fd565b6001600160a01b038381165f908152600160209081526040808320938616835292905220545f198110156106a65781811015610c7a57604051637dc7a0d960e11b81526001600160a01b038416600482015260248101829052604481018390526064016109e6565b6106a684848484035f6112fd565b6001600160a01b038316610cb157604051634b637e8f60e11b81525f60048201526024016109e6565b6001600160a01b038216610cda5760405163ec442f0560e01b81525f60048201526024016109e6565b6106ed8383836113cf565b61075e81336113e2565b5f610cfa8383610957565b610d79575f838152600b602090815260408083206001600160a01b03861684529091529020805460ff19166001179055610d313390565b6001600160a01b0316826001600160a01b0316847f2f8788117e7eff1d82e926ec794901d17c78024a50270940304540a733656f0d60405160405180910390a45060016105b2565b505f6105b2565b5f306001600160a01b037f000000000000000000000000000000000000000000000000000000000000000016148015610dd857507f000000000000000000000000000000000000000000000000000000000000000046145b15610e0257507f000000000000000000000000000000000000000000000000000000000000000090565b6106b5604080517f8b73c3c69bb8fe3d512ecc4cf759cc79239f7b179b0ffacaa9a75d522b39400f60208201527f0000000000000000000000000000000000000000000000000000000000000000918101919091527f000000000000000000000000000000000000000000000000000000000000000060608201524660808201523060a08201525f9060c00160405160208183030381529060405280519060200120905090565b5f610eb48383610957565b15610d79575f838152600b602090815260408083206001600160a01b0386168085529252808320805460ff1916905551339286917ff6391f5c32d9c69d2a47ea670b442974b53935d1edc7fd64eb21e047a839171b9190a45060016105b2565b5f80610f1e610981565b90508065ffffffffffff168310610f5957604051637669fc0f60e11b81526004810184905265ffffffffffff821660248201526044016109e6565b610bfe8361141b565b81545f9081816005811115610fbe575f610f7b84611451565b610f85908561225d565b5f8881526020902090915081015465ffffffffffff9081169087161015610fae57809150610fbc565b610fb9816001612270565b92505b505b5f610fcb878785856115a9565b9050801561100557610fef87610fe260018461225d565b5f91825260209091200190565b54600160301b90046001600160d01b0316611007565b5f5b979650505050505050565b61101a611608565b600c805460ff191690557f5db9ee0a495bf2e6ff9c91a7834c1ba4fdd244a5e8aa4e537bd38aeae4b073aa335b6040516001600160a01b03909116815260200160405180910390a1565b6001600160a01b03821661108d5760405163ec442f0560e01b81525f60048201526024016109e6565b6108a75f83836113cf565b5f6106b54361141b565b6001600160a01b038281165f8181526008602052604080822080548686166001600160a01b0319821681179092559151919094169392849290917f3134e8a2e6d97e929a7e54011ea5485d7d196dd5f0ba4d4ef95803e8e3fc257f9190a46106ed818361110e8661162d565b61164a565b6001600160a01b0381165f908152600960205260408120546105b2906117b3565b6001600160a01b0381165f908152600760205260408120546105b2565b6111596117e3565b600c805460ff191660011790557f62e78cea01bee320cd4e420270b5ea74000d11b0c9f74754ebdbfc544b05a2586110473390565b60606106b57f00000000000000000000000000000000000000000000000000000000000000006005611807565b60606106b57f00000000000000000000000000000000000000000000000000000000000000006006611807565b80545f9080156112175761120183610fe260018461225d565b54600160301b90046001600160d01b0316610bfe565b5f9392505050565b5f6105b261122b610d80565b8360405161190160f01b8152600281019290925260228201526042902090565b5f805f8061125b888888886118b0565b92509250925061126b8282611978565b50909695505050505050565b6001600160a01b0382165f9081526007602052604090208054600181019091558181146106ed576040516301d4b62360e61b81526001600160a01b0384166004820152602481018290526044016109e6565b604080518082019091525f80825260208201526001600160a01b0383165f908152600960205260409020610bfe9083611a30565b6001600160a01b0384166113265760405163e602df0560e01b81525f60048201526024016109e6565b6001600160a01b03831661134f57604051634a1406b160e11b81525f60048201526024016109e6565b6001600160a01b038085165f90815260016020908152604080832093871683529290522082905580156106a657826001600160a01b0316846001600160a01b03167f8c5be1e5ebec7d5bd14f71427d1e84f3dd0314c0f7b2291e5b200ac8c7c3b925846040516113c191815260200190565b60405180910390a350505050565b6113d76117e3565b6106ed838383611a9d565b6113ec8282610957565b6108a75760405163e2517d3f60e01b81526001600160a01b0382166004820152602481018390526044016109e6565b5f65ffffffffffff82111561144d576040516306dfcc6560e41b815260306004820152602481018390526044016109e6565b5090565b5f6001821161145e575090565b816001600160801b82106114775760809190911c9060401b5b6801000000000000000082106114925760409190911c9060201b5b64010000000082106114a95760209190911c9060101b5b6201000082106114be5760109190911c9060081b5b61010082106114d25760089190911c9060041b5b601082106114e55760049190911c9060021b5b600482106114f15760011b5b600302600190811c9081858161150957611509612283565b048201901c9050600181858161152157611521612283565b048201901c9050600181858161153957611539612283565b048201901c9050600181858161155157611551612283565b048201901c9050600181858161156957611569612283565b048201901c9050600181858161158157611581612283565b048201901c90506115a081858161159a5761159a612283565b04821190565b90039392505050565b5f5b81831015611600575f6115be8484611b03565b5f8781526020902090915065ffffffffffff86169082015465ffffffffffff1611156115ec578092506115fa565b6115f7816001612270565b93505b506115ab565b509392505050565b600c5460ff1661162b57604051638dfc202b60e01b815260040160405180910390fd5b565b6001600160a01b0381165f908152602081905260408120546105b2565b816001600160a01b0316836001600160a01b03161415801561166b57505f81115b156106ed576001600160a01b03831615611712576001600160a01b0383165f90815260096020526040812081906116ad90611b1d6116a886611b28565b611b5b565b6001600160d01b031691506001600160d01b03169150846001600160a01b03167fdec2bacdd2f05b59de34da9b523dff8be42e5e38e818c82fdb0bae774387a7248383604051611707929190918252602082015260400190565b60405180910390a250505b6001600160a01b038216156106ed576001600160a01b0382165f908152600960205260408120819061174a90611b936116a886611b28565b6001600160d01b031691506001600160d01b03169150836001600160a01b03167fdec2bacdd2f05b59de34da9b523dff8be42e5e38e818c82fdb0bae774387a72483836040516117a4929190918252602082015260400190565b60405180910390a25050505050565b5f63ffffffff82111561144d576040516306dfcc6560e41b815260206004820152602481018390526044016109e6565b600c5460ff161561162b5760405163d93c066560e01b815260040160405180910390fd5b606060ff83146118215761181a83611b9e565b90506105b2565b81805461182d90612211565b80601f016020809104026020016040519081016040528092919081815260200182805461185990612211565b80156118a45780601f1061187b576101008083540402835291602001916118a4565b820191905f5260205f20905b81548152906001019060200180831161188757829003601f168201915b505050505090506105b2565b5f80807f7fffffffffffffffffffffffffffffff5d576e7357a4501ddfe92f46681b20a08411156118e957505f9150600390508261196e565b604080515f808252602082018084528a905260ff891692820192909252606081018790526080810186905260019060a0016020604051602081039080840390855afa15801561193a573d5f803e3d5ffd5b5050604051601f1901519150506001600160a01b03811661196557505f92506001915082905061196e565b92505f91508190505b9450945094915050565b5f82600381111561198b5761198b612297565b03611994575050565b60018260038111156119a8576119a8612297565b036119c65760405163f645eedf60e01b815260040160405180910390fd5b60028260038111156119da576119da612297565b036119fb5760405163fce698f760e01b8152600481018290526024016109e6565b6003826003811115611a0f57611a0f612297565b036108a7576040516335e2f38360e21b8152600481018290526024016109e6565b604080518082019091525f8082526020820152825f018263ffffffff1681548110611a5d57611a5d6122ab565b5f9182526020918290206040805180820190915291015465ffffffffffff81168252600160301b90046001600160d01b0316918101919091529392505050565b611aa8838383611bdb565b6001600160a01b038316611af8575f611ac060025490565b90506001600160d01b0380821115611af557604051630e58ae9360e11b815260048101839052602481018290526044016109e6565b50505b6106ed838383611d01565b5f611b1160028484186122bf565b610bfe90848416612270565b5f610bfe82846122de565b5f6001600160d01b0382111561144d576040516306dfcc6560e41b815260d06004820152602481018390526044016109e6565b5f80611b86611b68610981565b611b7e611b74886111e8565b868863ffffffff16565b879190611d76565b915091505b935093915050565b5f610bfe8284612305565b60605f611baa83611d83565b6040805160208082528183019092529192505f91906020820181803683375050509182525060208101929092525090565b6001600160a01b038316611c05578060025f828254611bfa9190612270565b90915550611c759050565b6001600160a01b0383165f9081526020819052604090205481811015611c575760405163391434e360e21b81526001600160a01b038516600482015260248101829052604481018390526064016109e6565b6001600160a01b0384165f9081526020819052604090209082900390555b6001600160a01b038216611c9157600280548290039055611caf565b6001600160a01b0382165f9081526020819052604090208054820190555b816001600160a01b0316836001600160a01b03167fddf252ad1be2c89b69c2b068fc378daa952ba7f163c4a11628f55a4df523b3ef83604051611cf491815260200190565b60405180910390a3505050565b6001600160a01b038316611d2357611d20600a611b936116a884611b28565b50505b6001600160a01b038216611d4557611d42600a611b1d6116a884611b28565b50505b6001600160a01b038381165f908152600860205260408082205485841683529120546106ed9291821691168361164a565b5f80611b86858585611daa565b5f60ff8216601f8111156105b257604051632cd44ac360e21b815260040160405180910390fd5b82545f9081908015611ea0575f611dc687610fe260018561225d565b805490915065ffffffffffff80821691600160301b90046001600160d01b0316908816821115611e0957604051632520601d60e01b815260040160405180910390fd5b8765ffffffffffff168265ffffffffffff1603611e4257825465ffffffffffff16600160301b6001600160d01b03891602178355611e92565b6040805180820190915265ffffffffffff808a1682526001600160d01b03808a1660208085019182528d54600181018f555f8f81529190912094519151909216600160301b029216919091179101555b9450859350611b8b92505050565b50506040805180820190915265ffffffffffff80851682526001600160d01b0380851660208085019182528854600181018a555f8a815291822095519251909316600160301b029190931617920191909155905081611b8b565b5f60208284031215611f0a575f80fd5b81356001600160e01b031981168114610bfe575f80fd5b5f81518084525f5b81811015611f4557602081850181015186830182015201611f29565b505f602082860101526020601f19601f83011685010191505092915050565b602081525f610bfe6020830184611f21565b80356001600160a01b0381168114611f8c575f80fd5b919050565b5f8060408385031215611fa2575f80fd5b611fab83611f76565b946020939093013593505050565b5f805f60608486031215611fcb575f80fd5b611fd484611f76565b9250611fe260208501611f76565b9150604084013590509250925092565b5f60208284031215612002575f80fd5b5035919050565b5f806040838503121561201a575f80fd5b8235915061202a60208401611f76565b90509250929050565b5f60208284031215612043575f80fd5b610bfe82611f76565b60ff60f81b881681525f602060e0602084015261206c60e084018a611f21565b838103604085015261207e818a611f21565b606085018990526001600160a01b038816608086015260a0850187905284810360c0860152855180825260208088019350909101905f5b818110156120d1578351835292840192918401916001016120b5565b50909c9b505050505050505050505050565b803560ff81168114611f8c575f80fd5b5f805f805f8060c08789031215612108575f80fd5b61211187611f76565b9550602087013594506040870135935061212d606088016120e3565b92506080870135915060a087013590509295509295509295565b5f805f805f805f60e0888a03121561215d575f80fd5b61216688611f76565b965061217460208901611f76565b95506040880135945060608801359350612190608089016120e3565b925060a0880135915060c0880135905092959891949750929550565b5f80604083850312156121bd575f80fd5b6121c683611f76565b915061202a60208401611f76565b5f80604083850312156121e5575f80fd5b6121ee83611f76565b9150602083013563ffffffff81168114612206575f80fd5b809150509250929050565b600181811c9082168061222557607f821691505b60208210810361224357634e487b7160e01b5f52602260045260245ffd5b50919050565b634e487b7160e01b5f52601160045260245ffd5b818103818111156105b2576105b2612249565b808201808211156105b2576105b2612249565b634e487b7160e01b5f52601260045260245ffd5b634e487b7160e01b5f52602160045260245ffd5b634e487b7160e01b5f52603260045260245ffd5b5f826122d957634e487b7160e01b5f52601260045260245ffd5b500490565b6001600160d01b038281168282160390808211156122fe576122fe612249565b5092915050565b6001600160d01b038181168382160190808211156122fe576122fe61224956fea264697066735822122083aee0d658f1527275b60fbdc7b83ba30cd0138df89153b76345c15ea94e26a064736f6c63430008180033","linkReferences":{}},"methodIdentifiers":{"CLOCK_MODE()":"4bf5d7e9","DEFAULT_ADMIN_ROLE()":"a217fddf","DOMAIN_SEPARATOR()":"3644e515","MINTER_ROLE()":"d5391393","PAUSER_ROLE()":"e63ab1e9","allowance(address,address)":"dd62ed3e","approve(address,uint256)":"095ea7b3","balanceOf(address)":"70a08231","checkpoints(address,uint32)":"f1127ed8","clock()":"91ddadf4","decimals()":"313ce567","delegate(address)":"5c19a95c","delegateBySig(address,uint256,uint256,uint8,bytes32,bytes32)":"c3cda520","delegates(address)":"587cde1e","eip712Domain()":"84b0196e","getPastTotalSupply(uint256)":"8e539e8c","getPastVotes(address,uint256)":"3a46b1a8","getRoleAdmin(bytes32)":"248a9ca3","getVotes(address)":"9ab24eb0","grantRole(bytes32,address)":"2f2ff15d","hasRole(bytes32,address)":"91d14854","mint(address,uint256)":"40c10f19","name()":"06fdde03","nonces(address)":"7ecebe00","numCheckpoints(address)":"6fcfff45","pause()":"8456cb59","paused()":"5c975abb","permit(address,address,uint256,uint256,uint8,bytes32,bytes32)":"d505accf","renounceRole(bytes32,address)":"36568abe","revokeRole(bytes32,address)":"d547741f","supportsInterface(bytes4)":"01ffc9a7","symbol()":"95d89b41","totalSupply()":"18160ddd","transfer(address,uint256)":"a9059cbb","transferFrom(address,address,uint256)":"23b872dd","unpause()":"3f4ba83a"},"id":68}