{"abi":[{"type":"constructor","inputs":[{"name":"_token0","type":"address","internalType":"address"},{"name":"_token1","type":"address","internalType":"address"},{"name":"owner_","type":"address","internalType":"address"}],"stateMutability":"nonpayable"},{"type":"function","name":"addLiquidity","inputs":[{"name":"amount0Desired","type":"uint256","internalType":"uint256"},{"name":"amount1Desired","type":"uint256","internalType":"uint256"},{"name":"amount0Min","type":"uint256","internalType":"uint256"},{"name":"amount1Min","type":"uint256","internalType":"uint256"},{"name":"to","type":"address","internalType":"address"}],"outputs":[{"name":"amount0","type":"uint256","internalType":"uint256"},{"name":"amount1","type":"uint256","internalType":"uint256"},{"name":"shares","type":"uint256","internalType":"uint256"}],"stateMutability":"nonpayable"},{"type":"function","name":"allowance","inputs":[{"name":"owner","type":"address","internalType":"address"},{"name":"spender","type":"address","internalType":"address"}],"outputs":[{"name":"","type":"uint256","internalType":"uint256"}],"stateMutability":"view"},{"type":"function","name":"approve","inputs":[{"name":"spender","type":"address","internalType":"address"},{"name":"value","type":"uint256","internalType":"uint256"}],"outputs":[{"name":"","type":"bool","internalType":"bool"}],"stateMutability":"nonpayable"},{"type":"function","name":"balanceOf","inputs":[{"name":"account","type":"address","internalType":"address"}],"outputs":[{"name":"","type":"uint256","internalType":"uint256"}],"stateMutability":"view"},{"type":"function","name":"decimals","inputs":[],"outputs":[{"name":"","type":"uint8","internalType":"uint8"}],"stateMutability":"view"},{"type":"function","name":"getAmountOut","inputs":[{"name":"amountIn","type":"uint256","internalType":"uint256"},{"name":"tokenIn","type":"address","internalType":"address"}],"outputs":[{"name":"","type":"uint256","internalType":"uint256"}],"stateMutability":"view"},{"type":"function","name":"getReserves","inputs":[],"outputs":[{"name":"_reserve0","type":"uint256","internalType":"uint256"},{"name":"_reserve1","type":"uint256","internalType":"uint256"}],"stateMutability":"view"},{"type":"function","name":"name","inputs":[],"outputs":[{"name":"","type":"string","internalType":"string"}],"stateMutability":"view"},{"type":"function","name":"owner","inputs":[],"outputs":[{"name":"","type":"address","internalType":"address"}],"stateMutability":"view"},{"type":"function","name":"pause","inputs":[],"outputs":[],"stateMutability":"nonpayable"},{"type":"function","name":"paused","inputs":[],"outputs":[{"name":"","type":"bool","internalType":"bool"}],"stateMutability":"view"},{"type":"function","name":"removeLiquidity","inputs":[{"name":"shares","type":"uint256","internalType":"uint256"},{"name":"amount0Min","type":"uint256","internalType":"uint256"},{"name":"amount1Min","type":"uint256","internalType":"uint256"},{"name":"to","type":"address","internalType":"address"}],"outputs":[{"name":"amount0","type":"uint256","internalType":"uint256"},{"name":"amount1","type":"uint256","internalType":"uint256"}],"stateMutability":"nonpayable"},{"type":"function","name":"renounceOwnership","inputs":[],"outputs":[],"stateMutability":"nonpayable"},{"type":"function","name":"reserve0","inputs":[],"outputs":[{"name":"","type":"uint256","internalType":"uint256"}],"stateMutability":"view"},{"type":"function","name":"reserve1","inputs":[],"outputs":[{"name":"","type":"uint256","internalType":"uint256"}],"stateMutability":"view"},{"type":"function","name":"swapExactToken0ForToken1","inputs":[{"name":"amountIn","type":"uint256","internalType":"uint256"},{"name":"amountOutMin","type":"uint256","internalType":"uint256"},{"name":"to","type":"address","internalType":"address"}],"outputs":[{"name":"amountOut","type":"uint256","internalType":"uint256"}],"stateMutability":"nonpayable"},{"type":"function","name":"swapExactToken1ForToken0","inputs":[{"name":"amountIn","type":"uint256","internalType":"uint256"},{"name":"amountOutMin","type":"uint256","internalType":"uint256"},{"name":"to","type":"address","internalType":"address"}],"outputs":[{"name":"amountOut","type":"uint256","internalType":"uint256"}],"stateMutability":"nonpayable"},{"type":"function","name":"symbol","inputs":[],"outputs":[{"name":"","type":"string","internalType":"string"}],"stateMutability":"view"},{"type":"function","name":"token0","inputs":[],"outputs":[{"name":"","type":"address","internalType":"contract IERC20"}],"stateMutability":"view"},{"type":"function","name":"token1","inputs":[],"outputs":[{"name":"","type":"address","internalType":"contract IERC20"}],"stateMutability":"view"},{"type":"function","name":"totalSupply","inputs":[],"outputs":[{"name":"","type":"uint256","internalType":"uint256"}],"stateMutability":"view"},{"type":"function","name":"transfer","inputs":[{"name":"to","type":"address","internalType":"address"},{"name":"value","type":"uint256","internalType":"uint256"}],"outputs":[{"name":"","type":"bool","internalType":"bool"}],"stateMutability":"nonpayable"},{"type":"function","name":"transferFrom","inputs":[{"name":"from","type":"address","internalType":"address"},{"name":"to","type":"address","internalType":"address"},{"name":"value","type":"uint256","internalType":"uint256"}],"outputs":[{"name":"","type":"bool","internalType":"bool"}],"stateMutability":"nonpayable"},{"type":"function","name":"transferOwnership","inputs":[{"name":"newOwner","type":"address","internalType":"address"}],"outputs":[],"stateMutability":"nonpayable"},{"type":"function","name":"unpause","inputs":[],"outputs":[],"stateMutability":"nonpayable"},{"type":"event","name":"Approval","inputs":[{"name":"owner","type":"address","indexed":true,"internalType":"address"},{"name":"spender","type":"address","indexed":true,"internalType":"address"},{"name":"value","type":"uint256","indexed":false,"internalType":"uint256"}],"anonymous":false},{"type":"event","name":"LiquidityAdded","inputs":[{"name":"provider","type":"address","indexed":true,"internalType":"address"},{"name":"amount0","type":"uint256","indexed":false,"internalType":"uint256"},{"name":"amount1","type":"uint256","indexed":false,"internalType":"uint256"},{"name":"shares","type":"uint256","indexed":false,"internalType":"uint256"}],"anonymous":false},{"type":"event","name":"LiquidityRemoved","inputs":[{"name":"provider","type":"address","indexed":true,"internalType":"address"},{"name":"amount0","type":"uint256","indexed":false,"internalType":"uint256"},{"name":"amount1","type":"uint256","indexed":false,"internalType":"uint256"},{"name":"shares","type":"uint256","indexed":false,"internalType":"uint256"}],"anonymous":false},{"type":"event","name":"OwnershipTransferred","inputs":[{"name":"previousOwner","type":"address","indexed":true,"internalType":"address"},{"name":"newOwner","type":"address","indexed":true,"internalType":"address"}],"anonymous":false},{"type":"event","name":"Paused","inputs":[{"name":"account","type":"address","indexed":false,"internalType":"address"}],"anonymous":false},{"type":"event","name":"Swap","inputs":[{"name":"sender","type":"address","indexed":true,"internalType":"address"},{"name":"tokenIn","type":"address","indexed":true,"internalType":"address"},{"name":"amountIn","type":"uint256","indexed":false,"internalType":"uint256"},{"name":"amountOut","type":"uint256","indexed":false,"internalType":"uint256"},{"name":"to","type":"address","indexed":true,"internalType":"address"}],"anonymous":false},{"type":"event","name":"Transfer","inputs":[{"name":"from","type":"address","indexed":true,"internalType":"address"},{"name":"to","type":"address","indexed":true,"internalType":"address"},{"name":"value","type":"uint256","indexed":false,"internalType":"uint256"}],"anonymous":false},{"type":"event","name":"Unpaused","inputs":[{"name":"account","type":"address","indexed":false,"internalType":"address"}],"anonymous":false},{"type":"error","name":"ERC20InsufficientAllowance","inputs":[{"name":"spender","type":"address","internalType":"address"},{"name":"allowance","type":"uint256","internalType":"uint256"},{"name":"needed","type":"uint256","internalType":"uint256"}]},{"type":"error","name":"ERC20InsufficientBalance","inputs":[{"name":"sender","type":"address","internalType":"address"},{"name":"balance","type":"uint256","internalType":"uint256"},{"name":"needed","type":"uint256","internalType":"uint256"}]},{"type":"error","name":"ERC20InvalidApprover","inputs":[{"name":"approver","type":"address","internalType":"address"}]},{"type":"error","name":"ERC20InvalidReceiver","inputs":[{"name":"receiver","type":"address","internalType":"address"}]},{"type":"error","name":"ERC20InvalidSender","inputs":[{"name":"sender","type":"address","internalType":"address"}]},{"type":"error","name":"ERC20InvalidSpender","inputs":[{"name":"spender","type":"address","internalType":"address"}]},{"type":"error","name":"EnforcedPause","inputs":[]},{"type":"error","name":"ExpectedPause","inputs":[]},{"type":"error","name":"IdenticalTokens","inputs":[]},{"type":"error","name":"InsufficientLiquidity","inputs":[]},{"type":"error","name":"InsufficientShares","inputs":[]},{"type":"error","name":"OwnableInvalidOwner","inputs":[{"name":"owner","type":"address","internalType":"address"}]},{"type":"error","name":"OwnableUnauthorizedAccount","inputs":[{"name":"account","type":"address","internalType":"address"}]},{"type":"error","name":"ReentrancyGuardReentrantCall","inputs":[]},{"type":"error","name":"SafeERC20FailedOperation","inputs":[{"name":"token","type":"address","internalType":"address"}]},{"type":"error","name":"SlippageExceeded","inputs":[]},{"type":"error","name":"ZeroAddress","inputs":[]},{"type":"error","name":"ZeroAmount","inputs":[]}],"bytecode":{"object":"0x60c060405234801562000010575f80fd5b5060405162001c9d38038062001c9d8339810160408190526200003391620001df565b806040518060400160405280600a8152602001690476f6c64414d4d204c560b41b81525060405180604001604052806004815260200163047564c560e41b8152508160039081620000859190620002c4565b506004620000948282620002c4565b50506001600555506001600160a01b038116620000ca57604051631e4fbdf760e01b81525f600482015260240160405180910390fd5b620000d58162000172565b506001600160a01b0383161580620000f457506001600160a01b038216155b806200010757506001600160a01b038116155b15620001265760405163d92e233d60e01b815260040160405180910390fd5b816001600160a01b0316836001600160a01b0316036200015957604051635c6d7b7360e01b815260040160405180910390fd5b506001600160a01b039182166080521660a05262000390565b600680546001600160a01b038381166001600160a01b0319831681179093556040519116919082907f8be0079c531659141344cd1fd0a4f28419497f9722a3daafe3b4186f6b6457e0905f90a35050565b80516001600160a01b0381168114620001da575f80fd5b919050565b5f805f60608486031215620001f2575f80fd5b620001fd84620001c3565b92506200020d60208501620001c3565b91506200021d60408501620001c3565b90509250925092565b634e487b7160e01b5f52604160045260245ffd5b600181811c908216806200024f57607f821691505b6020821081036200026e57634e487b7160e01b5f52602260045260245ffd5b50919050565b601f821115620002bf57805f5260205f20601f840160051c810160208510156200029b5750805b601f840160051c820191505b81811015620002bc575f8155600101620002a7565b50505b505050565b81516001600160401b03811115620002e057620002e062000226565b620002f881620002f184546200023a565b8462000274565b602080601f8311600181146200032e575f8415620003165750858301515b5f19600386901b1c1916600185901b17855562000388565b5f85815260208120601f198616915b828110156200035e578886015182559484019460019091019084016200033d565b50858210156200037c57878501515f19600388901b60f8161c191681555b505060018460011b0185555b505050505050565b60805160a05161189e620003ff5f395f81816102fe015281816105e1015281816107bc0152818161082401528181610ace0152610cbc01525f81816101d3015281816105ac01528181610614015281816107f101528181610a9901528181610c880152610d4f015261189e5ff3fe608060405234801561000f575f80fd5b506004361061016d575f3560e01c8063715018a6116100d9578063c2f9506c11610093578063e0ab07721161006e578063e0ab077214610358578063e39b0eb514610386578063f140a35a14610399578063f2fde38b146103ac575f80fd5b8063c2f9506c146102e6578063d21220a7146102f9578063dd62ed3e14610320575f80fd5b8063715018a6146102975780637cfaa0601461029f5780638456cb59146102b25780638da5cb5b146102ba57806395d89b41146102cb578063a9059cbb146102d3575f80fd5b8063313ce5671161012a578063313ce567146102325780633f4ba83a14610241578063443cb4bc1461024b5780635a76f25e146102545780635c975abb1461025d57806370a082311461026f575f80fd5b806306fdde03146101715780630902f1ac1461018f578063095ea7b3146101ab5780630dfe1681146101ce57806318160ddd1461020d57806323b872dd1461021f575b5f80fd5b6101796103bf565b60405161018691906115c6565b60405180910390f35b6007546008545b60408051928352602083019190915201610186565b6101be6101b936600461162d565b61044f565b6040519015158152602001610186565b6101f57f000000000000000000000000000000000000000000000000000000000000000081565b6040516001600160a01b039091168152602001610186565b6002545b604051908152602001610186565b6101be61022d366004611655565b610468565b60405160128152602001610186565b61024961048d565b005b61021160075481565b61021160085481565b600654600160a01b900460ff166101be565b61021161027d36600461168e565b6001600160a01b03165f9081526020819052604090205490565b61024961049f565b6102116102ad3660046116a7565b6104b0565b610249610694565b6006546001600160a01b03166101f5565b6101796106a4565b6101be6102e136600461162d565b6106b3565b6102116102f43660046116a7565b6106c0565b6101f57f000000000000000000000000000000000000000000000000000000000000000081565b61021161032e3660046116d9565b6001600160a01b039182165f90815260016020908152604080832093909416825291909152205490565b61036b61036636600461170a565b610890565b60408051938452602084019290925290820152606001610186565b61019661039436600461174f565b610b51565b6102116103a736600461178b565b610d3c565b6102496103ba36600461168e565b610da0565b6060600380546103ce906117ac565b80601f01602080910402602001604051908101604052809291908181526020018280546103fa906117ac565b80156104455780601f1061041c57610100808354040283529160200191610445565b820191905f5260205f20905b81548152906001019060200180831161042857829003601f168201915b5050505050905090565b5f3361045c818585610de2565b60019150505b92915050565b5f33610475858285610df4565b610480858585610e70565b60019150505b9392505050565b610495610ecd565b61049d610efa565b565b6104a7610ecd565b61049d5f610f4f565b5f6104b9610fa0565b6104c1610fca565b835f036104e157604051631f2a200560e01b815260040160405180910390fd5b6001600160a01b0382166105085760405163d92e233d60e01b815260040160405180910390fd5b600754600854811580610519575080155b156105375760405163bb55fd2760e01b815260040160405180910390fd5b610542868383610ff5565b92508483101561056557604051638199f5f360e01b815260040160405180910390fd5b8083106105855760405163bb55fd2760e01b815260040160405180910390fd5b61058f86836117f8565b60075561059c838261180b565b6008556105d46001600160a01b037f00000000000000000000000000000000000000000000000000000000000000001633308961108a565b6106086001600160a01b037f00000000000000000000000000000000000000000000000000000000000000001685856110f1565b836001600160a01b03167f00000000000000000000000000000000000000000000000000000000000000006001600160a01b0316336001600160a01b03167fb39c9bc43f811e1a7ce159c5f147458fdb80266bf23c17322013316e27e086d08987604051610680929190918252602082015260400190565b60405180910390a450506104866001600555565b61069c610ecd565b61049d611122565b6060600480546103ce906117ac565b5f3361045c818585610e70565b5f6106c9610fa0565b6106d1610fca565b835f036106f157604051631f2a200560e01b815260040160405180910390fd5b6001600160a01b0382166107185760405163d92e233d60e01b815260040160405180910390fd5b600754600854811580610729575080155b156107475760405163bb55fd2760e01b815260040160405180910390fd5b610752868284610ff5565b92508483101561077557604051638199f5f360e01b815260040160405180910390fd5b8183106107955760405163bb55fd2760e01b815260040160405180910390fd5b61079f86826117f8565b6008556107ac838361180b565b6007556107e46001600160a01b037f00000000000000000000000000000000000000000000000000000000000000001633308961108a565b6108186001600160a01b037f00000000000000000000000000000000000000000000000000000000000000001685856110f1565b836001600160a01b03167f00000000000000000000000000000000000000000000000000000000000000006001600160a01b0316336001600160a01b03167fb39c9bc43f811e1a7ce159c5f147458fdb80266bf23c17322013316e27e086d08987604051610680929190918252602082015260400190565b5f805f61089b610fa0565b6108a3610fca565b8715806108ae575086155b156108cc57604051631f2a200560e01b815260040160405180910390fd5b6001600160a01b0384166108f35760405163d92e233d60e01b815260040160405180910390fd5b6007546008545f61090360025490565b9050805f03610946578a95508994506103e8610927610922878961181e565b611165565b610931919061180b565b935061094161dead6103e86112bd565b610a06565b5f83610952848e61181e565b61095c9190611849565b90508a8111610991578881101561098657604051638199f5f360e01b815260040160405180910390fd5b8b96508095506109d0565b5f8361099d868e61181e565b6109a79190611849565b90508a8110156109ca57604051638199f5f360e01b815260040160405180910390fd5b96508a95505b610a02846109de848a61181e565b6109e89190611849565b846109f3858a61181e565b6109fd9190611849565b6112f5565b9450505b835f03610a2657604051633999656760e01b815260040160405180910390fd5b88861015610a4757604051638199f5f360e01b815260040160405180910390fd5b87851015610a6857604051638199f5f360e01b815260040160405180910390fd5b610a7286846117f8565b600755610a7f85836117f8565b600855610a8c87856112bd565b610ac16001600160a01b037f00000000000000000000000000000000000000000000000000000000000000001633308961108a565b610af66001600160a01b037f00000000000000000000000000000000000000000000000000000000000000001633308861108a565b604080518781526020810187905290810185905233907f64b83944e79c3ce8d4c297411de637c3e102d064677aac0c163976ebdcd6f50e9060600160405180910390a2505050610b466001600555565b955095509592505050565b5f80610b5b610fa0565b610b63610fca565b855f03610b8357604051631f2a200560e01b815260040160405180910390fd5b6001600160a01b038316610baa5760405163d92e233d60e01b815260040160405180910390fd5b5f610bb460025490565b6007546008549192509082610bc9838b61181e565b610bd39190611849565b945082610be0828b61181e565b610bea9190611849565b9350841580610bf7575083155b15610c155760405163bb55fd2760e01b815260040160405180910390fd5b87851015610c3657604051638199f5f360e01b815260040160405180910390fd5b86841015610c5757604051638199f5f360e01b815260040160405180910390fd5b610c61858361180b565b600755610c6e848261180b565b600855610c7b338a611304565b610caf6001600160a01b037f00000000000000000000000000000000000000000000000000000000000000001687876110f1565b610ce36001600160a01b037f00000000000000000000000000000000000000000000000000000000000000001687866110f1565b60408051868152602081018690529081018a905233907f1dc8bb69df2b8e91fbdcbfcf93d951b3f0000f085a95fe3f7946d6161439245d9060600160405180910390a2505050610d336001600555565b94509492505050565b6007546008545f91906001600160a01b037f0000000000000000000000000000000000000000000000000000000000000000811690851603610d8c57610d83858383610ff5565b92505050610462565b610d97858284610ff5565b95945050505050565b610da8610ecd565b6001600160a01b038116610dd657604051631e4fbdf760e01b81525f60048201526024015b60405180910390fd5b610ddf81610f4f565b50565b610def8383836001611338565b505050565b6001600160a01b038381165f908152600160209081526040808320938616835292905220545f19811015610e6a5781811015610e5c57604051637dc7a0d960e11b81526001600160a01b03841660048201526024810182905260448101839052606401610dcd565b610e6a84848484035f611338565b50505050565b6001600160a01b038316610e9957604051634b637e8f60e11b81525f6004820152602401610dcd565b6001600160a01b038216610ec25760405163ec442f0560e01b81525f6004820152602401610dcd565b610def83838361140a565b6006546001600160a01b0316331461049d5760405163118cdaa760e01b8152336004820152602401610dcd565b610f02611530565b6006805460ff60a01b191690557f5db9ee0a495bf2e6ff9c91a7834c1ba4fdd244a5e8aa4e537bd38aeae4b073aa335b6040516001600160a01b03909116815260200160405180910390a1565b600680546001600160a01b038381166001600160a01b0319831681179093556040519116919082907f8be0079c531659141344cd1fd0a4f28419497f9722a3daafe3b4186f6b6457e0905f90a35050565b600260055403610fc357604051633ee5aeb560e01b815260040160405180910390fd5b6002600555565b600654600160a01b900460ff161561049d5760405163d93c066560e01b815260040160405180910390fd5b5f821580611001575081155b1561101f5760405163bb55fd2760e01b815260040160405180910390fd5b835f0361103f57604051631f2a200560e01b815260040160405180910390fd5b5f61104c6103e58661181e565b90505f611059848361181e565b90505f826110696103e88861181e565b61107391906117f8565b905061107f8183611849565b979650505050505050565b6040516001600160a01b038481166024830152838116604483015260648201839052610e6a9186918216906323b872dd906084015b604051602081830303815290604052915060e01b6020820180516001600160e01b03838183161783525050505061155a565b6040516001600160a01b03838116602483015260448201839052610def91859182169063a9059cbb906064016110bf565b61112a610fca565b6006805460ff60a01b1916600160a01b1790557f62e78cea01bee320cd4e420270b5ea74000d11b0c9f74754ebdbfc544b05a258610f323390565b5f60018211611172575090565b816001600160801b821061118b5760809190911c9060401b5b6801000000000000000082106111a65760409190911c9060201b5b64010000000082106111bd5760209190911c9060101b5b6201000082106111d25760109190911c9060081b5b61010082106111e65760089190911c9060041b5b601082106111f95760049190911c9060021b5b600482106112055760011b5b600302600190811c9081858161121d5761121d611835565b048201901c9050600181858161123557611235611835565b048201901c9050600181858161124d5761124d611835565b048201901c9050600181858161126557611265611835565b048201901c9050600181858161127d5761127d611835565b048201901c9050600181858161129557611295611835565b048201901c90506112b48185816112ae576112ae611835565b04821190565b90039392505050565b6001600160a01b0382166112e65760405163ec442f0560e01b81525f6004820152602401610dcd565b6112f15f838361140a565b5050565b5f828218828410028218610486565b6001600160a01b03821661132d57604051634b637e8f60e11b81525f6004820152602401610dcd565b6112f1825f8361140a565b6001600160a01b0384166113615760405163e602df0560e01b81525f6004820152602401610dcd565b6001600160a01b03831661138a57604051634a1406b160e11b81525f6004820152602401610dcd565b6001600160a01b038085165f9081526001602090815260408083209387168352929052208290558015610e6a57826001600160a01b0316846001600160a01b03167f8c5be1e5ebec7d5bd14f71427d1e84f3dd0314c0f7b2291e5b200ac8c7c3b925846040516113fc91815260200190565b60405180910390a350505050565b6001600160a01b038316611434578060025f82825461142991906117f8565b909155506114a49050565b6001600160a01b0383165f90815260208190526040902054818110156114865760405163391434e360e21b81526001600160a01b03851660048201526024810182905260448101839052606401610dcd565b6001600160a01b0384165f9081526020819052604090209082900390555b6001600160a01b0382166114c0576002805482900390556114de565b6001600160a01b0382165f9081526020819052604090208054820190555b816001600160a01b0316836001600160a01b03167fddf252ad1be2c89b69c2b068fc378daa952ba7f163c4a11628f55a4df523b3ef8360405161152391815260200190565b60405180910390a3505050565b600654600160a01b900460ff1661049d57604051638dfc202b60e01b815260040160405180910390fd5b5f8060205f8451602086015f885af180611579576040513d5f823e3d81fd5b50505f513d9150811561159057806001141561159d565b6001600160a01b0384163b155b15610e6a57604051635274afe760e01b81526001600160a01b0385166004820152602401610dcd565b5f602080835283518060208501525f5b818110156115f2578581018301518582016040015282016115d6565b505f604082860101526040601f19601f8301168501019250505092915050565b80356001600160a01b0381168114611628575f80fd5b919050565b5f806040838503121561163e575f80fd5b61164783611612565b946020939093013593505050565b5f805f60608486031215611667575f80fd5b61167084611612565b925061167e60208501611612565b9150604084013590509250925092565b5f6020828403121561169e575f80fd5b61048682611612565b5f805f606084860312156116b9575f80fd5b83359250602084013591506116d060408501611612565b90509250925092565b5f80604083850312156116ea575f80fd5b6116f383611612565b915061170160208401611612565b90509250929050565b5f805f805f60a0868803121561171e575f80fd5b8535945060208601359350604086013592506060860135915061174360808701611612565b90509295509295909350565b5f805f8060808587031215611762575f80fd5b84359350602085013592506040850135915061178060608601611612565b905092959194509250565b5f806040838503121561179c575f80fd5b8235915061170160208401611612565b600181811c908216806117c057607f821691505b6020821081036117de57634e487b7160e01b5f52602260045260245ffd5b50919050565b634e487b7160e01b5f52601160045260245ffd5b80820180821115610462576104626117e4565b81810381811115610462576104626117e4565b8082028115828204841417610462576104626117e4565b634e487b7160e01b5f52601260045260245ffd5b5f8261186357634e487b7160e01b5f52601260045260245ffd5b50049056fea264697066735822122094475f2e0083f4ba8f7bb896ee0ccd1375e7830d12d1055ba45fc3fc07e398e264736f6c63430008180033","linkReferences":{}},"methodIdentifiers":{"addLiquidity(uint256,uint256,uint256,uint256,address)":"e0ab0772","allowance(address,address)":"dd62ed3e","approve(address,uint256)":"095ea7b3","balanceOf(address)":"70a08231","decimals()":"313ce567","getAmountOut(uint256,address)":"f140a35a","getReserves()":"0902f1ac","name()":"06fdde03","owner()":"8da5cb5b","pause()":"8456cb59","paused()":"5c975abb","removeLiquidity(uint256,uint256,uint256,address)":"e39b0eb5","renounceOwnership()":"715018a6","reserve0()":"443cb4bc","reserve1()":"5a76f25e","swapExactToken0ForToken1(uint256,uint256,address)":"7cfaa060","swapExactToken1ForToken0(uint256,uint256,address)":"c2f9506c","symbol()":"95d89b41","token0()":"0dfe1681","token1()":"d21220a7","totalSupply()":"18160ddd","transfer(address,uint256)":"a9059cbb","transferFrom(address,address,uint256)":"23b872dd","transferOwnership(address)":"f2fde38b","unpause()":"3f4ba83a"},"id":62}